{"abi":[{"type":"constructor","inputs":[{"name":"_manager","type":"address","internalType":"contract IPoolManager"}],"stateMutability":"nonpayable"},{"type":"function","name":"manager","inputs":[],"outputs":[{"name":"","type":"address","internalType":"contract IPoolManager"}],"stateMutability":"view"},{"type":"function","name":"modifyLiquidity","inputs":[{"name":"key","type":"tuple","internalType":"struct PoolKey","components":[{"name":"currency0","type":"address","internalType":"Currency"},{"name":"currency1","type":"address","internalType":"Currency"},{"name":"fee","type":"uint24","internalType":"uint24"},{"name":"tickSpacing","type":"int24","internalType":"int24"},{"name":"hooks","type":"address","internalType":"contract IHooks"}]},{"name":"params","type":"tuple","internalType":"struct IPoolManager.ModifyLiquidityParams","components":[{"name":"tickLower","type":"int24","internalType":"int24"},{"name":"tickUpper","type":"int24","internalType":"int24"},{"name":"liquidityDelta","type":"int256","internalType":"int256"},{"name":"salt","type":"bytes32","internalType":"bytes32"}]},{"name":"hookData","type":"bytes","internalType":"bytes"},{"name":"settleUsingBurn","type":"bool","internalType":"bool"},{"name":"takeClaims","type":"bool","internalType":"bool"}],"outputs":[{"name":"delta","type":"int256","internalType":"BalanceDelta"}],"stateMutability":"payable"},{"type":"function","name":"modifyLiquidity","inputs":[{"name":"key","type":"tuple","internalType":"struct PoolKey","components":[{"name":"currency0","type":"address","internalType":"Currency"},{"name":"currency1","type":"address","internalType":"Currency"},{"name":"fee","type":"uint24","internalType":"uint24"},{"name":"tickSpacing","type":"int24","internalType":"int24"},{"name":"hooks","type":"address","internalType":"contract IHooks"}]},{"name":"params","type":"tuple","internalType":"struct IPoolManager.ModifyLiquidityParams","components":[{"name":"tickLower","type":"int24","internalType":"int24"},{"name":"tickUpper","type":"int24","internalType":"int24"},{"name":"liquidityDelta","type":"int256","internalType":"int256"},{"name":"salt","type":"bytes32","internalType":"bytes32"}]},{"name":"hookData","type":"bytes","internalType":"bytes"}],"outputs":[{"name":"delta","type":"int256","internalType":"BalanceDelta"}],"stateMutability":"payable"},{"type":"function","name":"unlockCallback","inputs":[{"name":"rawData","type":"bytes","internalType":"bytes"}],"outputs":[{"name":"","type":"bytes","internalType":"bytes"}],"stateMutability":"nonpayable"}],"bytecode":{"object":"0x60a060405234801561000f575f80fd5b50604051611c24380380611c24833981810160405281019061003191906100dc565b808073ffffffffffffffffffffffffffffffffffffffff1660808173ffffffffffffffffffffffffffffffffffffffff16815250505050610107565b5f80fd5b5f73ffffffffffffffffffffffffffffffffffffffff82169050919050565b5f61009a82610071565b9050919050565b5f6100ab82610090565b9050919050565b6100bb816100a1565b81146100c5575f80fd5b50565b5f815190506100d6816100b2565b92915050565b5f602082840312156100f1576100f061006d565b5b5f6100fe848285016100c8565b91505092915050565b608051611ad46101505f395f818161010b01528181610263015281816102a00152818161030a015281816103de0152818161044d015281816104bd01526105230152611ad45ff3fe60806040526004361061003e575f3560e01c80630a5b11e414610042578063481c6a75146100725780635a6bcfda1461009c57806391dd7346146100cc575b5f80fd5b61005c60048036038101906100579190610fe6565b610108565b60405161006991906110b6565b60405180910390f35b34801561007d575f80fd5b50610086610261565b6040516100939190611121565b60405180910390f35b6100b660048036038101906100b1919061113a565b610285565b6040516100c391906110b6565b60405180910390f35b3480156100d7575f80fd5b506100f260048036038101906100ed9190611205565b61029c565b6040516100ff91906112b0565b60405180910390f35b5f7f000000000000000000000000000000000000000000000000000000000000000073ffffffffffffffffffffffffffffffffffffffff166348c894916040518060c001604052803373ffffffffffffffffffffffffffffffffffffffff168152602001898152602001888152602001878152602001861515815260200185151581525060405160200161019c91906114f5565b6040516020818303038152906040526040518263ffffffff1660e01b81526004016101c791906112b0565b5f604051808303815f875af11580156101e2573d5f803e3d5ffd5b505050506040513d5f823e3d601f19601f8201168201806040525081019061020a9190611583565b80602001905181019061021d91906115f4565b90505f4790505f8111156102575761025633825f73ffffffffffffffffffffffffffffffffffffffff166105a99092919063ffffffff16565b5b5095945050505050565b7f000000000000000000000000000000000000000000000000000000000000000081565b5f6102938484845f80610108565b90509392505050565b60607f000000000000000000000000000000000000000000000000000000000000000073ffffffffffffffffffffffffffffffffffffffff163373ffffffffffffffffffffffffffffffffffffffff16146102f5575f80fd5b5f83838101906103059190611706565b90505f7f000000000000000000000000000000000000000000000000000000000000000073ffffffffffffffffffffffffffffffffffffffff16635a6bcfda8360200151846040015185606001516040518463ffffffff1660e01b815260040161037193929190611806565b60408051808303815f875af115801561038c573d5f803e3d5ffd5b505050506040513d601f19601f820116820180604052508101906103b09190611844565b5090505f6103bd82610690565b600f0b90505f6103cc8361069c565b600f0b90505f8212156104405761043f7f0000000000000000000000000000000000000000000000000000000000000000855f01518461040b906118af565b876080015188602001515f015173ffffffffffffffffffffffffffffffffffffffff166106a890949392919063ffffffff16565b5b5f8112156104b0576104af7f0000000000000000000000000000000000000000000000000000000000000000855f01518361047a906118af565b876080015188602001516020015173ffffffffffffffffffffffffffffffffffffffff166106a890949392919063ffffffff16565b5b5f821315610516576105157f0000000000000000000000000000000000000000000000000000000000000000855f0151848760a0015188602001515f015173ffffffffffffffffffffffffffffffffffffffff166109e690949392919063ffffffff16565b5b5f81131561057d5761057c7f0000000000000000000000000000000000000000000000000000000000000000855f0151838760a0015188602001516020015173ffffffffffffffffffffffffffffffffffffffff166109e690949392919063ffffffff16565b5b8260405160200161058e91906110b6565b60405160208183030381529060405294505050505092915050565b5f6105c98473ffffffffffffffffffffffffffffffffffffffff16610aea565b156105f8575f805f8085875af19050806105f3576105f2835f60e01b63f4b3b1bc60e01b610b21565b5b61068a565b6040517fa9059cbb00000000000000000000000000000000000000000000000000000000815273ffffffffffffffffffffffffffffffffffffffff8416600482015282602482015260205f6044835f895af13d15601f3d1160015f511416171691505f81525f60208201525f60408201525080610689576106888463a9059cbb60e01b63f27f64e460e01b610b21565b5b5b50505050565b5f8160801d9050919050565b5f81600f0b9050919050565b801561073b578373ffffffffffffffffffffffffffffffffffffffff1663f5298aca846106ea8873ffffffffffffffffffffffffffffffffffffffff16610bd6565b856040518463ffffffff1660e01b81526004016107099392919061191c565b5f604051808303815f87803b158015610720575f80fd5b505af1158015610732573d5f803e3d5ffd5b505050506109df565b61075a8573ffffffffffffffffffffffffffffffffffffffff16610aea565b156107d5578373ffffffffffffffffffffffffffffffffffffffff166311da60b4836040518263ffffffff1660e01b815260040160206040518083038185885af11580156107aa573d5f803e3d5ffd5b50505050506040513d601f19601f820116820180604052508101906107cf919061197b565b506109de565b8373ffffffffffffffffffffffffffffffffffffffff1663a5841194866040518263ffffffff1660e01b815260040161080e91906119b5565b5f604051808303815f87803b158015610825575f80fd5b505af1158015610837573d5f803e3d5ffd5b505050503073ffffffffffffffffffffffffffffffffffffffff168373ffffffffffffffffffffffffffffffffffffffff16146108f1578473ffffffffffffffffffffffffffffffffffffffff166323b872dd8486856040518463ffffffff1660e01b81526004016108ab939291906119ce565b6020604051808303815f875af11580156108c7573d5f803e3d5ffd5b505050506040513d601f19601f820116820180604052508101906108eb9190611a17565b5061096e565b8473ffffffffffffffffffffffffffffffffffffffff1663a9059cbb85846040518363ffffffff1660e01b815260040161092c929190611a42565b6020604051808303815f875af1158015610948573d5f803e3d5ffd5b505050506040513d601f19601f8201168201806040525081019061096c9190611a17565b505b8373ffffffffffffffffffffffffffffffffffffffff166311da60b46040518163ffffffff1660e01b81526004016020604051808303815f875af11580156109b8573d5f803e3d5ffd5b505050506040513d601f19601f820116820180604052508101906109dc919061197b565b505b5b5050505050565b80610a5a578373ffffffffffffffffffffffffffffffffffffffff16630b0d9c098685856040518463ffffffff1660e01b8152600401610a2893929190611a69565b5f604051808303815f87803b158015610a3f575f80fd5b505af1158015610a51573d5f803e3d5ffd5b50505050610ae3565b8373ffffffffffffffffffffffffffffffffffffffff1663156e29f684610a968873ffffffffffffffffffffffffffffffffffffffff16610bd6565b856040518463ffffffff1660e01b8152600401610ab59392919061191c565b5f604051808303815f87803b158015610acc575f80fd5b505af1158015610ade573d5f803e3d5ffd5b505050505b5050505050565b5f8073ffffffffffffffffffffffffffffffffffffffff168273ffffffffffffffffffffffffffffffffffffffff16149050919050565b5f6390bfb86560e01b9050602080601f3d01040260405182815273ffffffffffffffffffffffffffffffffffffffff861660048201527fffffffff0000000000000000000000000000000000000000000000000000000085166024820152608060448201528160a00160648201523d60848201523d5f60a483013e60048260a4018201527fffffffff0000000000000000000000000000000000000000000000000000000084168260c4018201528160e40181fd5b5f8173ffffffffffffffffffffffffffffffffffffffff169050919050565b5f604051905090565b5f80fd5b5f80fd5b5f80fd5b5f601f19601f8301169050919050565b7f4e487b71000000000000000000000000000000000000000000000000000000005f52604160045260245ffd5b610c5082610c0a565b810181811067ffffffffffffffff82111715610c6f57610c6e610c1a565b5b80604052505050565b5f610c81610bf5565b9050610c8d8282610c47565b919050565b5f80fd5b5f73ffffffffffffffffffffffffffffffffffffffff82169050919050565b5f610cbf82610c96565b9050919050565b610ccf81610cb5565b8114610cd9575f80fd5b50565b5f81359050610cea81610cc6565b92915050565b5f62ffffff82169050919050565b610d0781610cf0565b8114610d11575f80fd5b50565b5f81359050610d2281610cfe565b92915050565b5f8160020b9050919050565b610d3d81610d28565b8114610d47575f80fd5b50565b5f81359050610d5881610d34565b92915050565b5f610d6882610cb5565b9050919050565b610d7881610d5e565b8114610d82575f80fd5b50565b5f81359050610d9381610d6f565b92915050565b5f60a08284031215610dae57610dad610c06565b5b610db860a0610c78565b90505f610dc784828501610cdc565b5f830152506020610dda84828501610cdc565b6020830152506040610dee84828501610d14565b6040830152506060610e0284828501610d4a565b6060830152506080610e1684828501610d85565b60808301525092915050565b5f819050919050565b610e3481610e22565b8114610e3e575f80fd5b50565b5f81359050610e4f81610e2b565b92915050565b5f819050919050565b610e6781610e55565b8114610e71575f80fd5b50565b5f81359050610e8281610e5e565b92915050565b5f60808284031215610e9d57610e9c610c06565b5b610ea76080610c78565b90505f610eb684828501610d4a565b5f830152506020610ec984828501610d4a565b6020830152506040610edd84828501610e41565b6040830152506060610ef184828501610e74565b60608301525092915050565b5f80fd5b5f80fd5b5f67ffffffffffffffff821115610f1f57610f1e610c1a565b5b610f2882610c0a565b9050602081019050919050565b828183375f83830152505050565b5f610f55610f5084610f05565b610c78565b905082815260208101848484011115610f7157610f70610f01565b5b610f7c848285610f35565b509392505050565b5f82601f830112610f9857610f97610efd565b5b8135610fa8848260208601610f43565b91505092915050565b5f8115159050919050565b610fc581610fb1565b8114610fcf575f80fd5b50565b5f81359050610fe081610fbc565b92915050565b5f805f805f610180868803121561100057610fff610bfe565b5b5f61100d88828901610d99565b95505060a061101e88828901610e88565b94505061012086013567ffffffffffffffff8111156110405761103f610c02565b5b61104c88828901610f84565b93505061014061105e88828901610fd2565b92505061016061107088828901610fd2565b9150509295509295909350565b5f819050919050565b5f6110a061109b61109684610e22565b61107d565b610e22565b9050919050565b6110b081611086565b82525050565b5f6020820190506110c95f8301846110a7565b92915050565b5f6110e96110e46110df84610c96565b61107d565b610c96565b9050919050565b5f6110fa826110cf565b9050919050565b5f61110b826110f0565b9050919050565b61111b81611101565b82525050565b5f6020820190506111345f830184611112565b92915050565b5f805f610140848603121561115257611151610bfe565b5b5f61115f86828701610d99565b93505060a061117086828701610e88565b92505061012084013567ffffffffffffffff81111561119257611191610c02565b5b61119e86828701610f84565b9150509250925092565b5f80fd5b5f80fd5b5f8083601f8401126111c5576111c4610efd565b5b8235905067ffffffffffffffff8111156111e2576111e16111a8565b5b6020830191508360018202830111156111fe576111fd6111ac565b5b9250929050565b5f806020838503121561121b5761121a610bfe565b5b5f83013567ffffffffffffffff81111561123857611237610c02565b5b611244858286016111b0565b92509250509250929050565b5f81519050919050565b5f82825260208201905092915050565b8281835e5f83830152505050565b5f61128282611250565b61128c818561125a565b935061129c81856020860161126a565b6112a581610c0a565b840191505092915050565b5f6020820190508181035f8301526112c88184611278565b905092915050565b6112d981610cb5565b82525050565b5f6112e9826110f0565b9050919050565b6112f9816112df565b82525050565b61130881610cf0565b82525050565b61131781610d28565b82525050565b5f611327826110f0565b9050919050565b6113378161131d565b82525050565b60a082015f8201516113515f8501826112f0565b50602082015161136460208501826112f0565b50604082015161137760408501826112ff565b50606082015161138a606085018261130e565b50608082015161139d608085018261132e565b50505050565b6113ac81610e22565b82525050565b6113bb81610e55565b82525050565b608082015f8201516113d55f85018261130e565b5060208201516113e8602085018261130e565b5060408201516113fb60408501826113a3565b50606082015161140e60608501826113b2565b50505050565b5f82825260208201905092915050565b5f61142e82611250565b6114388185611414565b935061144881856020860161126a565b61145181610c0a565b840191505092915050565b61146581610fb1565b82525050565b5f6101a083015f8301516114815f8601826112d0565b506020830151611494602086018261133d565b5060408301516114a760c08601826113c1565b5060608301518482036101408601526114c08282611424565b91505060808301516114d661016086018261145c565b5060a08301516114ea61018086018261145c565b508091505092915050565b5f6020820190508181035f83015261150d818461146b565b905092915050565b5f61152761152284610f05565b610c78565b90508281526020810184848401111561154357611542610f01565b5b61154e84828561126a565b509392505050565b5f82601f83011261156a57611569610efd565b5b815161157a848260208601611515565b91505092915050565b5f6020828403121561159857611597610bfe565b5b5f82015167ffffffffffffffff8111156115b5576115b4610c02565b5b6115c184828501611556565b91505092915050565b6115d381610e22565b81146115dd575f80fd5b50565b5f815190506115ee816115ca565b92915050565b5f6020828403121561160957611608610bfe565b5b5f611616848285016115e0565b91505092915050565b61162881610cb5565b8114611632575f80fd5b50565b5f813590506116438161161f565b92915050565b5f6101a0828403121561165f5761165e610c06565b5b61166960c0610c78565b90505f61167884828501611635565b5f83015250602061168b84828501610d99565b60208301525060c061169f84828501610e88565b60408301525061014082013567ffffffffffffffff8111156116c4576116c3610c92565b5b6116d084828501610f84565b6060830152506101606116e584828501610fd2565b6080830152506101806116fa84828501610fd2565b60a08301525092915050565b5f6020828403121561171b5761171a610bfe565b5b5f82013567ffffffffffffffff81111561173857611737610c02565b5b61174484828501611649565b91505092915050565b60a082015f8201516117615f8501826112f0565b50602082015161177460208501826112f0565b50604082015161178760408501826112ff565b50606082015161179a606085018261130e565b5060808201516117ad608085018261132e565b50505050565b608082015f8201516117c75f85018261130e565b5060208201516117da602085018261130e565b5060408201516117ed60408501826113a3565b50606082015161180060608501826113b2565b50505050565b5f6101408201905061181a5f83018661174d565b61182760a08301856117b3565b81810361012083015261183a8184611278565b9050949350505050565b5f806040838503121561185a57611859610bfe565b5b5f611867858286016115e0565b9250506020611878858286016115e0565b9150509250929050565b7f4e487b71000000000000000000000000000000000000000000000000000000005f52601160045260245ffd5b5f6118b982610e22565b91507f800000000000000000000000000000000000000000000000000000000000000082036118eb576118ea611882565b5b815f039050919050565b6118fe81610cb5565b82525050565b5f819050919050565b61191681611904565b82525050565b5f60608201905061192f5f8301866118f5565b61193c602083018561190d565b611949604083018461190d565b949350505050565b61195a81611904565b8114611964575f80fd5b50565b5f8151905061197581611951565b92915050565b5f602082840312156119905761198f610bfe565b5b5f61199d84828501611967565b91505092915050565b6119af816112df565b82525050565b5f6020820190506119c85f8301846119a6565b92915050565b5f6060820190506119e15f8301866118f5565b6119ee60208301856118f5565b6119fb604083018461190d565b949350505050565b5f81519050611a1181610fbc565b92915050565b5f60208284031215611a2c57611a2b610bfe565b5b5f611a3984828501611a03565b91505092915050565b5f604082019050611a555f8301856118f5565b611a62602083018461190d565b9392505050565b5f606082019050611a7c5f8301866119a6565b611a8960208301856118f5565b611a96604083018461190d565b94935050505056fea26469706673582212204292c5f5078e4e7252c50576cf8695fbcbb940e247d99a7bec7648a254073b3464736f6c634300081a0033","linkReferences":{}},"methodIdentifiers":{"manager()":"481c6a75","modifyLiquidity((address,address,uint24,int24,address),(int24,int24,int256,bytes32),bytes)":"5a6bcfda","modifyLiquidity((address,address,uint24,int24,address),(int24,int24,int256,bytes32),bytes,bool,bool)":"0a5b11e4","unlockCallback(bytes)":"91dd7346"},"id":73}