{"abi":[{"type":"constructor","inputs":[{"name":"_manager","type":"address","internalType":"contract IPoolManager"}],"stateMutability":"nonpayable"},{"type":"function","name":"manager","inputs":[],"outputs":[{"name":"","type":"address","internalType":"contract IPoolManager"}],"stateMutability":"view"},{"type":"function","name":"modifyLiquidity","inputs":[{"name":"key","type":"tuple","internalType":"struct PoolKey","components":[{"name":"currency0","type":"address","internalType":"Currency"},{"name":"currency1","type":"address","internalType":"Currency"},{"name":"fee","type":"uint24","internalType":"uint24"},{"name":"tickSpacing","type":"int24","internalType":"int24"},{"name":"hooks","type":"address","internalType":"contract IHooks"}]},{"name":"params","type":"tuple","internalType":"struct IPoolManager.ModifyLiquidityParams","components":[{"name":"tickLower","type":"int24","internalType":"int24"},{"name":"tickUpper","type":"int24","internalType":"int24"},{"name":"liquidityDelta","type":"int256","internalType":"int256"},{"name":"salt","type":"bytes32","internalType":"bytes32"}]},{"name":"hookData","type":"bytes","internalType":"bytes"},{"name":"settleUsingBurn","type":"bool","internalType":"bool"},{"name":"takeClaims","type":"bool","internalType":"bool"}],"outputs":[{"name":"delta","type":"int256","internalType":"BalanceDelta"}],"stateMutability":"payable"},{"type":"function","name":"modifyLiquidity","inputs":[{"name":"key","type":"tuple","internalType":"struct PoolKey","components":[{"name":"currency0","type":"address","internalType":"Currency"},{"name":"currency1","type":"address","internalType":"Currency"},{"name":"fee","type":"uint24","internalType":"uint24"},{"name":"tickSpacing","type":"int24","internalType":"int24"},{"name":"hooks","type":"address","internalType":"contract IHooks"}]},{"name":"params","type":"tuple","internalType":"struct IPoolManager.ModifyLiquidityParams","components":[{"name":"tickLower","type":"int24","internalType":"int24"},{"name":"tickUpper","type":"int24","internalType":"int24"},{"name":"liquidityDelta","type":"int256","internalType":"int256"},{"name":"salt","type":"bytes32","internalType":"bytes32"}]},{"name":"hookData","type":"bytes","internalType":"bytes"}],"outputs":[{"name":"delta","type":"int256","internalType":"BalanceDelta"}],"stateMutability":"payable"},{"type":"function","name":"unlockCallback","inputs":[{"name":"rawData","type":"bytes","internalType":"bytes"}],"outputs":[{"name":"","type":"bytes","internalType":"bytes"}],"stateMutability":"nonpayable"}],"bytecode":{"object":"0x60a060405234801561000f575f80fd5b50604051612572380380612572833981810160405281019061003191906100dc565b808073ffffffffffffffffffffffffffffffffffffffff1660808173ffffffffffffffffffffffffffffffffffffffff16815250505050610107565b5f80fd5b5f73ffffffffffffffffffffffffffffffffffffffff82169050919050565b5f61009a82610071565b9050919050565b5f6100ab82610090565b9050919050565b6100bb816100a1565b81146100c5575f80fd5b50565b5f815190506100d6816100b2565b92915050565b5f602082840312156100f1576100f061006d565b5b5f6100fe848285016100c8565b91505092915050565b60805161240661016c5f395f818161010b01528181610263015281816102a001528181610335015281816103830152818161045a015281816105d301528181610642015281816106b201528181610718015281816108fc015261094901526124065ff3fe60806040526004361061003e575f3560e01c80630a5b11e414610042578063481c6a75146100725780635a6bcfda1461009c57806391dd7346146100cc575b5f80fd5b61005c600480360381019061005791906115cd565b610108565b604051610069919061169d565b60405180910390f35b34801561007d575f80fd5b50610086610261565b6040516100939190611708565b60405180910390f35b6100b660048036038101906100b19190611721565b610285565b6040516100c3919061169d565b60405180910390f35b3480156100d7575f80fd5b506100f260048036038101906100ed91906117ec565b61029c565b6040516100ff9190611897565b60405180910390f35b5f7f000000000000000000000000000000000000000000000000000000000000000073ffffffffffffffffffffffffffffffffffffffff166348c894916040518060c001604052803373ffffffffffffffffffffffffffffffffffffffff168152602001898152602001888152602001878152602001861515815260200185151581525060405160200161019c9190611adc565b6040516020818303038152906040526040518263ffffffff1660e01b81526004016101c79190611897565b5f604051808303815f875af11580156101e2573d5f803e3d5ffd5b505050506040513d5f823e3d601f19601f8201168201806040525081019061020a9190611b6a565b80602001905181019061021d9190611bdb565b90505f4790505f8111156102575761025633825f73ffffffffffffffffffffffffffffffffffffffff166107a09092919063ffffffff16565b5b5095945050505050565b7f000000000000000000000000000000000000000000000000000000000000000081565b5f6102938484845f80610108565b90509392505050565b60607f000000000000000000000000000000000000000000000000000000000000000073ffffffffffffffffffffffffffffffffffffffff163373ffffffffffffffffffffffffffffffffffffffff16146102f5575f80fd5b5f83838101906103059190611ced565b90505f61037c6103188360200151610887565b3084604001515f01518560400151602001518660400151606001517f000000000000000000000000000000000000000000000000000000000000000073ffffffffffffffffffffffffffffffffffffffff166108939095949392919063ffffffff16565b505090505f7f000000000000000000000000000000000000000000000000000000000000000073ffffffffffffffffffffffffffffffffffffffff16635a6bcfda8460200151856040015186606001516040518463ffffffff1660e01b81526004016103ea93929190611ded565b60408051808303815f875af1158015610405573d5f803e3d5ffd5b505050506040513d601f19601f820116820180604052508101906104299190611e2b565b5090505f6104a161043d8560200151610887565b3086604001515f01518760400151602001518860400151606001517f000000000000000000000000000000000000000000000000000000000000000073ffffffffffffffffffffffffffffffffffffffff166108939095949392919063ffffffff16565b505090505f6104bb85602001515f0151865f0151306108c9565b925050505f6104d6866020015160200151875f0151306108c9565b9250505082600f0b86604001516040015186600f0b6104f59190611e96565b14610535576040517f08c379a000000000000000000000000000000000000000000000000000000000815260040161052c90611f31565b60405180910390fd5b5f866040015160400151121561057f575f82138061055257505f81135b61055f5761055e611f4f565b5b5f82128061056c57505f81125b1561057a57610579611f4f565b5b6105c6565b5f86604001516040015113156105c5575f82128061059c57505f81125b6105a9576105a8611f4f565b5b5f8213806105b657505f81135b156105c4576105c3611f4f565b5b5b5b5f821215610635576106347f0000000000000000000000000000000000000000000000000000000000000000875f01518461060090611f7c565b89608001518a602001515f015173ffffffffffffffffffffffffffffffffffffffff1661099890949392919063ffffffff16565b5b5f8112156106a5576106a47f0000000000000000000000000000000000000000000000000000000000000000875f01518361066f90611f7c565b89608001518a602001516020015173ffffffffffffffffffffffffffffffffffffffff1661099890949392919063ffffffff16565b5b5f82131561070b5761070a7f0000000000000000000000000000000000000000000000000000000000000000875f0151848960a001518a602001515f015173ffffffffffffffffffffffffffffffffffffffff16610cd690949392919063ffffffff16565b5b5f811315610772576107717f0000000000000000000000000000000000000000000000000000000000000000875f0151838960a001518a602001516020015173ffffffffffffffffffffffffffffffffffffffff16610cd690949392919063ffffffff16565b5b83604051602001610783919061169d565b604051602081830303815290604052965050505050505092915050565b5f6107c08473ffffffffffffffffffffffffffffffffffffffff16610dda565b156107ef575f805f8085875af19050806107ea576107e9835f60e01b63f4b3b1bc60e01b610e11565b5b610881565b6040517fa9059cbb00000000000000000000000000000000000000000000000000000000815273ffffffffffffffffffffffffffffffffffffffff8416600482015282602482015260205f6044835f895af13d15601f3d1160015f511416171691505f81525f60208201525f604082015250806108805761087f8463a9059cbb60e01b63f27f64e460e01b610e11565b5b5b50505050565b5f60a082209050919050565b5f805f806108a388888888610ec6565b90506108b08a8a83610f00565b8094508195508296505050505096509650969350505050565b5f805f6108f5858773ffffffffffffffffffffffffffffffffffffffff16610fb190919063ffffffff16565b92506109407f00000000000000000000000000000000000000000000000000000000000000008773ffffffffffffffffffffffffffffffffffffffff16610fb190919063ffffffff16565b915061098d84877f000000000000000000000000000000000000000000000000000000000000000073ffffffffffffffffffffffffffffffffffffffff166110769092919063ffffffff16565b905093509350939050565b8015610a2b578373ffffffffffffffffffffffffffffffffffffffff1663f5298aca846109da8873ffffffffffffffffffffffffffffffffffffffff16611135565b856040518463ffffffff1660e01b81526004016109f993929190611fe9565b5f604051808303815f87803b158015610a10575f80fd5b505af1158015610a22573d5f803e3d5ffd5b50505050610ccf565b610a4a8573ffffffffffffffffffffffffffffffffffffffff16610dda565b15610ac5578373ffffffffffffffffffffffffffffffffffffffff166311da60b4836040518263ffffffff1660e01b815260040160206040518083038185885af1158015610a9a573d5f803e3d5ffd5b50505050506040513d601f19601f82011682018060405250810190610abf9190612048565b50610cce565b8373ffffffffffffffffffffffffffffffffffffffff1663a5841194866040518263ffffffff1660e01b8152600401610afe9190612082565b5f604051808303815f87803b158015610b15575f80fd5b505af1158015610b27573d5f803e3d5ffd5b505050503073ffffffffffffffffffffffffffffffffffffffff168373ffffffffffffffffffffffffffffffffffffffff1614610be1578473ffffffffffffffffffffffffffffffffffffffff166323b872dd8486856040518463ffffffff1660e01b8152600401610b9b9392919061209b565b6020604051808303815f875af1158015610bb7573d5f803e3d5ffd5b505050506040513d601f19601f82011682018060405250810190610bdb91906120e4565b50610c5e565b8473ffffffffffffffffffffffffffffffffffffffff1663a9059cbb85846040518363ffffffff1660e01b8152600401610c1c92919061210f565b6020604051808303815f875af1158015610c38573d5f803e3d5ffd5b505050506040513d601f19601f82011682018060405250810190610c5c91906120e4565b505b8373ffffffffffffffffffffffffffffffffffffffff166311da60b46040518163ffffffff1660e01b81526004016020604051808303815f875af1158015610ca8573d5f803e3d5ffd5b505050506040513d601f19601f82011682018060405250810190610ccc9190612048565b505b5b5050505050565b80610d4a578373ffffffffffffffffffffffffffffffffffffffff16630b0d9c098685856040518463ffffffff1660e01b8152600401610d1893929190612136565b5f604051808303815f87803b158015610d2f575f80fd5b505af1158015610d41573d5f803e3d5ffd5b50505050610dd3565b8373ffffffffffffffffffffffffffffffffffffffff1663156e29f684610d868873ffffffffffffffffffffffffffffffffffffffff16611135565b856040518463ffffffff1660e01b8152600401610da593929190611fe9565b5f604051808303815f87803b158015610dbc575f80fd5b505af1158015610dce573d5f803e3d5ffd5b505050505b5050505050565b5f8073ffffffffffffffffffffffffffffffffffffffff168273ffffffffffffffffffffffffffffffffffffffff16149050919050565b5f6390bfb86560e01b9050602080601f3d01040260405182815273ffffffffffffffffffffffffffffffffffffffff861660048201527fffffffff0000000000000000000000000000000000000000000000000000000085166024820152608060448201528160a00160648201523d60848201523d5f60a483013e60048260a4018201527fffffffff0000000000000000000000000000000000000000000000000000000084168260c4018201528160e40181fd5b5f604051826026820152836006820152846003820152858152603a600c82012091505f60408201525f60208201525f815250949350505050565b5f805f80610f0e8686611154565b90505f8773ffffffffffffffffffffffffffffffffffffffff166335fd631a8360036040518363ffffffff1660e01b8152600401610f4d9291906121b3565b5f60405180830381865afa158015610f67573d5f803e3d5ffd5b505050506040513d5f823e3d601f19601f82011682018060405250810190610f8f91906122ae565b9050602081015194506040810151935060608101519250505093509350939050565b5f610fd18373ffffffffffffffffffffffffffffffffffffffff16610dda565b15610ff5578173ffffffffffffffffffffffffffffffffffffffff16319050611070565b8273ffffffffffffffffffffffffffffffffffffffff166370a08231836040518263ffffffff1660e01b815260040161102e91906122f5565b602060405180830381865afa158015611049573d5f803e3d5ffd5b505050506040513d601f19601f8201168201806040525081019061106d9190612048565b90505b92915050565b5f8073ffffffffffffffffffffffffffffffffffffffff84165f5273ffffffffffffffffffffffffffffffffffffffff831660205260405f2090508473ffffffffffffffffffffffffffffffffffffffff1663f135baaa826040518263ffffffff1660e01b81526004016110ea919061230e565b602060405180830381865afa158015611105573d5f803e3d5ffd5b505050506040513d601f19601f820116820180604052508101906111299190612327565b5f1c9150509392505050565b5f8173ffffffffffffffffffffffffffffffffffffffff169050919050565b5f8061115f846111a8565b90505f6006825f1c6111719190612352565b5f1b905083816040516020016111889291906123a5565b604051602081830303815290604052805190602001209250505092915050565b5f8160065f1b6040516020016111bf9291906123a5565b604051602081830303815290604052805190602001209050919050565b5f604051905090565b5f80fd5b5f80fd5b5f80fd5b5f601f19601f8301169050919050565b7f4e487b71000000000000000000000000000000000000000000000000000000005f52604160045260245ffd5b611237826111f1565b810181811067ffffffffffffffff8211171561125657611255611201565b5b80604052505050565b5f6112686111dc565b9050611274828261122e565b919050565b5f80fd5b5f73ffffffffffffffffffffffffffffffffffffffff82169050919050565b5f6112a68261127d565b9050919050565b6112b68161129c565b81146112c0575f80fd5b50565b5f813590506112d1816112ad565b92915050565b5f62ffffff82169050919050565b6112ee816112d7565b81146112f8575f80fd5b50565b5f81359050611309816112e5565b92915050565b5f8160020b9050919050565b6113248161130f565b811461132e575f80fd5b50565b5f8135905061133f8161131b565b92915050565b5f61134f8261129c565b9050919050565b61135f81611345565b8114611369575f80fd5b50565b5f8135905061137a81611356565b92915050565b5f60a08284031215611395576113946111ed565b5b61139f60a061125f565b90505f6113ae848285016112c3565b5f8301525060206113c1848285016112c3565b60208301525060406113d5848285016112fb565b60408301525060606113e984828501611331565b60608301525060806113fd8482850161136c565b60808301525092915050565b5f819050919050565b61141b81611409565b8114611425575f80fd5b50565b5f8135905061143681611412565b92915050565b5f819050919050565b61144e8161143c565b8114611458575f80fd5b50565b5f8135905061146981611445565b92915050565b5f60808284031215611484576114836111ed565b5b61148e608061125f565b90505f61149d84828501611331565b5f8301525060206114b084828501611331565b60208301525060406114c484828501611428565b60408301525060606114d88482850161145b565b60608301525092915050565b5f80fd5b5f80fd5b5f67ffffffffffffffff82111561150657611505611201565b5b61150f826111f1565b9050602081019050919050565b828183375f83830152505050565b5f61153c611537846114ec565b61125f565b905082815260208101848484011115611558576115576114e8565b5b61156384828561151c565b509392505050565b5f82601f83011261157f5761157e6114e4565b5b813561158f84826020860161152a565b91505092915050565b5f8115159050919050565b6115ac81611598565b81146115b6575f80fd5b50565b5f813590506115c7816115a3565b92915050565b5f805f805f61018086880312156115e7576115e66111e5565b5b5f6115f488828901611380565b95505060a06116058882890161146f565b94505061012086013567ffffffffffffffff811115611627576116266111e9565b5b6116338882890161156b565b935050610140611645888289016115b9565b925050610160611657888289016115b9565b9150509295509295909350565b5f819050919050565b5f61168761168261167d84611409565b611664565b611409565b9050919050565b6116978161166d565b82525050565b5f6020820190506116b05f83018461168e565b92915050565b5f6116d06116cb6116c68461127d565b611664565b61127d565b9050919050565b5f6116e1826116b6565b9050919050565b5f6116f2826116d7565b9050919050565b611702816116e8565b82525050565b5f60208201905061171b5f8301846116f9565b92915050565b5f805f6101408486031215611739576117386111e5565b5b5f61174686828701611380565b93505060a06117578682870161146f565b92505061012084013567ffffffffffffffff811115611779576117786111e9565b5b6117858682870161156b565b9150509250925092565b5f80fd5b5f80fd5b5f8083601f8401126117ac576117ab6114e4565b5b8235905067ffffffffffffffff8111156117c9576117c861178f565b5b6020830191508360018202830111156117e5576117e4611793565b5b9250929050565b5f8060208385031215611802576118016111e5565b5b5f83013567ffffffffffffffff81111561181f5761181e6111e9565b5b61182b85828601611797565b92509250509250929050565b5f81519050919050565b5f82825260208201905092915050565b8281835e5f83830152505050565b5f61186982611837565b6118738185611841565b9350611883818560208601611851565b61188c816111f1565b840191505092915050565b5f6020820190508181035f8301526118af818461185f565b905092915050565b6118c08161129c565b82525050565b5f6118d0826116d7565b9050919050565b6118e0816118c6565b82525050565b6118ef816112d7565b82525050565b6118fe8161130f565b82525050565b5f61190e826116d7565b9050919050565b61191e81611904565b82525050565b60a082015f8201516119385f8501826118d7565b50602082015161194b60208501826118d7565b50604082015161195e60408501826118e6565b50606082015161197160608501826118f5565b5060808201516119846080850182611915565b50505050565b61199381611409565b82525050565b6119a28161143c565b82525050565b608082015f8201516119bc5f8501826118f5565b5060208201516119cf60208501826118f5565b5060408201516119e2604085018261198a565b5060608201516119f56060850182611999565b50505050565b5f82825260208201905092915050565b5f611a1582611837565b611a1f81856119fb565b9350611a2f818560208601611851565b611a38816111f1565b840191505092915050565b611a4c81611598565b82525050565b5f6101a083015f830151611a685f8601826118b7565b506020830151611a7b6020860182611924565b506040830151611a8e60c08601826119a8565b506060830151848203610140860152611aa78282611a0b565b9150506080830151611abd610160860182611a43565b5060a0830151611ad1610180860182611a43565b508091505092915050565b5f6020820190508181035f830152611af48184611a52565b905092915050565b5f611b0e611b09846114ec565b61125f565b905082815260208101848484011115611b2a57611b296114e8565b5b611b35848285611851565b509392505050565b5f82601f830112611b5157611b506114e4565b5b8151611b61848260208601611afc565b91505092915050565b5f60208284031215611b7f57611b7e6111e5565b5b5f82015167ffffffffffffffff811115611b9c57611b9b6111e9565b5b611ba884828501611b3d565b91505092915050565b611bba81611409565b8114611bc4575f80fd5b50565b5f81519050611bd581611bb1565b92915050565b5f60208284031215611bf057611bef6111e5565b5b5f611bfd84828501611bc7565b91505092915050565b611c0f8161129c565b8114611c19575f80fd5b50565b5f81359050611c2a81611c06565b92915050565b5f6101a08284031215611c4657611c456111ed565b5b611c5060c061125f565b90505f611c5f84828501611c1c565b5f830152506020611c7284828501611380565b60208301525060c0611c868482850161146f565b60408301525061014082013567ffffffffffffffff811115611cab57611caa611279565b5b611cb78482850161156b565b606083015250610160611ccc848285016115b9565b608083015250610180611ce1848285016115b9565b60a08301525092915050565b5f60208284031215611d0257611d016111e5565b5b5f82013567ffffffffffffffff811115611d1f57611d1e6111e9565b5b611d2b84828501611c30565b91505092915050565b60a082015f820151611d485f8501826118d7565b506020820151611d5b60208501826118d7565b506040820151611d6e60408501826118e6565b506060820151611d8160608501826118f5565b506080820151611d946080850182611915565b50505050565b608082015f820151611dae5f8501826118f5565b506020820151611dc160208501826118f5565b506040820151611dd4604085018261198a565b506060820151611de76060850182611999565b50505050565b5f61014082019050611e015f830186611d34565b611e0e60a0830185611d9a565b818103610120830152611e21818461185f565b9050949350505050565b5f8060408385031215611e4157611e406111e5565b5b5f611e4e85828601611bc7565b9250506020611e5f85828601611bc7565b9150509250929050565b7f4e487b71000000000000000000000000000000000000000000000000000000005f52601160045260245ffd5b5f611ea082611409565b9150611eab83611409565b92508282019050828112155f8312168382125f841215161715611ed157611ed0611e69565b5b92915050565b5f82825260208201905092915050565b7f6c6971756964697479206368616e676520696e636f72726563740000000000005f82015250565b5f611f1b601a83611ed7565b9150611f2682611ee7565b602082019050919050565b5f6020820190508181035f830152611f4881611f0f565b9050919050565b7f4e487b71000000000000000000000000000000000000000000000000000000005f52600160045260245ffd5b5f611f8682611409565b91507f80000000000000000000000000000000000000000000000000000000000000008203611fb857611fb7611e69565b5b815f039050919050565b611fcb8161129c565b82525050565b5f819050919050565b611fe381611fd1565b82525050565b5f606082019050611ffc5f830186611fc2565b6120096020830185611fda565b6120166040830184611fda565b949350505050565b61202781611fd1565b8114612031575f80fd5b50565b5f815190506120428161201e565b92915050565b5f6020828403121561205d5761205c6111e5565b5b5f61206a84828501612034565b91505092915050565b61207c816118c6565b82525050565b5f6020820190506120955f830184612073565b92915050565b5f6060820190506120ae5f830186611fc2565b6120bb6020830185611fc2565b6120c86040830184611fda565b949350505050565b5f815190506120de816115a3565b92915050565b5f602082840312156120f9576120f86111e5565b5b5f612106848285016120d0565b91505092915050565b5f6040820190506121225f830185611fc2565b61212f6020830184611fda565b9392505050565b5f6060820190506121495f830186612073565b6121566020830185611fc2565b6121636040830184611fda565b949350505050565b6121748161143c565b82525050565b5f819050919050565b5f61219d6121986121938461217a565b611664565b611fd1565b9050919050565b6121ad81612183565b82525050565b5f6040820190506121c65f83018561216b565b6121d360208301846121a4565b9392505050565b5f67ffffffffffffffff8211156121f4576121f3611201565b5b602082029050602081019050919050565b5f8151905061221381611445565b92915050565b5f61222b612226846121da565b61125f565b9050808382526020820190506020840283018581111561224e5761224d611793565b5b835b8181101561227757806122638882612205565b845260208401935050602081019050612250565b5050509392505050565b5f82601f830112612295576122946114e4565b5b81516122a5848260208601612219565b91505092915050565b5f602082840312156122c3576122c26111e5565b5b5f82015167ffffffffffffffff8111156122e0576122df6111e9565b5b6122ec84828501612281565b91505092915050565b5f6020820190506123085f830184611fc2565b92915050565b5f6020820190506123215f83018461216b565b92915050565b5f6020828403121561233c5761233b6111e5565b5b5f61234984828501612205565b91505092915050565b5f61235c82611fd1565b915061236783611fd1565b925082820190508082111561237f5761237e611e69565b5b92915050565b5f819050919050565b61239f61239a8261143c565b612385565b82525050565b5f6123b0828561238e565b6020820191506123c0828461238e565b602082019150819050939250505056fea26469706673582212204bfac01783970fd57f37cf5e12d86e333452ec3ea152de23858432f325d5839664736f6c634300081a0033","linkReferences":{}},"methodIdentifiers":{"manager()":"481c6a75","modifyLiquidity((address,address,uint24,int24,address),(int24,int24,int256,bytes32),bytes)":"5a6bcfda","modifyLiquidity((address,address,uint24,int24,address),(int24,int24,int256,bytes32),bytes,bool,bool)":"0a5b11e4","unlockCallback(bytes)":"91dd7346"},"id":72}