{"abi":[{"type":"function","name":"afterAddLiquidity","inputs":[{"name":"","type":"address","internalType":"address"},{"name":"","type":"tuple","internalType":"struct PoolKey","components":[{"name":"currency0","type":"address","internalType":"Currency"},{"name":"currency1","type":"address","internalType":"Currency"},{"name":"fee","type":"uint24","internalType":"uint24"},{"name":"tickSpacing","type":"int24","internalType":"int24"},{"name":"hooks","type":"address","internalType":"contract IHooks"}]},{"name":"","type":"tuple","internalType":"struct IPoolManager.ModifyLiquidityParams","components":[{"name":"tickLower","type":"int24","internalType":"int24"},{"name":"tickUpper","type":"int24","internalType":"int24"},{"name":"liquidityDelta","type":"int256","internalType":"int256"},{"name":"salt","type":"bytes32","internalType":"bytes32"}]},{"name":"","type":"int256","internalType":"BalanceDelta"},{"name":"","type":"int256","internalType":"BalanceDelta"},{"name":"","type":"bytes","internalType":"bytes"}],"outputs":[{"name":"","type":"bytes4","internalType":"bytes4"},{"name":"","type":"int256","internalType":"BalanceDelta"}],"stateMutability":"nonpayable"},{"type":"function","name":"afterDonate","inputs":[{"name":"","type":"address","internalType":"address"},{"name":"","type":"tuple","internalType":"struct PoolKey","components":[{"name":"currency0","type":"address","internalType":"Currency"},{"name":"currency1","type":"address","internalType":"Currency"},{"name":"fee","type":"uint24","internalType":"uint24"},{"name":"tickSpacing","type":"int24","internalType":"int24"},{"name":"hooks","type":"address","internalType":"contract IHooks"}]},{"name":"","type":"uint256","internalType":"uint256"},{"name":"","type":"uint256","internalType":"uint256"},{"name":"","type":"bytes","internalType":"bytes"}],"outputs":[{"name":"","type":"bytes4","internalType":"bytes4"}],"stateMutability":"nonpayable"},{"type":"function","name":"afterInitialize","inputs":[{"name":"","type":"address","internalType":"address"},{"name":"","type":"tuple","internalType":"struct PoolKey","components":[{"name":"currency0","type":"address","internalType":"Currency"},{"name":"currency1","type":"address","internalType":"Currency"},{"name":"fee","type":"uint24","internalType":"uint24"},{"name":"tickSpacing","type":"int24","internalType":"int24"},{"name":"hooks","type":"address","internalType":"contract IHooks"}]},{"name":"","type":"uint160","internalType":"uint160"},{"name":"","type":"int24","internalType":"int24"}],"outputs":[{"name":"","type":"bytes4","internalType":"bytes4"}],"stateMutability":"nonpayable"},{"type":"function","name":"afterRemoveLiquidity","inputs":[{"name":"","type":"address","internalType":"address"},{"name":"","type":"tuple","internalType":"struct PoolKey","components":[{"name":"currency0","type":"address","internalType":"Currency"},{"name":"currency1","type":"address","internalType":"Currency"},{"name":"fee","type":"uint24","internalType":"uint24"},{"name":"tickSpacing","type":"int24","internalType":"int24"},{"name":"hooks","type":"address","internalType":"contract IHooks"}]},{"name":"","type":"tuple","internalType":"struct IPoolManager.ModifyLiquidityParams","components":[{"name":"tickLower","type":"int24","internalType":"int24"},{"name":"tickUpper","type":"int24","internalType":"int24"},{"name":"liquidityDelta","type":"int256","internalType":"int256"},{"name":"salt","type":"bytes32","internalType":"bytes32"}]},{"name":"","type":"int256","internalType":"BalanceDelta"},{"name":"","type":"int256","internalType":"BalanceDelta"},{"name":"","type":"bytes","internalType":"bytes"}],"outputs":[{"name":"","type":"bytes4","internalType":"bytes4"},{"name":"","type":"int256","internalType":"BalanceDelta"}],"stateMutability":"nonpayable"},{"type":"function","name":"afterSwap","inputs":[{"name":"","type":"address","internalType":"address"},{"name":"","type":"tuple","internalType":"struct PoolKey","components":[{"name":"currency0","type":"address","internalType":"Currency"},{"name":"currency1","type":"address","internalType":"Currency"},{"name":"fee","type":"uint24","internalType":"uint24"},{"name":"tickSpacing","type":"int24","internalType":"int24"},{"name":"hooks","type":"address","internalType":"contract IHooks"}]},{"name":"","type":"tuple","internalType":"struct IPoolManager.SwapParams","components":[{"name":"zeroForOne","type":"bool","internalType":"bool"},{"name":"amountSpecified","type":"int256","internalType":"int256"},{"name":"sqrtPriceLimitX96","type":"uint160","internalType":"uint160"}]},{"name":"","type":"int256","internalType":"BalanceDelta"},{"name":"","type":"bytes","internalType":"bytes"}],"outputs":[{"name":"","type":"bytes4","internalType":"bytes4"},{"name":"","type":"int128","internalType":"int128"}],"stateMutability":"nonpayable"},{"type":"function","name":"beforeAddLiquidity","inputs":[{"name":"","type":"address","internalType":"address"},{"name":"","type":"tuple","internalType":"struct PoolKey","components":[{"name":"currency0","type":"address","internalType":"Currency"},{"name":"currency1","type":"address","internalType":"Currency"},{"name":"fee","type":"uint24","internalType":"uint24"},{"name":"tickSpacing","type":"int24","internalType":"int24"},{"name":"hooks","type":"address","internalType":"contract IHooks"}]},{"name":"","type":"tuple","internalType":"struct IPoolManager.ModifyLiquidityParams","components":[{"name":"tickLower","type":"int24","internalType":"int24"},{"name":"tickUpper","type":"int24","internalType":"int24"},{"name":"liquidityDelta","type":"int256","internalType":"int256"},{"name":"salt","type":"bytes32","internalType":"bytes32"}]},{"name":"","type":"bytes","internalType":"bytes"}],"outputs":[{"name":"","type":"bytes4","internalType":"bytes4"}],"stateMutability":"nonpayable"},{"type":"function","name":"beforeDonate","inputs":[{"name":"","type":"address","internalType":"address"},{"name":"","type":"tuple","internalType":"struct PoolKey","components":[{"name":"currency0","type":"address","internalType":"Currency"},{"name":"currency1","type":"address","internalType":"Currency"},{"name":"fee","type":"uint24","internalType":"uint24"},{"name":"tickSpacing","type":"int24","internalType":"int24"},{"name":"hooks","type":"address","internalType":"contract IHooks"}]},{"name":"","type":"uint256","internalType":"uint256"},{"name":"","type":"uint256","internalType":"uint256"},{"name":"","type":"bytes","internalType":"bytes"}],"outputs":[{"name":"","type":"bytes4","internalType":"bytes4"}],"stateMutability":"nonpayable"},{"type":"function","name":"beforeInitialize","inputs":[{"name":"","type":"address","internalType":"address"},{"name":"","type":"tuple","internalType":"struct PoolKey","components":[{"name":"currency0","type":"address","internalType":"Currency"},{"name":"currency1","type":"address","internalType":"Currency"},{"name":"fee","type":"uint24","internalType":"uint24"},{"name":"tickSpacing","type":"int24","internalType":"int24"},{"name":"hooks","type":"address","internalType":"contract IHooks"}]},{"name":"","type":"uint160","internalType":"uint160"}],"outputs":[{"name":"","type":"bytes4","internalType":"bytes4"}],"stateMutability":"nonpayable"},{"type":"function","name":"beforeRemoveLiquidity","inputs":[{"name":"","type":"address","internalType":"address"},{"name":"","type":"tuple","internalType":"struct PoolKey","components":[{"name":"currency0","type":"address","internalType":"Currency"},{"name":"currency1","type":"address","internalType":"Currency"},{"name":"fee","type":"uint24","internalType":"uint24"},{"name":"tickSpacing","type":"int24","internalType":"int24"},{"name":"hooks","type":"address","internalType":"contract IHooks"}]},{"name":"","type":"tuple","internalType":"struct IPoolManager.ModifyLiquidityParams","components":[{"name":"tickLower","type":"int24","internalType":"int24"},{"name":"tickUpper","type":"int24","internalType":"int24"},{"name":"liquidityDelta","type":"int256","internalType":"int256"},{"name":"salt","type":"bytes32","internalType":"bytes32"}]},{"name":"","type":"bytes","internalType":"bytes"}],"outputs":[{"name":"","type":"bytes4","internalType":"bytes4"}],"stateMutability":"nonpayable"},{"type":"function","name":"beforeSwap","inputs":[{"name":"","type":"address","internalType":"address"},{"name":"","type":"tuple","internalType":"struct PoolKey","components":[{"name":"currency0","type":"address","internalType":"Currency"},{"name":"currency1","type":"address","internalType":"Currency"},{"name":"fee","type":"uint24","internalType":"uint24"},{"name":"tickSpacing","type":"int24","internalType":"int24"},{"name":"hooks","type":"address","internalType":"contract IHooks"}]},{"name":"","type":"tuple","internalType":"struct IPoolManager.SwapParams","components":[{"name":"zeroForOne","type":"bool","internalType":"bool"},{"name":"amountSpecified","type":"int256","internalType":"int256"},{"name":"sqrtPriceLimitX96","type":"uint160","internalType":"uint160"}]},{"name":"","type":"bytes","internalType":"bytes"}],"outputs":[{"name":"","type":"bytes4","internalType":"bytes4"},{"name":"","type":"int256","internalType":"BeforeSwapDelta"},{"name":"","type":"uint24","internalType":"uint24"}],"stateMutability":"nonpayable"},{"type":"error","name":"HookNotImplemented","inputs":[]}],"bytecode":{"object":"0x6080604052348015600e575f80fd5b50610b9b8061001c5f395ff3fe608060405234801561000f575f80fd5b506004361061009c575f3560e01c80639f063efc116100645780639f063efc14610193578063b47b2fb1146101c4578063b6a8b0fa146101f5578063dc98354e14610225578063e1b4af69146102555761009c565b806321d0ee70146100a0578063259982e5146100d0578063575e24b4146101005780636c2bbe7e146101325780636fe7e6eb14610163575b5f80fd5b6100ba60048036038101906100b5919061058b565b610285565b6040516100c7919061064b565b60405180910390f35b6100ea60048036038101906100e5919061058b565b6102b8565b6040516100f7919061064b565b60405180910390f35b61011a60048036038101906101159190610682565b6102eb565b60405161012993929190610767565b60405180910390f35b61014c600480360381019061014791906107c6565b610320565b60405161015a929190610883565b60405180910390f35b61017d6004803603810190610178919061090a565b610354565b60405161018a919061064b565b60405180910390f35b6101ad60048036038101906101a891906107c6565b610387565b6040516101bb929190610883565b60405180910390f35b6101de60048036038101906101d9919061096f565b6103bb565b6040516101ec929190610a23565b60405180910390f35b61020f600480360381019061020a9190610a7d565b6103ef565b60405161021c919061064b565b60405180910390f35b61023f600480360381019061023a9190610b15565b610422565b60405161024c919061064b565b60405180910390f35b61026f600480360381019061026a9190610a7d565b610455565b60405161027c919061064b565b60405180910390f35b5f6040517f0a85dc2900000000000000000000000000000000000000000000000000000000815260040160405180910390fd5b5f6040517f0a85dc2900000000000000000000000000000000000000000000000000000000815260040160405180910390fd5b5f805f6040517f0a85dc2900000000000000000000000000000000000000000000000000000000815260040160405180910390fd5b5f806040517f0a85dc2900000000000000000000000000000000000000000000000000000000815260040160405180910390fd5b5f6040517f0a85dc2900000000000000000000000000000000000000000000000000000000815260040160405180910390fd5b5f806040517f0a85dc2900000000000000000000000000000000000000000000000000000000815260040160405180910390fd5b5f806040517f0a85dc2900000000000000000000000000000000000000000000000000000000815260040160405180910390fd5b5f6040517f0a85dc2900000000000000000000000000000000000000000000000000000000815260040160405180910390fd5b5f6040517f0a85dc2900000000000000000000000000000000000000000000000000000000815260040160405180910390fd5b5f6040517f0a85dc2900000000000000000000000000000000000000000000000000000000815260040160405180910390fd5b5f80fd5b5f80fd5b5f73ffffffffffffffffffffffffffffffffffffffff82169050919050565b5f6104b982610490565b9050919050565b6104c9816104af565b81146104d3575f80fd5b50565b5f813590506104e4816104c0565b92915050565b5f80fd5b5f60a08284031215610503576105026104ea565b5b81905092915050565b5f60808284031215610521576105206104ea565b5b81905092915050565b5f80fd5b5f80fd5b5f80fd5b5f8083601f84011261054b5761054a61052a565b5b8235905067ffffffffffffffff8111156105685761056761052e565b5b60208301915083600182028301111561058457610583610532565b5b9250929050565b5f805f805f61016086880312156105a5576105a4610488565b5b5f6105b2888289016104d6565b95505060206105c3888289016104ee565b94505060c06105d48882890161050c565b93505061014086013567ffffffffffffffff8111156105f6576105f561048c565b5b61060288828901610536565b92509250509295509295909350565b5f7fffffffff0000000000000000000000000000000000000000000000000000000082169050919050565b61064581610611565b82525050565b5f60208201905061065e5f83018461063c565b92915050565b5f60608284031215610679576106786104ea565b5b81905092915050565b5f805f805f610140868803121561069c5761069b610488565b5b5f6106a9888289016104d6565b95505060206106ba888289016104ee565b94505060c06106cb88828901610664565b93505061012086013567ffffffffffffffff8111156106ed576106ec61048c565b5b6106f988828901610536565b92509250509295509295909350565b5f819050919050565b5f819050919050565b5f61073461072f61072a84610708565b610711565b610708565b9050919050565b6107448161071a565b82525050565b5f62ffffff82169050919050565b6107618161074a565b82525050565b5f60608201905061077a5f83018661063c565b610787602083018561073b565b6107946040830184610758565b949350505050565b6107a581610708565b81146107af575f80fd5b50565b5f813590506107c08161079c565b92915050565b5f805f805f805f6101a0888a0312156107e2576107e1610488565b5b5f6107ef8a828b016104d6565b97505060206108008a828b016104ee565b96505060c06108118a828b0161050c565b9550506101406108238a828b016107b2565b9450506101606108358a828b016107b2565b93505061018088013567ffffffffffffffff8111156108575761085661048c565b5b6108638a828b01610536565b925092505092959891949750929550565b61087d8161071a565b82525050565b5f6040820190506108965f83018561063c565b6108a36020830184610874565b9392505050565b6108b381610490565b81146108bd575f80fd5b50565b5f813590506108ce816108aa565b92915050565b5f8160020b9050919050565b6108e9816108d4565b81146108f3575f80fd5b50565b5f81359050610904816108e0565b92915050565b5f805f80610100858703121561092357610922610488565b5b5f610930878288016104d6565b9450506020610941878288016104ee565b93505060c0610952878288016108c0565b92505060e0610963878288016108f6565b91505092959194509250565b5f805f805f80610160878903121561098a57610989610488565b5b5f61099789828a016104d6565b96505060206109a889828a016104ee565b95505060c06109b989828a01610664565b9450506101206109cb89828a016107b2565b93505061014087013567ffffffffffffffff8111156109ed576109ec61048c565b5b6109f989828a01610536565b92509250509295509295509295565b5f81600f0b9050919050565b610a1d81610a08565b82525050565b5f604082019050610a365f83018561063c565b610a436020830184610a14565b9392505050565b5f819050919050565b610a5c81610a4a565b8114610a66575f80fd5b50565b5f81359050610a7781610a53565b92915050565b5f805f805f806101208789031215610a9857610a97610488565b5b5f610aa589828a016104d6565b9650506020610ab689828a016104ee565b95505060c0610ac789828a01610a69565b94505060e0610ad889828a01610a69565b93505061010087013567ffffffffffffffff811115610afa57610af961048c565b5b610b0689828a01610536565b92509250509295509295509295565b5f805f60e08486031215610b2c57610b2b610488565b5b5f610b39868287016104d6565b9350506020610b4a868287016104ee565b92505060c0610b5b868287016108c0565b915050925092509256fea2646970667358221220bfb7f44e2cce7349f8e94bb35505e273d8ead6d2bce1f90db8018701812a3ec064736f6c634300081a0033","linkReferences":{}},"methodIdentifiers":{"afterAddLiquidity(address,(address,address,uint24,int24,address),(int24,int24,int256,bytes32),int256,int256,bytes)":"9f063efc","afterDonate(address,(address,address,uint24,int24,address),uint256,uint256,bytes)":"e1b4af69","afterInitialize(address,(address,address,uint24,int24,address),uint160,int24)":"6fe7e6eb","afterRemoveLiquidity(address,(address,address,uint24,int24,address),(int24,int24,int256,bytes32),int256,int256,bytes)":"6c2bbe7e","afterSwap(address,(address,address,uint24,int24,address),(bool,int256,uint160),int256,bytes)":"b47b2fb1","beforeAddLiquidity(address,(address,address,uint24,int24,address),(int24,int24,int256,bytes32),bytes)":"259982e5","beforeDonate(address,(address,address,uint24,int24,address),uint256,uint256,bytes)":"b6a8b0fa","beforeInitialize(address,(address,address,uint24,int24,address),uint160)":"dc98354e","beforeRemoveLiquidity(address,(address,address,uint24,int24,address),(int24,int24,int256,bytes32),bytes)":"21d0ee70","beforeSwap(address,(address,address,uint24,int24,address),(bool,int256,uint160),bytes)":"575e24b4"},"id":69}