{"abi":[{"type":"constructor","inputs":[{"name":"_manager","type":"address","internalType":"contract IPoolManager"}],"stateMutability":"nonpayable"},{"type":"function","name":"afterAddLiquidity","inputs":[{"name":"","type":"address","internalType":"address"},{"name":"","type":"tuple","internalType":"struct PoolKey","components":[{"name":"currency0","type":"address","internalType":"Currency"},{"name":"currency1","type":"address","internalType":"Currency"},{"name":"fee","type":"uint24","internalType":"uint24"},{"name":"tickSpacing","type":"int24","internalType":"int24"},{"name":"hooks","type":"address","internalType":"contract IHooks"}]},{"name":"","type":"tuple","internalType":"struct IPoolManager.ModifyLiquidityParams","components":[{"name":"tickLower","type":"int24","internalType":"int24"},{"name":"tickUpper","type":"int24","internalType":"int24"},{"name":"liquidityDelta","type":"int256","internalType":"int256"},{"name":"salt","type":"bytes32","internalType":"bytes32"}]},{"name":"","type":"int256","internalType":"BalanceDelta"},{"name":"","type":"int256","internalType":"BalanceDelta"},{"name":"","type":"bytes","internalType":"bytes"}],"outputs":[{"name":"","type":"bytes4","internalType":"bytes4"},{"name":"","type":"int256","internalType":"BalanceDelta"}],"stateMutability":"nonpayable"},{"type":"function","name":"afterDonate","inputs":[{"name":"","type":"address","internalType":"address"},{"name":"","type":"tuple","internalType":"struct PoolKey","components":[{"name":"currency0","type":"address","internalType":"Currency"},{"name":"currency1","type":"address","internalType":"Currency"},{"name":"fee","type":"uint24","internalType":"uint24"},{"name":"tickSpacing","type":"int24","internalType":"int24"},{"name":"hooks","type":"address","internalType":"contract IHooks"}]},{"name":"","type":"uint256","internalType":"uint256"},{"name":"","type":"uint256","internalType":"uint256"},{"name":"","type":"bytes","internalType":"bytes"}],"outputs":[{"name":"","type":"bytes4","internalType":"bytes4"}],"stateMutability":"nonpayable"},{"type":"function","name":"afterInitialize","inputs":[{"name":"","type":"address","internalType":"address"},{"name":"","type":"tuple","internalType":"struct PoolKey","components":[{"name":"currency0","type":"address","internalType":"Currency"},{"name":"currency1","type":"address","internalType":"Currency"},{"name":"fee","type":"uint24","internalType":"uint24"},{"name":"tickSpacing","type":"int24","internalType":"int24"},{"name":"hooks","type":"address","internalType":"contract IHooks"}]},{"name":"","type":"uint160","internalType":"uint160"},{"name":"","type":"int24","internalType":"int24"}],"outputs":[{"name":"","type":"bytes4","internalType":"bytes4"}],"stateMutability":"nonpayable"},{"type":"function","name":"afterRemoveLiquidity","inputs":[{"name":"","type":"address","internalType":"address"},{"name":"","type":"tuple","internalType":"struct PoolKey","components":[{"name":"currency0","type":"address","internalType":"Currency"},{"name":"currency1","type":"address","internalType":"Currency"},{"name":"fee","type":"uint24","internalType":"uint24"},{"name":"tickSpacing","type":"int24","internalType":"int24"},{"name":"hooks","type":"address","internalType":"contract IHooks"}]},{"name":"","type":"tuple","internalType":"struct IPoolManager.ModifyLiquidityParams","components":[{"name":"tickLower","type":"int24","internalType":"int24"},{"name":"tickUpper","type":"int24","internalType":"int24"},{"name":"liquidityDelta","type":"int256","internalType":"int256"},{"name":"salt","type":"bytes32","internalType":"bytes32"}]},{"name":"","type":"int256","internalType":"BalanceDelta"},{"name":"","type":"int256","internalType":"BalanceDelta"},{"name":"","type":"bytes","internalType":"bytes"}],"outputs":[{"name":"","type":"bytes4","internalType":"bytes4"},{"name":"","type":"int256","internalType":"BalanceDelta"}],"stateMutability":"nonpayable"},{"type":"function","name":"afterSwap","inputs":[{"name":"","type":"address","internalType":"address"},{"name":"","type":"tuple","internalType":"struct PoolKey","components":[{"name":"currency0","type":"address","internalType":"Currency"},{"name":"currency1","type":"address","internalType":"Currency"},{"name":"fee","type":"uint24","internalType":"uint24"},{"name":"tickSpacing","type":"int24","internalType":"int24"},{"name":"hooks","type":"address","internalType":"contract IHooks"}]},{"name":"","type":"tuple","internalType":"struct IPoolManager.SwapParams","components":[{"name":"zeroForOne","type":"bool","internalType":"bool"},{"name":"amountSpecified","type":"int256","internalType":"int256"},{"name":"sqrtPriceLimitX96","type":"uint160","internalType":"uint160"}]},{"name":"","type":"int256","internalType":"BalanceDelta"},{"name":"","type":"bytes","internalType":"bytes"}],"outputs":[{"name":"","type":"bytes4","internalType":"bytes4"},{"name":"","type":"int128","internalType":"int128"}],"stateMutability":"nonpayable"},{"type":"function","name":"beforeAddLiquidity","inputs":[{"name":"","type":"address","internalType":"address"},{"name":"","type":"tuple","internalType":"struct PoolKey","components":[{"name":"currency0","type":"address","internalType":"Currency"},{"name":"currency1","type":"address","internalType":"Currency"},{"name":"fee","type":"uint24","internalType":"uint24"},{"name":"tickSpacing","type":"int24","internalType":"int24"},{"name":"hooks","type":"address","internalType":"contract IHooks"}]},{"name":"","type":"tuple","internalType":"struct IPoolManager.ModifyLiquidityParams","components":[{"name":"tickLower","type":"int24","internalType":"int24"},{"name":"tickUpper","type":"int24","internalType":"int24"},{"name":"liquidityDelta","type":"int256","internalType":"int256"},{"name":"salt","type":"bytes32","internalType":"bytes32"}]},{"name":"","type":"bytes","internalType":"bytes"}],"outputs":[{"name":"","type":"bytes4","internalType":"bytes4"}],"stateMutability":"nonpayable"},{"type":"function","name":"beforeDonate","inputs":[{"name":"","type":"address","internalType":"address"},{"name":"","type":"tuple","internalType":"struct PoolKey","components":[{"name":"currency0","type":"address","internalType":"Currency"},{"name":"currency1","type":"address","internalType":"Currency"},{"name":"fee","type":"uint24","internalType":"uint24"},{"name":"tickSpacing","type":"int24","internalType":"int24"},{"name":"hooks","type":"address","internalType":"contract IHooks"}]},{"name":"","type":"uint256","internalType":"uint256"},{"name":"","type":"uint256","internalType":"uint256"},{"name":"","type":"bytes","internalType":"bytes"}],"outputs":[{"name":"","type":"bytes4","internalType":"bytes4"}],"stateMutability":"nonpayable"},{"type":"function","name":"beforeInitialize","inputs":[{"name":"","type":"address","internalType":"address"},{"name":"","type":"tuple","internalType":"struct PoolKey","components":[{"name":"currency0","type":"address","internalType":"Currency"},{"name":"currency1","type":"address","internalType":"Currency"},{"name":"fee","type":"uint24","internalType":"uint24"},{"name":"tickSpacing","type":"int24","internalType":"int24"},{"name":"hooks","type":"address","internalType":"contract IHooks"}]},{"name":"","type":"uint160","internalType":"uint160"}],"outputs":[{"name":"","type":"bytes4","internalType":"bytes4"}],"stateMutability":"nonpayable"},{"type":"function","name":"beforeRemoveLiquidity","inputs":[{"name":"","type":"address","internalType":"address"},{"name":"","type":"tuple","internalType":"struct PoolKey","components":[{"name":"currency0","type":"address","internalType":"Currency"},{"name":"currency1","type":"address","internalType":"Currency"},{"name":"fee","type":"uint24","internalType":"uint24"},{"name":"tickSpacing","type":"int24","internalType":"int24"},{"name":"hooks","type":"address","internalType":"contract IHooks"}]},{"name":"","type":"tuple","internalType":"struct IPoolManager.ModifyLiquidityParams","components":[{"name":"tickLower","type":"int24","internalType":"int24"},{"name":"tickUpper","type":"int24","internalType":"int24"},{"name":"liquidityDelta","type":"int256","internalType":"int256"},{"name":"salt","type":"bytes32","internalType":"bytes32"}]},{"name":"","type":"bytes","internalType":"bytes"}],"outputs":[{"name":"","type":"bytes4","internalType":"bytes4"}],"stateMutability":"nonpayable"},{"type":"function","name":"beforeSwap","inputs":[{"name":"","type":"address","internalType":"address"},{"name":"key","type":"tuple","internalType":"struct PoolKey","components":[{"name":"currency0","type":"address","internalType":"Currency"},{"name":"currency1","type":"address","internalType":"Currency"},{"name":"fee","type":"uint24","internalType":"uint24"},{"name":"tickSpacing","type":"int24","internalType":"int24"},{"name":"hooks","type":"address","internalType":"contract IHooks"}]},{"name":"params","type":"tuple","internalType":"struct IPoolManager.SwapParams","components":[{"name":"zeroForOne","type":"bool","internalType":"bool"},{"name":"amountSpecified","type":"int256","internalType":"int256"},{"name":"sqrtPriceLimitX96","type":"uint160","internalType":"uint160"}]},{"name":"","type":"bytes","internalType":"bytes"}],"outputs":[{"name":"","type":"bytes4","internalType":"bytes4"},{"name":"","type":"int256","internalType":"BeforeSwapDelta"},{"name":"","type":"uint24","internalType":"uint24"}],"stateMutability":"nonpayable"},{"type":"error","name":"HookNotImplemented","inputs":[]}],"bytecode":{"object":"0x60a060405234801561000f575f80fd5b50604051611552380380611552833981810160405281019061003191906100da565b8073ffffffffffffffffffffffffffffffffffffffff1660808173ffffffffffffffffffffffffffffffffffffffff168152505050610105565b5f80fd5b5f73ffffffffffffffffffffffffffffffffffffffff82169050919050565b5f6100988261006f565b9050919050565b5f6100a98261008e565b9050919050565b6100b98161009f565b81146100c3575f80fd5b50565b5f815190506100d4816100b0565b92915050565b5f602082840312156100ef576100ee61006b565b5b5f6100fc848285016100c6565b91505092915050565b60805161142761012b5f395f81816102f00152818161035a01526103e701526114275ff3fe608060405234801561000f575f80fd5b506004361061009c575f3560e01c80639f063efc116100645780639f063efc14610193578063b47b2fb1146101c4578063b6a8b0fa146101f5578063dc98354e14610225578063e1b4af69146102555761009c565b806321d0ee70146100a0578063259982e5146100d0578063575e24b4146101005780636c2bbe7e146101325780636fe7e6eb14610163575b5f80fd5b6100ba60048036038101906100b59190610b22565b610285565b6040516100c79190610be2565b60405180910390f35b6100ea60048036038101906100e59190610b22565b6102b8565b6040516100f79190610be2565b60405180910390f35b61011a60048036038101906101159190610c19565b6102eb565b60405161012993929190610cfe565b60405180910390f35b61014c60048036038101906101479190610d5d565b61046e565b60405161015a929190610e1a565b60405180910390f35b61017d60048036038101906101789190610ea1565b6104a2565b60405161018a9190610be2565b60405180910390f35b6101ad60048036038101906101a89190610d5d565b6104d5565b6040516101bb929190610e1a565b60405180910390f35b6101de60048036038101906101d99190610f06565b610509565b6040516101ec929190610fba565b60405180910390f35b61020f600480360381019061020a9190611014565b61053d565b60405161021c9190610be2565b60405180910390f35b61023f600480360381019061023a91906110ac565b610570565b60405161024c9190610be2565b60405180910390f35b61026f600480360381019061026a9190611014565b6105a3565b60405161027c9190610be2565b60405180910390f35b5f6040517f0a85dc2900000000000000000000000000000000000000000000000000000000815260040160405180910390fd5b5f6040517f0a85dc2900000000000000000000000000000000000000000000000000000000815260040160405180910390fd5b5f805f7f000000000000000000000000000000000000000000000000000000000000000073ffffffffffffffffffffffffffffffffffffffff163373ffffffffffffffffffffffffffffffffffffffff1614610345575f80fd5b5f805f6103528a8a6105d6565b9250925092507f000000000000000000000000000000000000000000000000000000000000000073ffffffffffffffffffffffffffffffffffffffff16630b0d9c098430846040518463ffffffff1660e01b81526004016103b59392919061116c565b5f604051808303815f87803b1580156103cc575f80fd5b505af11580156103de573d5f803e3d5ffd5b505050506104317f000000000000000000000000000000000000000000000000000000000000000030835f8673ffffffffffffffffffffffffffffffffffffffff1661067490949392919063ffffffff16565b5f61044d8a60200135610443906111ce565b8b602001356109b2565b905063575e24b460e01b815f96509650965050505050955095509592505050565b5f806040517f0a85dc2900000000000000000000000000000000000000000000000000000000815260040160405180910390fd5b5f6040517f0a85dc2900000000000000000000000000000000000000000000000000000000815260040160405180910390fd5b5f806040517f0a85dc2900000000000000000000000000000000000000000000000000000000815260040160405180910390fd5b5f806040517f0a85dc2900000000000000000000000000000000000000000000000000000000815260040160405180910390fd5b5f6040517f0a85dc2900000000000000000000000000000000000000000000000000000000815260040160405180910390fd5b5f6040517f0a85dc2900000000000000000000000000000000000000000000000000000000815260040160405180910390fd5b5f6040517f0a85dc2900000000000000000000000000000000000000000000000000000000815260040160405180910390fd5b5f805f835f0160208101906105eb9190611249565b61061957846020016020810190610602919061129e565b855f016020810190610614919061129e565b61063f565b845f01602081019061062b919061129e565b85602001602081019061063e919061129e565b5b80935081945050505f84602001351261065c57836020013561066b565b836020013561066a906111ce565b5b90509250925092565b8015610707578373ffffffffffffffffffffffffffffffffffffffff1663f5298aca846106b68873ffffffffffffffffffffffffffffffffffffffff166109c9565b856040518463ffffffff1660e01b81526004016106d5939291906112c9565b5f604051808303815f87803b1580156106ec575f80fd5b505af11580156106fe573d5f803e3d5ffd5b505050506109ab565b6107268573ffffffffffffffffffffffffffffffffffffffff166109e8565b156107a1578373ffffffffffffffffffffffffffffffffffffffff166311da60b4836040518263ffffffff1660e01b815260040160206040518083038185885af1158015610776573d5f803e3d5ffd5b50505050506040513d601f19601f8201168201806040525081019061079b9190611312565b506109aa565b8373ffffffffffffffffffffffffffffffffffffffff1663a5841194866040518263ffffffff1660e01b81526004016107da919061133d565b5f604051808303815f87803b1580156107f1575f80fd5b505af1158015610803573d5f803e3d5ffd5b505050503073ffffffffffffffffffffffffffffffffffffffff168373ffffffffffffffffffffffffffffffffffffffff16146108bd578473ffffffffffffffffffffffffffffffffffffffff166323b872dd8486856040518463ffffffff1660e01b815260040161087793929190611356565b6020604051808303815f875af1158015610893573d5f803e3d5ffd5b505050506040513d601f19601f820116820180604052508101906108b7919061139f565b5061093a565b8473ffffffffffffffffffffffffffffffffffffffff1663a9059cbb85846040518363ffffffff1660e01b81526004016108f89291906113ca565b6020604051808303815f875af1158015610914573d5f803e3d5ffd5b505050506040513d601f19601f82011682018060405250810190610938919061139f565b505b8373ffffffffffffffffffffffffffffffffffffffff166311da60b46040518163ffffffff1660e01b81526004016020604051808303815f875af1158015610984573d5f803e3d5ffd5b505050506040513d601f19601f820116820180604052508101906109a89190611312565b505b5b5050505050565b5f8160018060801b03168360801b17905092915050565b5f8173ffffffffffffffffffffffffffffffffffffffff169050919050565b5f8073ffffffffffffffffffffffffffffffffffffffff168273ffffffffffffffffffffffffffffffffffffffff16149050919050565b5f80fd5b5f80fd5b5f73ffffffffffffffffffffffffffffffffffffffff82169050919050565b5f610a5082610a27565b9050919050565b610a6081610a46565b8114610a6a575f80fd5b50565b5f81359050610a7b81610a57565b92915050565b5f80fd5b5f60a08284031215610a9a57610a99610a81565b5b81905092915050565b5f60808284031215610ab857610ab7610a81565b5b81905092915050565b5f80fd5b5f80fd5b5f80fd5b5f8083601f840112610ae257610ae1610ac1565b5b8235905067ffffffffffffffff811115610aff57610afe610ac5565b5b602083019150836001820283011115610b1b57610b1a610ac9565b5b9250929050565b5f805f805f6101608688031215610b3c57610b3b610a1f565b5b5f610b4988828901610a6d565b9550506020610b5a88828901610a85565b94505060c0610b6b88828901610aa3565b93505061014086013567ffffffffffffffff811115610b8d57610b8c610a23565b5b610b9988828901610acd565b92509250509295509295909350565b5f7fffffffff0000000000000000000000000000000000000000000000000000000082169050919050565b610bdc81610ba8565b82525050565b5f602082019050610bf55f830184610bd3565b92915050565b5f60608284031215610c1057610c0f610a81565b5b81905092915050565b5f805f805f6101408688031215610c3357610c32610a1f565b5b5f610c4088828901610a6d565b9550506020610c5188828901610a85565b94505060c0610c6288828901610bfb565b93505061012086013567ffffffffffffffff811115610c8457610c83610a23565b5b610c9088828901610acd565b92509250509295509295909350565b5f819050919050565b5f819050919050565b5f610ccb610cc6610cc184610c9f565b610ca8565b610c9f565b9050919050565b610cdb81610cb1565b82525050565b5f62ffffff82169050919050565b610cf881610ce1565b82525050565b5f606082019050610d115f830186610bd3565b610d1e6020830185610cd2565b610d2b6040830184610cef565b949350505050565b610d3c81610c9f565b8114610d46575f80fd5b50565b5f81359050610d5781610d33565b92915050565b5f805f805f805f6101a0888a031215610d7957610d78610a1f565b5b5f610d868a828b01610a6d565b9750506020610d978a828b01610a85565b96505060c0610da88a828b01610aa3565b955050610140610dba8a828b01610d49565b945050610160610dcc8a828b01610d49565b93505061018088013567ffffffffffffffff811115610dee57610ded610a23565b5b610dfa8a828b01610acd565b925092505092959891949750929550565b610e1481610cb1565b82525050565b5f604082019050610e2d5f830185610bd3565b610e3a6020830184610e0b565b9392505050565b610e4a81610a27565b8114610e54575f80fd5b50565b5f81359050610e6581610e41565b92915050565b5f8160020b9050919050565b610e8081610e6b565b8114610e8a575f80fd5b50565b5f81359050610e9b81610e77565b92915050565b5f805f806101008587031215610eba57610eb9610a1f565b5b5f610ec787828801610a6d565b9450506020610ed887828801610a85565b93505060c0610ee987828801610e57565b92505060e0610efa87828801610e8d565b91505092959194509250565b5f805f805f806101608789031215610f2157610f20610a1f565b5b5f610f2e89828a01610a6d565b9650506020610f3f89828a01610a85565b95505060c0610f5089828a01610bfb565b945050610120610f6289828a01610d49565b93505061014087013567ffffffffffffffff811115610f8457610f83610a23565b5b610f9089828a01610acd565b92509250509295509295509295565b5f81600f0b9050919050565b610fb481610f9f565b82525050565b5f604082019050610fcd5f830185610bd3565b610fda6020830184610fab565b9392505050565b5f819050919050565b610ff381610fe1565b8114610ffd575f80fd5b50565b5f8135905061100e81610fea565b92915050565b5f805f805f80610120878903121561102f5761102e610a1f565b5b5f61103c89828a01610a6d565b965050602061104d89828a01610a85565b95505060c061105e89828a01611000565b94505060e061106f89828a01611000565b93505061010087013567ffffffffffffffff81111561109157611090610a23565b5b61109d89828a01610acd565b92509250509295509295509295565b5f805f60e084860312156110c3576110c2610a1f565b5b5f6110d086828701610a6d565b93505060206110e186828701610a85565b92505060c06110f286828701610e57565b9150509250925092565b5f61111661111161110c84610a27565b610ca8565b610a27565b9050919050565b5f611127826110fc565b9050919050565b5f6111388261111d565b9050919050565b6111488161112e565b82525050565b61115781610a46565b82525050565b61116681610fe1565b82525050565b5f60608201905061117f5f83018661113f565b61118c602083018561114e565b611199604083018461115d565b949350505050565b7f4e487b71000000000000000000000000000000000000000000000000000000005f52601160045260245ffd5b5f6111d882610c9f565b91507f8000000000000000000000000000000000000000000000000000000000000000820361120a576112096111a1565b5b815f039050919050565b5f8115159050919050565b61122881611214565b8114611232575f80fd5b50565b5f813590506112438161121f565b92915050565b5f6020828403121561125e5761125d610a1f565b5b5f61126b84828501611235565b91505092915050565b61127d81610a46565b8114611287575f80fd5b50565b5f8135905061129881611274565b92915050565b5f602082840312156112b3576112b2610a1f565b5b5f6112c08482850161128a565b91505092915050565b5f6060820190506112dc5f83018661114e565b6112e9602083018561115d565b6112f6604083018461115d565b949350505050565b5f8151905061130c81610fea565b92915050565b5f6020828403121561132757611326610a1f565b5b5f611334848285016112fe565b91505092915050565b5f6020820190506113505f83018461113f565b92915050565b5f6060820190506113695f83018661114e565b611376602083018561114e565b611383604083018461115d565b949350505050565b5f815190506113998161121f565b92915050565b5f602082840312156113b4576113b3610a1f565b5b5f6113c18482850161138b565b91505092915050565b5f6040820190506113dd5f83018561114e565b6113ea602083018461115d565b939250505056fea26469706673582212203d68cf483d8399d038eccefac7350bc7935ece62e43c94938a13c3446ef4eea064736f6c634300081a0033","linkReferences":{}},"methodIdentifiers":{"afterAddLiquidity(address,(address,address,uint24,int24,address),(int24,int24,int256,bytes32),int256,int256,bytes)":"9f063efc","afterDonate(address,(address,address,uint24,int24,address),uint256,uint256,bytes)":"e1b4af69","afterInitialize(address,(address,address,uint24,int24,address),uint160,int24)":"6fe7e6eb","afterRemoveLiquidity(address,(address,address,uint24,int24,address),(int24,int24,int256,bytes32),int256,int256,bytes)":"6c2bbe7e","afterSwap(address,(address,address,uint24,int24,address),(bool,int256,uint160),int256,bytes)":"b47b2fb1","beforeAddLiquidity(address,(address,address,uint24,int24,address),(int24,int24,int256,bytes32),bytes)":"259982e5","beforeDonate(address,(address,address,uint24,int24,address),uint256,uint256,bytes)":"b6a8b0fa","beforeInitialize(address,(address,address,uint24,int24,address),uint160)":"dc98354e","beforeRemoveLiquidity(address,(address,address,uint24,int24,address),(int24,int24,int256,bytes32),bytes)":"21d0ee70","beforeSwap(address,(address,address,uint24,int24,address),(bool,int256,uint160),bytes)":"575e24b4"},"id":145}