{"abi":[{"type":"constructor","inputs":[{"name":"name","type":"string","internalType":"string"}],"stateMutability":"nonpayable"},{"type":"function","name":"DOMAIN_SEPARATOR","inputs":[],"outputs":[{"name":"","type":"bytes32","internalType":"bytes32"}],"stateMutability":"view"}],"bytecode":{"object":"0x60e060405234801561000f575f80fd5b5060405161054038038061054083398181016040528101906100319190610205565b808051906020012060c081815250504660a0818152505061005661006360201b60201c565b60808181525050506102fe565b5f7f8cad95687ba82c2ce50e74f7b754645e5117c3a5bec8151c0726d5857980a86660c051463060405160200161009d94939291906102bb565b60405160208183030381529060405280519060200120905090565b5f604051905090565b5f80fd5b5f80fd5b5f80fd5b5f80fd5b5f601f19601f8301169050919050565b7f4e487b71000000000000000000000000000000000000000000000000000000005f52604160045260245ffd5b610117826100d1565b810181811067ffffffffffffffff82111715610136576101356100e1565b5b80604052505050565b5f6101486100b8565b9050610154828261010e565b919050565b5f67ffffffffffffffff821115610173576101726100e1565b5b61017c826100d1565b9050602081019050919050565b8281835e5f83830152505050565b5f6101a96101a484610159565b61013f565b9050828152602081018484840111156101c5576101c46100cd565b5b6101d0848285610189565b509392505050565b5f82601f8301126101ec576101eb6100c9565b5b81516101fc848260208601610197565b91505092915050565b5f6020828403121561021a576102196100c1565b5b5f82015167ffffffffffffffff811115610237576102366100c5565b5b610243848285016101d8565b91505092915050565b5f819050919050565b61025e8161024c565b82525050565b5f819050919050565b61027681610264565b82525050565b5f73ffffffffffffffffffffffffffffffffffffffff82169050919050565b5f6102a58261027c565b9050919050565b6102b58161029b565b82525050565b5f6080820190506102ce5f830187610255565b6102db6020830186610255565b6102e8604083018561026d565b6102f560608301846102ac565b95945050505050565b60805160a05160c05161021b6103255f395f60cb01525f604e01525f6082015261021b5ff3fe608060405234801561000f575f80fd5b5060043610610029575f3560e01c80633644e5151461002d575b5f80fd5b61003561004b565b6040516100429190610132565b60405180910390f35b5f7f000000000000000000000000000000000000000000000000000000000000000046146100805761007b6100a7565b6100a2565b7f00000000000000000000000000000000000000000000000000000000000000005b905090565b5f7f8cad95687ba82c2ce50e74f7b754645e5117c3a5bec8151c0726d5857980a8667f000000000000000000000000000000000000000000000000000000000000000046306040516020016100ff94939291906101a2565b60405160208183030381529060405280519060200120905090565b5f819050919050565b61012c8161011a565b82525050565b5f6020820190506101455f830184610123565b92915050565b5f819050919050565b61015d8161014b565b82525050565b5f73ffffffffffffffffffffffffffffffffffffffff82169050919050565b5f61018c82610163565b9050919050565b61019c81610182565b82525050565b5f6080820190506101b55f830187610123565b6101c26020830186610123565b6101cf6040830185610154565b6101dc6060830184610193565b9594505050505056fea26469706673582212209809804418a959d32b3d549f1ed8e4cd08e05c464c4abbf91136e9e27549ed4064736f6c634300081a0033","linkReferences":{}},"methodIdentifiers":{"DOMAIN_SEPARATOR()":"3644e515"},"id":98}