{"abi":[{"type":"constructor","inputs":[{"name":"_manager","type":"address","internalType":"contract IPoolManager"}],"stateMutability":"nonpayable"},{"type":"function","name":"manager","inputs":[],"outputs":[{"name":"","type":"address","internalType":"contract IPoolManager"}],"stateMutability":"view"},{"type":"function","name":"swap","inputs":[{"name":"key","type":"tuple","internalType":"struct PoolKey","components":[{"name":"currency0","type":"address","internalType":"Currency"},{"name":"currency1","type":"address","internalType":"Currency"},{"name":"fee","type":"uint24","internalType":"uint24"},{"name":"tickSpacing","type":"int24","internalType":"int24"},{"name":"hooks","type":"address","internalType":"contract IHooks"}]},{"name":"params","type":"tuple","internalType":"struct IPoolManager.SwapParams","components":[{"name":"zeroForOne","type":"bool","internalType":"bool"},{"name":"amountSpecified","type":"int256","internalType":"int256"},{"name":"sqrtPriceLimitX96","type":"uint160","internalType":"uint160"}]}],"outputs":[],"stateMutability":"payable"},{"type":"function","name":"unlockCallback","inputs":[{"name":"rawData","type":"bytes","internalType":"bytes"}],"outputs":[{"name":"","type":"bytes","internalType":"bytes"}],"stateMutability":"nonpayable"},{"type":"error","name":"NoSwapOccurred","inputs":[]}],"bytecode":{"object":"0x60a060405234801561000f575f80fd5b506040516116c93803806116c9833981810160405281019061003191906100dc565b808073ffffffffffffffffffffffffffffffffffffffff1660808173ffffffffffffffffffffffffffffffffffffffff16815250505050610107565b5f80fd5b5f73ffffffffffffffffffffffffffffffffffffffff82169050919050565b5f61009a82610071565b9050919050565b5f6100ab82610090565b9050919050565b6100bb816100a1565b81146100c5575f80fd5b50565b5f815190506100d6816100b2565b92915050565b5f602082840312156100f1576100f061006d565b5b5f6100fe848285016100c8565b91505092915050565b60805161157a61014f5f395f818160bb015281816101ab015281816101d10152818161023b0152818161033e015281816103ab015281816104150152610483015261157a5ff3fe608060405260043610610033575f3560e01c80631e2817de14610037578063481c6a751461005357806391dd73461461007d575b5f80fd5b610051600480360381019061004c9190610cc8565b6100b9565b005b34801561005e575f80fd5b506100676101a9565b6040516100749190610d62565b60405180910390f35b348015610088575f80fd5b506100a3600480360381019061009e9190610ddc565b6101cd565b6040516100b09190610e87565b60405180910390f35b7f000000000000000000000000000000000000000000000000000000000000000073ffffffffffffffffffffffffffffffffffffffff166348c8949160405180606001604052803373ffffffffffffffffffffffffffffffffffffffff168152602001858152602001848152506040516020016101369190611028565b6040516020818303038152906040526040518263ffffffff1660e01b81526004016101619190610e87565b5f604051808303815f875af115801561017c573d5f803e3d5ffd5b505050506040513d5f823e3d601f19601f820116820180604052508101906101a491906110e4565b505050565b7f000000000000000000000000000000000000000000000000000000000000000081565b60607f000000000000000000000000000000000000000000000000000000000000000073ffffffffffffffffffffffffffffffffffffffff163373ffffffffffffffffffffffffffffffffffffffff1614610226575f80fd5b5f838381019061023691906111b7565b90505f7f000000000000000000000000000000000000000000000000000000000000000073ffffffffffffffffffffffffffffffffffffffff1663f3cd914c836020015184604001515f67ffffffffffffffff811115610299576102986109d1565b5b6040519080825280601f01601f1916602001820160405280156102cb5781602001600182028036833780820191505090505b506040518463ffffffff1660e01b81526004016102ea93929190611289565b6020604051808303815f875af1158015610306573d5f803e3d5ffd5b505050506040513d601f19601f8201168201806040525081019061032a91906112f1565b905081604001515f015115610410576103a67f0000000000000000000000000000000000000000000000000000000000000000835f015161036a846104fc565b61037390611355565b600f0b5f86602001515f015173ffffffffffffffffffffffffffffffffffffffff1661050890949392919063ffffffff16565b61040b7f0000000000000000000000000000000000000000000000000000000000000000835f01516103d784610846565b600f0b5f86602001516020015173ffffffffffffffffffffffffffffffffffffffff1661085290949392919063ffffffff16565b6104e3565b61047e7f0000000000000000000000000000000000000000000000000000000000000000835f015161044184610846565b61044a90611355565b600f0b5f86602001516020015173ffffffffffffffffffffffffffffffffffffffff1661050890949392919063ffffffff16565b6104e27f0000000000000000000000000000000000000000000000000000000000000000835f01516104af846104fc565b600f0b5f86602001515f015173ffffffffffffffffffffffffffffffffffffffff1661085290949392919063ffffffff16565b5b60405180602001604052805f8152509250505092915050565b5f8160801d9050919050565b801561059b578373ffffffffffffffffffffffffffffffffffffffff1663f5298aca8461054a8873ffffffffffffffffffffffffffffffffffffffff16610956565b856040518463ffffffff1660e01b8152600401610569939291906113c2565b5f604051808303815f87803b158015610580575f80fd5b505af1158015610592573d5f803e3d5ffd5b5050505061083f565b6105ba8573ffffffffffffffffffffffffffffffffffffffff16610975565b15610635578373ffffffffffffffffffffffffffffffffffffffff166311da60b4836040518263ffffffff1660e01b815260040160206040518083038185885af115801561060a573d5f803e3d5ffd5b50505050506040513d601f19601f8201168201806040525081019061062f9190611421565b5061083e565b8373ffffffffffffffffffffffffffffffffffffffff1663a5841194866040518263ffffffff1660e01b815260040161066e919061145b565b5f604051808303815f87803b158015610685575f80fd5b505af1158015610697573d5f803e3d5ffd5b505050503073ffffffffffffffffffffffffffffffffffffffff168373ffffffffffffffffffffffffffffffffffffffff1614610751578473ffffffffffffffffffffffffffffffffffffffff166323b872dd8486856040518463ffffffff1660e01b815260040161070b93929190611474565b6020604051808303815f875af1158015610727573d5f803e3d5ffd5b505050506040513d601f19601f8201168201806040525081019061074b91906114bd565b506107ce565b8473ffffffffffffffffffffffffffffffffffffffff1663a9059cbb85846040518363ffffffff1660e01b815260040161078c9291906114e8565b6020604051808303815f875af11580156107a8573d5f803e3d5ffd5b505050506040513d601f19601f820116820180604052508101906107cc91906114bd565b505b8373ffffffffffffffffffffffffffffffffffffffff166311da60b46040518163ffffffff1660e01b81526004016020604051808303815f875af1158015610818573d5f803e3d5ffd5b505050506040513d601f19601f8201168201806040525081019061083c9190611421565b505b5b5050505050565b5f81600f0b9050919050565b806108c6578373ffffffffffffffffffffffffffffffffffffffff16630b0d9c098685856040518463ffffffff1660e01b81526004016108949392919061150f565b5f604051808303815f87803b1580156108ab575f80fd5b505af11580156108bd573d5f803e3d5ffd5b5050505061094f565b8373ffffffffffffffffffffffffffffffffffffffff1663156e29f6846109028873ffffffffffffffffffffffffffffffffffffffff16610956565b856040518463ffffffff1660e01b8152600401610921939291906113c2565b5f604051808303815f87803b158015610938575f80fd5b505af115801561094a573d5f803e3d5ffd5b505050505b5050505050565b5f8173ffffffffffffffffffffffffffffffffffffffff169050919050565b5f8073ffffffffffffffffffffffffffffffffffffffff168273ffffffffffffffffffffffffffffffffffffffff16149050919050565b5f604051905090565b5f80fd5b5f80fd5b5f80fd5b5f601f19601f8301169050919050565b7f4e487b71000000000000000000000000000000000000000000000000000000005f52604160045260245ffd5b610a07826109c1565b810181811067ffffffffffffffff82111715610a2657610a256109d1565b5b80604052505050565b5f610a386109ac565b9050610a4482826109fe565b919050565b5f73ffffffffffffffffffffffffffffffffffffffff82169050919050565b5f610a7282610a49565b9050919050565b610a8281610a68565b8114610a8c575f80fd5b50565b5f81359050610a9d81610a79565b92915050565b5f62ffffff82169050919050565b610aba81610aa3565b8114610ac4575f80fd5b50565b5f81359050610ad581610ab1565b92915050565b5f8160020b9050919050565b610af081610adb565b8114610afa575f80fd5b50565b5f81359050610b0b81610ae7565b92915050565b5f610b1b82610a68565b9050919050565b610b2b81610b11565b8114610b35575f80fd5b50565b5f81359050610b4681610b22565b92915050565b5f60a08284031215610b6157610b606109bd565b5b610b6b60a0610a2f565b90505f610b7a84828501610a8f565b5f830152506020610b8d84828501610a8f565b6020830152506040610ba184828501610ac7565b6040830152506060610bb584828501610afd565b6060830152506080610bc984828501610b38565b60808301525092915050565b5f8115159050919050565b610be981610bd5565b8114610bf3575f80fd5b50565b5f81359050610c0481610be0565b92915050565b5f819050919050565b610c1c81610c0a565b8114610c26575f80fd5b50565b5f81359050610c3781610c13565b92915050565b610c4681610a49565b8114610c50575f80fd5b50565b5f81359050610c6181610c3d565b92915050565b5f60608284031215610c7c57610c7b6109bd565b5b610c866060610a2f565b90505f610c9584828501610bf6565b5f830152506020610ca884828501610c29565b6020830152506040610cbc84828501610c53565b60408301525092915050565b5f806101008385031215610cdf57610cde6109b5565b5b5f610cec85828601610b4c565b92505060a0610cfd85828601610c67565b9150509250929050565b5f819050919050565b5f610d2a610d25610d2084610a49565b610d07565b610a49565b9050919050565b5f610d3b82610d10565b9050919050565b5f610d4c82610d31565b9050919050565b610d5c81610d42565b82525050565b5f602082019050610d755f830184610d53565b92915050565b5f80fd5b5f80fd5b5f80fd5b5f8083601f840112610d9c57610d9b610d7b565b5b8235905067ffffffffffffffff811115610db957610db8610d7f565b5b602083019150836001820283011115610dd557610dd4610d83565b5b9250929050565b5f8060208385031215610df257610df16109b5565b5b5f83013567ffffffffffffffff811115610e0f57610e0e6109b9565b5b610e1b85828601610d87565b92509250509250929050565b5f81519050919050565b5f82825260208201905092915050565b8281835e5f83830152505050565b5f610e5982610e27565b610e638185610e31565b9350610e73818560208601610e41565b610e7c816109c1565b840191505092915050565b5f6020820190508181035f830152610e9f8184610e4f565b905092915050565b610eb081610a68565b82525050565b5f610ec082610d31565b9050919050565b610ed081610eb6565b82525050565b610edf81610aa3565b82525050565b610eee81610adb565b82525050565b5f610efe82610d31565b9050919050565b610f0e81610ef4565b82525050565b60a082015f820151610f285f850182610ec7565b506020820151610f3b6020850182610ec7565b506040820151610f4e6040850182610ed6565b506060820151610f616060850182610ee5565b506080820151610f746080850182610f05565b50505050565b610f8381610bd5565b82525050565b610f9281610c0a565b82525050565b610fa181610a49565b82525050565b606082015f820151610fbb5f850182610f7a565b506020820151610fce6020850182610f89565b506040820151610fe16040850182610f98565b50505050565b61012082015f820151610ffc5f850182610ea7565b50602082015161100f6020850182610f14565b50604082015161102260c0850182610fa7565b50505050565b5f6101208201905061103c5f830184610fe7565b92915050565b5f80fd5b5f67ffffffffffffffff8211156110605761105f6109d1565b5b611069826109c1565b9050602081019050919050565b5f61108861108384611046565b610a2f565b9050828152602081018484840111156110a4576110a3611042565b5b6110af848285610e41565b509392505050565b5f82601f8301126110cb576110ca610d7b565b5b81516110db848260208601611076565b91505092915050565b5f602082840312156110f9576110f86109b5565b5b5f82015167ffffffffffffffff811115611116576111156109b9565b5b611122848285016110b7565b91505092915050565b61113481610a68565b811461113e575f80fd5b50565b5f8135905061114f8161112b565b92915050565b5f610120828403121561116b5761116a6109bd565b5b6111756060610a2f565b90505f61118484828501611141565b5f83015250602061119784828501610b4c565b60208301525060c06111ab84828501610c67565b60408301525092915050565b5f61012082840312156111cd576111cc6109b5565b5b5f6111da84828501611155565b91505092915050565b60a082015f8201516111f75f850182610ec7565b50602082015161120a6020850182610ec7565b50604082015161121d6040850182610ed6565b5060608201516112306060850182610ee5565b5060808201516112436080850182610f05565b50505050565b606082015f82015161125d5f850182610f7a565b5060208201516112706020850182610f89565b5060408201516112836040850182610f98565b50505050565b5f6101208201905061129d5f8301866111e3565b6112aa60a0830185611249565b8181036101008301526112bd8184610e4f565b9050949350505050565b6112d081610c0a565b81146112da575f80fd5b50565b5f815190506112eb816112c7565b92915050565b5f60208284031215611306576113056109b5565b5b5f611313848285016112dd565b91505092915050565b5f81600f0b9050919050565b7f4e487b71000000000000000000000000000000000000000000000000000000005f52601160045260245ffd5b5f61135f8261131c565b91507fffffffffffffffffffffffffffffffff80000000000000000000000000000000820361139157611390611328565b5b815f039050919050565b6113a481610a68565b82525050565b5f819050919050565b6113bc816113aa565b82525050565b5f6060820190506113d55f83018661139b565b6113e260208301856113b3565b6113ef60408301846113b3565b949350505050565b611400816113aa565b811461140a575f80fd5b50565b5f8151905061141b816113f7565b92915050565b5f60208284031215611436576114356109b5565b5b5f6114438482850161140d565b91505092915050565b61145581610eb6565b82525050565b5f60208201905061146e5f83018461144c565b92915050565b5f6060820190506114875f83018661139b565b611494602083018561139b565b6114a160408301846113b3565b949350505050565b5f815190506114b781610be0565b92915050565b5f602082840312156114d2576114d16109b5565b5b5f6114df848285016114a9565b91505092915050565b5f6040820190506114fb5f83018561139b565b61150860208301846113b3565b9392505050565b5f6060820190506115225f83018661144c565b61152f602083018561139b565b61153c60408301846113b3565b94935050505056fea26469706673582212209dc32bc3639410c255253413143188c24c5b9eed63f890682f48e1e113cc690064736f6c634300081a0033","linkReferences":{}},"methodIdentifiers":{"manager()":"481c6a75","swap((address,address,uint24,int24,address),(bool,int256,uint160))":"1e2817de","unlockCallback(bytes)":"91dd7346"},"id":78}