{"abi":[{"type":"constructor","inputs":[{"name":"_poolManager","type":"address","internalType":"contract IPoolManager"},{"name":"_permit2","type":"address","internalType":"contract IAllowanceTransfer"},{"name":"_unsubscribeGasLimit","type":"uint256","internalType":"uint256"},{"name":"_tokenDescriptor","type":"address","internalType":"contract IPositionDescriptor"},{"name":"_weth9","type":"address","internalType":"contract IWETH9"}],"stateMutability":"nonpayable"},{"type":"receive","stateMutability":"payable"},{"type":"function","name":"DOMAIN_SEPARATOR","inputs":[],"outputs":[{"name":"","type":"bytes32","internalType":"bytes32"}],"stateMutability":"view"},{"type":"function","name":"WETH9","inputs":[],"outputs":[{"name":"","type":"address","internalType":"contract IWETH9"}],"stateMutability":"view"},{"type":"function","name":"approve","inputs":[{"name":"spender","type":"address","internalType":"address"},{"name":"id","type":"uint256","internalType":"uint256"}],"outputs":[],"stateMutability":"nonpayable"},{"type":"function","name":"balanceOf","inputs":[{"name":"owner","type":"address","internalType":"address"}],"outputs":[{"name":"","type":"uint256","internalType":"uint256"}],"stateMutability":"view"},{"type":"function","name":"getApproved","inputs":[{"name":"","type":"uint256","internalType":"uint256"}],"outputs":[{"name":"","type":"address","internalType":"address"}],"stateMutability":"view"},{"type":"function","name":"getPoolAndPositionInfo","inputs":[{"name":"tokenId","type":"uint256","internalType":"uint256"}],"outputs":[{"name":"poolKey","type":"tuple","internalType":"struct PoolKey","components":[{"name":"currency0","type":"address","internalType":"Currency"},{"name":"currency1","type":"address","internalType":"Currency"},{"name":"fee","type":"uint24","internalType":"uint24"},{"name":"tickSpacing","type":"int24","internalType":"int24"},{"name":"hooks","type":"address","internalType":"contract IHooks"}]},{"name":"info","type":"uint256","internalType":"PositionInfo"}],"stateMutability":"view"},{"type":"function","name":"getPositionLiquidity","inputs":[{"name":"tokenId","type":"uint256","internalType":"uint256"}],"outputs":[{"name":"liquidity","type":"uint128","internalType":"uint128"}],"stateMutability":"view"},{"type":"function","name":"initializePool","inputs":[{"name":"key","type":"tuple","internalType":"struct PoolKey","components":[{"name":"currency0","type":"address","internalType":"Currency"},{"name":"currency1","type":"address","internalType":"Currency"},{"name":"fee","type":"uint24","internalType":"uint24"},{"name":"tickSpacing","type":"int24","internalType":"int24"},{"name":"hooks","type":"address","internalType":"contract IHooks"}]},{"name":"sqrtPriceX96","type":"uint160","internalType":"uint160"}],"outputs":[{"name":"","type":"int24","internalType":"int24"}],"stateMutability":"payable"},{"type":"function","name":"isApprovedForAll","inputs":[{"name":"","type":"address","internalType":"address"},{"name":"","type":"address","internalType":"address"}],"outputs":[{"name":"","type":"bool","internalType":"bool"}],"stateMutability":"view"},{"type":"function","name":"modifyLiquidities","inputs":[{"name":"unlockData","type":"bytes","internalType":"bytes"},{"name":"deadline","type":"uint256","internalType":"uint256"}],"outputs":[],"stateMutability":"payable"},{"type":"function","name":"modifyLiquiditiesWithoutUnlock","inputs":[{"name":"actions","type":"bytes","internalType":"bytes"},{"name":"params","type":"bytes[]","internalType":"bytes[]"}],"outputs":[],"stateMutability":"payable"},{"type":"function","name":"msgSender","inputs":[],"outputs":[{"name":"","type":"address","internalType":"address"}],"stateMutability":"view"},{"type":"function","name":"multicall","inputs":[{"name":"data","type":"bytes[]","internalType":"bytes[]"}],"outputs":[{"name":"results","type":"bytes[]","internalType":"bytes[]"}],"stateMutability":"payable"},{"type":"function","name":"name","inputs":[],"outputs":[{"name":"","type":"string","internalType":"string"}],"stateMutability":"view"},{"type":"function","name":"nextTokenId","inputs":[],"outputs":[{"name":"","type":"uint256","internalType":"uint256"}],"stateMutability":"view"},{"type":"function","name":"nonces","inputs":[{"name":"owner","type":"address","internalType":"address"},{"name":"word","type":"uint256","internalType":"uint256"}],"outputs":[{"name":"bitmap","type":"uint256","internalType":"uint256"}],"stateMutability":"view"},{"type":"function","name":"ownerOf","inputs":[{"name":"id","type":"uint256","internalType":"uint256"}],"outputs":[{"name":"owner","type":"address","internalType":"address"}],"stateMutability":"view"},{"type":"function","name":"permit","inputs":[{"name":"spender","type":"address","internalType":"address"},{"name":"tokenId","type":"uint256","internalType":"uint256"},{"name":"deadline","type":"uint256","internalType":"uint256"},{"name":"nonce","type":"uint256","internalType":"uint256"},{"name":"signature","type":"bytes","internalType":"bytes"}],"outputs":[],"stateMutability":"payable"},{"type":"function","name":"permit","inputs":[{"name":"owner","type":"address","internalType":"address"},{"name":"permitSingle","type":"tuple","internalType":"struct IAllowanceTransfer.PermitSingle","components":[{"name":"details","type":"tuple","internalType":"struct IAllowanceTransfer.PermitDetails","components":[{"name":"token","type":"address","internalType":"address"},{"name":"amount","type":"uint160","internalType":"uint160"},{"name":"expiration","type":"uint48","internalType":"uint48"},{"name":"nonce","type":"uint48","internalType":"uint48"}]},{"name":"spender","type":"address","internalType":"address"},{"name":"sigDeadline","type":"uint256","internalType":"uint256"}]},{"name":"signature","type":"bytes","internalType":"bytes"}],"outputs":[{"name":"err","type":"bytes","internalType":"bytes"}],"stateMutability":"payable"},{"type":"function","name":"permit2","inputs":[],"outputs":[{"name":"","type":"address","internalType":"contract IAllowanceTransfer"}],"stateMutability":"view"},{"type":"function","name":"permitBatch","inputs":[{"name":"owner","type":"address","internalType":"address"},{"name":"_permitBatch","type":"tuple","internalType":"struct IAllowanceTransfer.PermitBatch","components":[{"name":"details","type":"tuple[]","internalType":"struct IAllowanceTransfer.PermitDetails[]","components":[{"name":"token","type":"address","internalType":"address"},{"name":"amount","type":"uint160","internalType":"uint160"},{"name":"expiration","type":"uint48","internalType":"uint48"},{"name":"nonce","type":"uint48","internalType":"uint48"}]},{"name":"spender","type":"address","internalType":"address"},{"name":"sigDeadline","type":"uint256","internalType":"uint256"}]},{"name":"signature","type":"bytes","internalType":"bytes"}],"outputs":[{"name":"err","type":"bytes","internalType":"bytes"}],"stateMutability":"payable"},{"type":"function","name":"permitForAll","inputs":[{"name":"owner","type":"address","internalType":"address"},{"name":"operator","type":"address","internalType":"address"},{"name":"approved","type":"bool","internalType":"bool"},{"name":"deadline","type":"uint256","internalType":"uint256"},{"name":"nonce","type":"uint256","internalType":"uint256"},{"name":"signature","type":"bytes","internalType":"bytes"}],"outputs":[],"stateMutability":"payable"},{"type":"function","name":"poolKeys","inputs":[{"name":"poolId","type":"bytes25","internalType":"bytes25"}],"outputs":[{"name":"currency0","type":"address","internalType":"Currency"},{"name":"currency1","type":"address","internalType":"Currency"},{"name":"fee","type":"uint24","internalType":"uint24"},{"name":"tickSpacing","type":"int24","internalType":"int24"},{"name":"hooks","type":"address","internalType":"contract IHooks"}],"stateMutability":"view"},{"type":"function","name":"poolManager","inputs":[],"outputs":[{"name":"","type":"address","internalType":"contract IPoolManager"}],"stateMutability":"view"},{"type":"function","name":"positionInfo","inputs":[{"name":"tokenId","type":"uint256","internalType":"uint256"}],"outputs":[{"name":"info","type":"uint256","internalType":"PositionInfo"}],"stateMutability":"view"},{"type":"function","name":"revokeNonce","inputs":[{"name":"nonce","type":"uint256","internalType":"uint256"}],"outputs":[],"stateMutability":"payable"},{"type":"function","name":"safeTransferFrom","inputs":[{"name":"from","type":"address","internalType":"address"},{"name":"to","type":"address","internalType":"address"},{"name":"id","type":"uint256","internalType":"uint256"}],"outputs":[],"stateMutability":"nonpayable"},{"type":"function","name":"safeTransferFrom","inputs":[{"name":"from","type":"address","internalType":"address"},{"name":"to","type":"address","internalType":"address"},{"name":"id","type":"uint256","internalType":"uint256"},{"name":"data","type":"bytes","internalType":"bytes"}],"outputs":[],"stateMutability":"nonpayable"},{"type":"function","name":"setApprovalForAll","inputs":[{"name":"operator","type":"address","internalType":"address"},{"name":"approved","type":"bool","internalType":"bool"}],"outputs":[],"stateMutability":"nonpayable"},{"type":"function","name":"subscribe","inputs":[{"name":"tokenId","type":"uint256","internalType":"uint256"},{"name":"newSubscriber","type":"address","internalType":"address"},{"name":"data","type":"bytes","internalType":"bytes"}],"outputs":[],"stateMutability":"payable"},{"type":"function","name":"subscriber","inputs":[{"name":"tokenId","type":"uint256","internalType":"uint256"}],"outputs":[{"name":"subscriber","type":"address","internalType":"contract ISubscriber"}],"stateMutability":"view"},{"type":"function","name":"supportsInterface","inputs":[{"name":"interfaceId","type":"bytes4","internalType":"bytes4"}],"outputs":[{"name":"","type":"bool","internalType":"bool"}],"stateMutability":"view"},{"type":"function","name":"symbol","inputs":[],"outputs":[{"name":"","type":"string","internalType":"string"}],"stateMutability":"view"},{"type":"function","name":"tokenDescriptor","inputs":[],"outputs":[{"name":"","type":"address","internalType":"contract IPositionDescriptor"}],"stateMutability":"view"},{"type":"function","name":"tokenURI","inputs":[{"name":"tokenId","type":"uint256","internalType":"uint256"}],"outputs":[{"name":"","type":"string","internalType":"string"}],"stateMutability":"view"},{"type":"function","name":"transferFrom","inputs":[{"name":"from","type":"address","internalType":"address"},{"name":"to","type":"address","internalType":"address"},{"name":"id","type":"uint256","internalType":"uint256"}],"outputs":[],"stateMutability":"nonpayable"},{"type":"function","name":"unlockCallback","inputs":[{"name":"data","type":"bytes","internalType":"bytes"}],"outputs":[{"name":"","type":"bytes","internalType":"bytes"}],"stateMutability":"nonpayable"},{"type":"function","name":"unsubscribe","inputs":[{"name":"tokenId","type":"uint256","internalType":"uint256"}],"outputs":[],"stateMutability":"payable"},{"type":"function","name":"unsubscribeGasLimit","inputs":[],"outputs":[{"name":"","type":"uint256","internalType":"uint256"}],"stateMutability":"view"},{"type":"event","name":"Approval","inputs":[{"name":"owner","type":"address","indexed":true,"internalType":"address"},{"name":"spender","type":"address","indexed":true,"internalType":"address"},{"name":"id","type":"uint256","indexed":true,"internalType":"uint256"}],"anonymous":false},{"type":"event","name":"ApprovalForAll","inputs":[{"name":"owner","type":"address","indexed":true,"internalType":"address"},{"name":"operator","type":"address","indexed":true,"internalType":"address"},{"name":"approved","type":"bool","indexed":false,"internalType":"bool"}],"anonymous":false},{"type":"event","name":"Subscription","inputs":[{"name":"tokenId","type":"uint256","indexed":true,"internalType":"uint256"},{"name":"subscriber","type":"address","indexed":true,"internalType":"address"}],"anonymous":false},{"type":"event","name":"Transfer","inputs":[{"name":"from","type":"address","indexed":true,"internalType":"address"},{"name":"to","type":"address","indexed":true,"internalType":"address"},{"name":"id","type":"uint256","indexed":true,"internalType":"uint256"}],"anonymous":false},{"type":"event","name":"Unsubscription","inputs":[{"name":"tokenId","type":"uint256","indexed":true,"internalType":"uint256"},{"name":"subscriber","type":"address","indexed":true,"internalType":"address"}],"anonymous":false},{"type":"error","name":"AlreadySubscribed","inputs":[{"name":"tokenId","type":"uint256","internalType":"uint256"},{"name":"subscriber","type":"address","internalType":"address"}]},{"type":"error","name":"BurnNotificationReverted","inputs":[{"name":"subscriber","type":"address","internalType":"address"},{"name":"reason","type":"bytes","internalType":"bytes"}]},{"type":"error","name":"ContractLocked","inputs":[]},{"type":"error","name":"DeadlinePassed","inputs":[{"name":"deadline","type":"uint256","internalType":"uint256"}]},{"type":"error","name":"DeltaNotNegative","inputs":[{"name":"currency","type":"address","internalType":"Currency"}]},{"type":"error","name":"DeltaNotPositive","inputs":[{"name":"currency","type":"address","internalType":"Currency"}]},{"type":"error","name":"GasLimitTooLow","inputs":[]},{"type":"error","name":"InputLengthMismatch","inputs":[]},{"type":"error","name":"InsufficientBalance","inputs":[]},{"type":"error","name":"InvalidContractSignature","inputs":[]},{"type":"error","name":"InvalidEthSender","inputs":[]},{"type":"error","name":"InvalidSignature","inputs":[]},{"type":"error","name":"InvalidSignatureLength","inputs":[]},{"type":"error","name":"InvalidSigner","inputs":[]},{"type":"error","name":"MaximumAmountExceeded","inputs":[{"name":"maximumAmount","type":"uint128","internalType":"uint128"},{"name":"amountRequested","type":"uint128","internalType":"uint128"}]},{"type":"error","name":"MinimumAmountInsufficient","inputs":[{"name":"minimumAmount","type":"uint128","internalType":"uint128"},{"name":"amountReceived","type":"uint128","internalType":"uint128"}]},{"type":"error","name":"ModifyLiquidityNotificationReverted","inputs":[{"name":"subscriber","type":"address","internalType":"address"},{"name":"reason","type":"bytes","internalType":"bytes"}]},{"type":"error","name":"NoCodeSubscriber","inputs":[]},{"type":"error","name":"NoSelfPermit","inputs":[]},{"type":"error","name":"NonceAlreadyUsed","inputs":[]},{"type":"error","name":"NotApproved","inputs":[{"name":"caller","type":"address","internalType":"address"}]},{"type":"error","name":"NotPoolManager","inputs":[]},{"type":"error","name":"NotSubscribed","inputs":[]},{"type":"error","name":"PoolManagerMustBeLocked","inputs":[]},{"type":"error","name":"SignatureDeadlineExpired","inputs":[]},{"type":"error","name":"SubscriptionReverted","inputs":[{"name":"subscriber","type":"address","internalType":"address"},{"name":"reason","type":"bytes","internalType":"bytes"}]},{"type":"error","name":"Unauthorized","inputs":[]},{"type":"error","name":"UnsupportedAction","inputs":[{"name":"action","type":"uint256","internalType":"uint256"}]}],"bytecode":{"object":"0x6101806040526001600855348015610015575f80fd5b506040516194b93803806194b983398181016040528101906100379190610390565b80848487806040518060400160405280601881526020017f556e697377617020763420506f736974696f6e73204e465400000000000000008152506040518060400160405280600b81526020017f554e492d56342d504f534d00000000000000000000000000000000000000000081525082828383815f90816100ba9190610638565b5080600190816100ca9190610638565b505050808051906020012060c081815250504660a081815250506100f26101e860201b60201c565b60808181525050508073ffffffffffffffffffffffffffffffffffffffff1660e08173ffffffffffffffffffffffffffffffffffffffff16815250505050505050806101008181525050508073ffffffffffffffffffffffffffffffffffffffff166101208173ffffffffffffffffffffffffffffffffffffffff1681525050508073ffffffffffffffffffffffffffffffffffffffff166101408173ffffffffffffffffffffffffffffffffffffffff1681525050508173ffffffffffffffffffffffffffffffffffffffff166101608173ffffffffffffffffffffffffffffffffffffffff16815250505050505050610780565b5f7f8cad95687ba82c2ce50e74f7b754645e5117c3a5bec8151c0726d5857980a86660c0514630604051602001610222949392919061073d565b60405160208183030381529060405280519060200120905090565b5f80fd5b5f73ffffffffffffffffffffffffffffffffffffffff82169050919050565b5f61026a82610241565b9050919050565b5f61027b82610260565b9050919050565b61028b81610271565b8114610295575f80fd5b50565b5f815190506102a681610282565b92915050565b5f6102b682610260565b9050919050565b6102c6816102ac565b81146102d0575f80fd5b50565b5f815190506102e1816102bd565b92915050565b5f819050919050565b6102f9816102e7565b8114610303575f80fd5b50565b5f81519050610314816102f0565b92915050565b5f61032482610260565b9050919050565b6103348161031a565b811461033e575f80fd5b50565b5f8151905061034f8161032b565b92915050565b5f61035f82610260565b9050919050565b61036f81610355565b8114610379575f80fd5b50565b5f8151905061038a81610366565b92915050565b5f805f805f60a086880312156103a9576103a861023d565b5b5f6103b688828901610298565b95505060206103c7888289016102d3565b94505060406103d888828901610306565b93505060606103e988828901610341565b92505060806103fa8882890161037c565b9150509295509295909350565b5f81519050919050565b7f4e487b71000000000000000000000000000000000000000000000000000000005f52604160045260245ffd5b7f4e487b71000000000000000000000000000000000000000000000000000000005f52602260045260245ffd5b5f600282049050600182168061048257607f821691505b6020821081036104955761049461043e565b5b50919050565b5f819050815f5260205f209050919050565b5f6020601f8301049050919050565b5f82821b905092915050565b5f600883026104f77fffffffffffffffffffffffffffffffffffffffffffffffffffffffffffffffff826104bc565b61050186836104bc565b95508019841693508086168417925050509392505050565b5f819050919050565b5f61053c610537610532846102e7565b610519565b6102e7565b9050919050565b5f819050919050565b61055583610522565b61056961056182610543565b8484546104c8565b825550505050565b5f90565b61057d610571565b61058881848461054c565b505050565b5b818110156105ab576105a05f82610575565b60018101905061058e565b5050565b601f8211156105f0576105c18161049b565b6105ca846104ad565b810160208510156105d9578190505b6105ed6105e5856104ad565b83018261058d565b50505b505050565b5f82821c905092915050565b5f6106105f19846008026105f5565b1980831691505092915050565b5f6106288383610601565b9150826002028217905092915050565b61064182610407565b67ffffffffffffffff81111561065a57610659610411565b5b610664825461046b565b61066f8282856105af565b5f60209050601f8311600181146106a0575f841561068e578287015190505b610698858261061d565b8655506106ff565b601f1984166106ae8661049b565b5f5b828110156106d5578489015182556001820191506020850194506020810190506106b0565b868310156106f257848901516106ee601f891682610601565b8355505b6001600288020188555050505b505050505050565b5f819050919050565b61071981610707565b82525050565b610728816102e7565b82525050565b61073781610260565b82525050565b5f6080820190506107505f830187610710565b61075d6020830186610710565b61076a604083018561071f565b610777606083018461072e565b95945050505050565b60805160a05160c05160e05161010051610120516101405161016051618bf76108c25f395f81816116130152611e6501525f81816102390152818161153f01528181613854015281816138a001528181614a950152614b1e01525f8181610a2101528181610e4201528181610f7c0152615d2901525f818161151b01528181612c6d0152612ce101525f818161029001528181610ece0152818161104c015281816119f401528181611c5b01528181611f170152818161203a0152818161268e0152818161338101528181613be0015281816140020152818161421f015281816144a40152818161454e015281816145ef015281816146f3015281816147aa0152818161487901528181614c690152818161531501528181615b2301528181615cdc0152615d6601525f61303801525f6112fe01525f6113320152618bf75ff3fe608060405260043610610232575f3560e01c8063502e1a161161012d578063a22cb465116100aa578063d737d0c71161006e578063d737d0c714610941578063dc4c90d31461096b578063dd46508f14610995578063e985e9c5146109b1578063f7020405146109ed57610318565b8063a22cb46514610869578063ac9650d814610891578063ad0b27fb146108c1578063b88d4fde146108dd578063c87b56dd1461090557610318565b80637ba03aad116100f15780637ba03aad1461074a57806386b6be7d1461078757806389097a6a146107c757806391dd73461461080357806395d89b411461083f57610318565b8063502e1a16146106425780635a9d7a681461067e5780636352211e146106a857806370a08231146106e457806375794a3c1461072057610318565b80631efeed33116101bb5780633aea60f01161017f5780633aea60f01461058e57806342842e0e146105aa5780634767565f146105d25780634aa4a4fc146105fc5780634afe393c1461062657610318565b80631efeed33146104b457806323b872dd146104f05780632b67b570146105185780632b9261de146105485780633644e5151461056457610318565b8063081812fc11610202578063081812fc146103ce578063095ea7b31461040a5780630f5730f11461043257806312261ee71461044e57806316a241311461047857610318565b80622a3e3a1461031c57806301ffc9a71461034c57806305c1ee201461038857806306fdde03146103a457610318565b36610318577f000000000000000000000000000000000000000000000000000000000000000073ffffffffffffffffffffffffffffffffffffffff163373ffffffffffffffffffffffffffffffffffffffff16141580156102df57507f000000000000000000000000000000000000000000000000000000000000000073ffffffffffffffffffffffffffffffffffffffff163373ffffffffffffffffffffffffffffffffffffffff1614155b15610316576040517f38bbd57600000000000000000000000000000000000000000000000000000000815260040160405180910390fd5b005b5f80fd5b6103366004803603810190610331919061659d565b610a1d565b604051610343919061669a565b60405180910390f35b348015610357575f80fd5b50610372600480360381019061036d919061670f565b610aec565b60405161037f9190616754565b60405180910390f35b6103a2600480360381019061039d91906167a0565b610b7d565b005b3480156103af575f80fd5b506103b8610b8a565b6040516103c5919061681d565b60405180910390f35b3480156103d9575f80fd5b506103f460048036038101906103ef91906167a0565b610c15565b604051610401919061684c565b60405180910390f35b348015610415575f80fd5b50610430600480360381019061042b9190616865565b610c45565b005b61044c600480360381019061044791906168a3565b610d7e565b005b348015610459575f80fd5b50610462610e40565b60405161046f9190616994565b60405180910390f35b348015610483575f80fd5b5061049e600480360381019061049991906167a0565b610e64565b6040516104ab91906169cd565b60405180910390f35b3480156104bf575f80fd5b506104da60048036038101906104d591906167a0565b610e94565b6040516104e79190616a10565b60405180910390f35b3480156104fb575f80fd5b5061051660048036038101906105119190616a29565b610ec9565b005b610532600480360381019061052d9190616a97565b610f78565b60405161053f919061669a565b60405180910390f35b610562600480360381019061055d9190616b09565b611047565b005b34801561056f575f80fd5b506105786112fb565b6040516105859190616b92565b60405180910390f35b6105a860048036038101906105a39190616bd5565b611357565b005b3480156105b5575f80fd5b506105d060048036038101906105cb9190616a29565b6113e5565b005b3480156105dd575f80fd5b506105e6611519565b6040516105f39190616c8e565b60405180910390f35b348015610607575f80fd5b5061061061153d565b60405161061d9190616cc7565b60405180910390f35b610640600480360381019061063b9190616d35565b611561565b005b34801561064d575f80fd5b5061066860048036038101906106639190616865565b6115f1565b6040516106759190616c8e565b60405180910390f35b348015610689575f80fd5b50610692611611565b60405161069f9190616dd3565b60405180910390f35b3480156106b3575f80fd5b506106ce60048036038101906106c991906167a0565b611635565b6040516106db919061684c565b60405180910390f35b3480156106ef575f80fd5b5061070a60048036038101906107059190616dec565b6116dc565b6040516107179190616c8e565b60405180910390f35b34801561072b575f80fd5b50610734611790565b6040516107419190616c8e565b60405180910390f35b348015610755575f80fd5b50610770600480360381019061076b91906167a0565b611796565b60405161077e929190616f25565b60405180910390f35b348015610792575f80fd5b506107ad60048036038101906107a89190616fa1565b611930565b6040516107be959493929190617008565b60405180910390f35b3480156107d2575f80fd5b506107ed60048036038101906107e891906167a0565b6119db565b6040516107fa9190617059565b60405180910390f35b34801561080e575f80fd5b5061082960048036038101906108249190617072565b6119f0565b604051610836919061669a565b60405180910390f35b34801561084a575f80fd5b50610853611a89565b604051610860919061681d565b60405180910390f35b348015610874575f80fd5b5061088f600480360381019061088a91906170bd565b611b15565b005b6108ab60048036038101906108a691906170fb565b611b24565b6040516108b89190617249565b60405180910390f35b6108db60048036038101906108d691906167a0565b611c56565b005b3480156108e8575f80fd5b5061090360048036038101906108fe9190617269565b611d27565b005b348015610910575f80fd5b5061092b600480360381019061092691906167a0565b611e61565b604051610938919061681d565b60405180910390f35b34801561094c575f80fd5b50610955611f07565b604051610962919061684c565b60405180910390f35b348015610976575f80fd5b5061097f611f15565b60405161098c919061730d565b60405180910390f35b6109af60048036038101906109aa9190617326565b611f39565b005b3480156109bc575f80fd5b506109d760048036038101906109d29190617383565b61200d565b6040516109e49190616754565b60405180910390f35b610a076004803603810190610a029190617409565b612037565b604051610a149190617447565b60405180910390f35b60607f000000000000000000000000000000000000000000000000000000000000000073ffffffffffffffffffffffffffffffffffffffff16632a2d80d1868686866040518563ffffffff1660e01b8152600401610a7e9493929190617752565b5f604051808303815f87803b158015610a95575f80fd5b505af1925050508015610aa6575060015b610ae3573d805f8114610ad4576040519150601f19603f3d011682016040523d82523d5f602084013e610ad9565b606091505b5080915050610ae4565b5b949350505050565b5f6301ffc9a760e01b827bffffffffffffffffffffffffffffffffffffffffffffffffffffffff19161480610b4657506380ac58cd60e01b827bffffffffffffffffffffffffffffffffffffffffffffffffffffffff1916145b80610b765750635b5e139f60e01b827bffffffffffffffffffffffffffffffffffffffffffffffffffffffff1916145b9050919050565b610b8733826120e8565b50565b5f8054610b96906177c4565b80601f0160208091040260200160405190810160405280929190818152602001828054610bc2906177c4565b8015610c0d5780601f10610be457610100808354040283529160200191610c0d565b820191905f5260205f20905b815481529060010190602001808311610bf057829003601f168201915b505050505081565b6004602052805f5260405f205f915054906101000a900473ffffffffffffffffffffffffffffffffffffffff1681565b5f60025f8381526020019081526020015f205f9054906101000a900473ffffffffffffffffffffffffffffffffffffffff1690508073ffffffffffffffffffffffffffffffffffffffff163373ffffffffffffffffffffffffffffffffffffffff1614158015610d37575060055f8273ffffffffffffffffffffffffffffffffffffffff1673ffffffffffffffffffffffffffffffffffffffff1681526020019081526020015f205f3373ffffffffffffffffffffffffffffffffffffffff1673ffffffffffffffffffffffffffffffffffffffff1681526020019081526020015f205f9054906101000a900460ff16155b15610d6e576040517f82b4290000000000000000000000000000000000000000000000000000000000815260040160405180910390fd5b610d7981848461219d565b505050565b8380421115610db9576040517f5a9165ff00000000000000000000000000000000000000000000000000000000815260040160405180910390fd5b5f60025f8881526020019081526020015f205f9054906101000a900473ffffffffffffffffffffffffffffffffffffffff1690505f610dfa8989888a61224c565b9050610e20610e08826122cb565b8387876123259190939291909392919063ffffffff16565b610e2a82876120e8565b610e35828a8a61219d565b505050505050505050565b7f000000000000000000000000000000000000000000000000000000000000000081565b6007602052805f5260405f205f915054906101000a900473ffffffffffffffffffffffffffffffffffffffff1681565b5f805f610ea084611796565b91509150610ec08483610eb28461264f565b610ebb8561265e565b61266d565b92505050919050565b610f087f000000000000000000000000000000000000000000000000000000000000000073ffffffffffffffffffffffffffffffffffffffff166126dd565b15610f3f576040517fd4b05fe000000000000000000000000000000000000000000000000000000000815260040160405180910390fd5b610f4a838383612784565b610f6460095f8381526020019081526020015f2054612b6b565b15610f7357610f7281612b77565b5b505050565b60607f000000000000000000000000000000000000000000000000000000000000000073ffffffffffffffffffffffffffffffffffffffff16632b67b570868686866040518563ffffffff1660e01b8152600401610fd9949392919061784c565b5f604051808303815f87803b158015610ff0575f80fd5b505af1925050508015611001575060015b61103e573d805f811461102f576040519150601f19603f3d011682016040523d82523d5f602084013e611034565b606091505b508091505061103f565b5b949350505050565b6110867f000000000000000000000000000000000000000000000000000000000000000073ffffffffffffffffffffffffffffffffffffffff166126dd565b156110bd576040517fd4b05fe000000000000000000000000000000000000000000000000000000000815260040160405180910390fd5b33846110c98282612d90565b61110a57816040517f0ca968d8000000000000000000000000000000000000000000000000000000008152600401611101919061684c565b60405180910390fd5b5f60075f8881526020019081526020015f205f9054906101000a900473ffffffffffffffffffffffffffffffffffffffff1690505f73ffffffffffffffffffffffffffffffffffffffff168173ffffffffffffffffffffffffffffffffffffffff16146111b05786816040517f25fbd8be0000000000000000000000000000000000000000000000000000000081526004016111a792919061788b565b60405180910390fd5b6111b987612eca565b8560075f8981526020019081526020015f205f6101000a81548173ffffffffffffffffffffffffffffffffffffffff021916908373ffffffffffffffffffffffffffffffffffffffff1602179055505f61126c87898888604051602401611222939291906178b2565b604051602081830303815290604052638d57f6b260e01b6020820180517bffffffffffffffffffffffffffffffffffffffffffffffffffffffff8381831617835250505050612efc565b9050806112ad576112ac638d57f6b260e01b6381ea5e9e60e01b8973ffffffffffffffffffffffffffffffffffffffff16612f5f9092919063ffffffff16565b5b8673ffffffffffffffffffffffffffffffffffffffff16887f9709492381f90bdc5938bb4e3b8e35b7e0eac8af058619e27191c5a40ce79fa960405160405180910390a35050505050505050565b5f7f000000000000000000000000000000000000000000000000000000000000000046146113305761132b613014565b611352565b7f00000000000000000000000000000000000000000000000000000000000000005b905090565b8380421115611392576040517f5a9165ff00000000000000000000000000000000000000000000000000000000815260040160405180910390fd5b5f61139f88888789613087565b90506113c56113ad826122cb565b8a86866123259190939291909392919063ffffffff16565b6113cf89866120e8565b6113da898989613109565b505050505050505050565b6113f0838383610ec9565b5f8273ffffffffffffffffffffffffffffffffffffffff163b14806114d5575063150b7a0260e01b7bffffffffffffffffffffffffffffffffffffffffffffffffffffffff19168273ffffffffffffffffffffffffffffffffffffffff1663150b7a023386856040518463ffffffff1660e01b815260040161147493929190617905565b6020604051808303815f875af1158015611490573d5f803e3d5ffd5b505050506040513d601f19601f820116820180604052508101906114b49190617961565b7bffffffffffffffffffffffffffffffffffffffffffffffffffffffff1916145b611514576040517f08c379a000000000000000000000000000000000000000000000000000000000815260040161150b906179d6565b60405180910390fd5b505050565b7f000000000000000000000000000000000000000000000000000000000000000081565b7f000000000000000000000000000000000000000000000000000000000000000081565b5f73ffffffffffffffffffffffffffffffffffffffff16611580613202565b73ffffffffffffffffffffffffffffffffffffffff16146115cd576040517f6f5ffb7e00000000000000000000000000000000000000000000000000000000815260040160405180910390fd5b6115d63361322a565b6115e284848484613250565b6115eb5f61322a565b50505050565b6006602052815f5260405f20602052805f5260405f205f91509150505481565b7f000000000000000000000000000000000000000000000000000000000000000081565b5f8073ffffffffffffffffffffffffffffffffffffffff1660025f8481526020019081526020015f205f9054906101000a900473ffffffffffffffffffffffffffffffffffffffff1691508173ffffffffffffffffffffffffffffffffffffffff16036116d7576040517f08c379a00000000000000000000000000000000000000000000000000000000081526004016116ce90617a3e565b60405180910390fd5b919050565b5f8073ffffffffffffffffffffffffffffffffffffffff168273ffffffffffffffffffffffffffffffffffffffff160361174b576040517f08c379a000000000000000000000000000000000000000000000000000000000815260040161174290617aa6565b60405180910390fd5b60035f8373ffffffffffffffffffffffffffffffffffffffff1673ffffffffffffffffffffffffffffffffffffffff1681526020019081526020015f20549050919050565b60085481565b61179e61643b565b5f60095f8481526020019081526020015f20549050600a5f6117bf83613307565b66ffffffffffffff191666ffffffffffffff191681526020019081526020015f206040518060a00160405290815f82015f9054906101000a900473ffffffffffffffffffffffffffffffffffffffff1673ffffffffffffffffffffffffffffffffffffffff1673ffffffffffffffffffffffffffffffffffffffff168152602001600182015f9054906101000a900473ffffffffffffffffffffffffffffffffffffffff1673ffffffffffffffffffffffffffffffffffffffff1673ffffffffffffffffffffffffffffffffffffffff1681526020016001820160149054906101000a900462ffffff1662ffffff1662ffffff1681526020016001820160179054906101000a900460020b60020b60020b8152602001600282015f9054906101000a900473ffffffffffffffffffffffffffffffffffffffff1673ffffffffffffffffffffffffffffffffffffffff1673ffffffffffffffffffffffffffffffffffffffff16815250509150915091565b600a602052805f5260405f205f91509050805f015f9054906101000a900473ffffffffffffffffffffffffffffffffffffffff1690806001015f9054906101000a900473ffffffffffffffffffffffffffffffffffffffff16908060010160149054906101000a900462ffffff16908060010160179054906101000a900460020b90806002015f9054906101000a900473ffffffffffffffffffffffffffffffffffffffff16905085565b6009602052805f5260405f205f915090505481565b60607f000000000000000000000000000000000000000000000000000000000000000073ffffffffffffffffffffffffffffffffffffffff163373ffffffffffffffffffffffffffffffffffffffff1614611a77576040517fae18210a00000000000000000000000000000000000000000000000000000000815260040160405180910390fd5b611a818383613332565b905092915050565b60018054611a96906177c4565b80601f0160208091040260200160405190810160405280929190818152602001828054611ac2906177c4565b8015611b0d5780601f10611ae457610100808354040283529160200191611b0d565b820191905f5260205f20905b815481529060010190602001808311611af057829003601f168201915b505050505081565b611b20338383613109565b5050565b60608282905067ffffffffffffffff811115611b4357611b42617ac4565b5b604051908082528060200260200182016040528015611b7657816020015b6060815260200190600190039081611b615790505b5090505f5b83839050811015611c4f575f803073ffffffffffffffffffffffffffffffffffffffff16868685818110611bb257611bb1617af1565b5b9050602002810190611bc49190617b2a565b604051611bd2929190617bba565b5f60405180830381855af49150503d805f8114611c0a576040519150601f19603f3d011682016040523d82523d5f602084013e611c0f565b606091505b509150915081611c2157805160208201fd5b80848481518110611c3557611c34617af1565b5b602002602001018190525050508080600101915050611b7b565b5092915050565b611c957f000000000000000000000000000000000000000000000000000000000000000073ffffffffffffffffffffffffffffffffffffffff166126dd565b15611ccc576040517fd4b05fe000000000000000000000000000000000000000000000000000000000815260040160405180910390fd5b3381611cd88282612d90565b611d1957816040517f0ca968d8000000000000000000000000000000000000000000000000000000008152600401611d10919061684c565b60405180910390fd5b611d2283612b77565b505050565b611d32858585610ec9565b5f8473ffffffffffffffffffffffffffffffffffffffff163b1480611e1b575063150b7a0260e01b7bffffffffffffffffffffffffffffffffffffffffffffffffffffffff19168473ffffffffffffffffffffffffffffffffffffffff1663150b7a0233888787876040518663ffffffff1660e01b8152600401611dba959493929190617bd2565b6020604051808303815f875af1158015611dd6573d5f803e3d5ffd5b505050506040513d601f19601f82011682018060405250810190611dfa9190617961565b7bffffffffffffffffffffffffffffffffffffffffffffffffffffffff1916145b611e5a576040517f08c379a0000000000000000000000000000000000000000000000000000000008152600401611e51906179d6565b60405180910390fd5b5050505050565b60607f000000000000000000000000000000000000000000000000000000000000000073ffffffffffffffffffffffffffffffffffffffff1663e9dc637530846040518363ffffffff1660e01b8152600401611ebe929190617c3e565b5f60405180830381865afa158015611ed8573d5f803e3d5ffd5b505050506040513d5f823e3d601f19601f82011682018060405250810190611f009190617d52565b9050919050565b5f611f10613371565b905090565b7f000000000000000000000000000000000000000000000000000000000000000081565b5f73ffffffffffffffffffffffffffffffffffffffff16611f58613202565b73ffffffffffffffffffffffffffffffffffffffff1614611fa5576040517f6f5ffb7e00000000000000000000000000000000000000000000000000000000815260040160405180910390fd5b611fae3361322a565b8080421115611ff457806040517fbfb22adf000000000000000000000000000000000000000000000000000000008152600401611feb9190616c8e565b60405180910390fd5b611ffe848461337f565b506120085f61322a565b505050565b6005602052815f5260405f20602052805f5260405f205f915091509054906101000a900460ff1681565b5f7f000000000000000000000000000000000000000000000000000000000000000073ffffffffffffffffffffffffffffffffffffffff16636276cbbe84846040518363ffffffff1660e01b8152600401612093929190617f47565b6020604051808303815f875af19250505080156120ce57506040513d601f19601f820116820180604052508101906120cb9190617f82565b60015b6120dd57627fffff90506120e2565b809150505b92915050565b5f600882901c90505f8260ff1690505f816001901b90505f8160065f8873ffffffffffffffffffffffffffffffffffffffff1673ffffffffffffffffffffffffffffffffffffffff1681526020019081526020015f205f8681526020019081526020015f205f8282541892505081905590505f82821603612195576040517f1fb09b8000000000000000000000000000000000000000000000000000000000815260040160405180910390fd5b505050505050565b8160045f8381526020019081526020015f205f6101000a81548173ffffffffffffffffffffffffffffffffffffffff021916908373ffffffffffffffffffffffffffffffffffffffff160217905550808273ffffffffffffffffffffffffffffffffffffffff168473ffffffffffffffffffffffffffffffffffffffff167f8c5be1e5ebec7d5bd14f71427d1e84f3dd0314c0f7b2291e5b200ac8c7c3b92560405160405180910390a4505050565b5f6040517f49ecf333e5b8c95c40fdafc95c1ad136e8914a8fb55e9dc8bb01eaa83a2df9ad815273ffffffffffffffffffffffffffffffffffffffff8616602082015284604082015283606082015282608082015260a0812091505f81525f60208201525f60408201525f60608201525f608082015250949350505050565b5f806122d56112fb565b90506040517f190100000000000000000000000000000000000000000000000000000000000081528160028201528360228201526042812092505f81525f60208201525f60408201525050919050565b5f805f808473ffffffffffffffffffffffffffffffffffffffff163b0361254757604187879050036123905786868101906123609190617fd7565b80935081945050508686604081811061237c5761237b617af1565b5b9050013560f81c60f81b60f81c9050612428565b604087879050036123f5575f87878101906123ab9190617fd7565b80925081955050507f7fffffffffffffffffffffffffffffffffffffffffffffffffffffffffffffff5f1b81169250601b60ff82901c5f1c6123ed919061804e565b915050612427565b6040517f4be6321b00000000000000000000000000000000000000000000000000000000815260040160405180910390fd5b5b5f6001868386866040515f815260200160405260405161244b9493929190618091565b6020604051602081039080840390855afa15801561246b573d5f803e3d5ffd5b5050506020604051035190505f73ffffffffffffffffffffffffffffffffffffffff168173ffffffffffffffffffffffffffffffffffffffff16036124dc576040517f8baa579f00000000000000000000000000000000000000000000000000000000815260040160405180910390fd5b8473ffffffffffffffffffffffffffffffffffffffff168173ffffffffffffffffffffffffffffffffffffffff1614612541576040517f815e1d6400000000000000000000000000000000000000000000000000000000815260040160405180910390fd5b50612646565b5f8473ffffffffffffffffffffffffffffffffffffffff16631626ba7e878a8a6040518463ffffffff1660e01b8152600401612585939291906180d4565b602060405180830381865afa1580156125a0573d5f803e3d5ffd5b505050506040513d601f19601f820116820180604052508101906125c49190617961565b9050631626ba7e60e01b7bffffffffffffffffffffffffffffffffffffffffffffffffffffffff1916817bffffffffffffffffffffffffffffffffffffffffffffffffffffffff191614612644576040517fb0669cbc00000000000000000000000000000000000000000000000000000000815260040160405180910390fd5b505b50505050505050565b5f8160081c60020b9050919050565b5f8160201c60020b9050919050565b5f8061267d308585895f1b613422565b90506126d261268b8661345c565b827f000000000000000000000000000000000000000000000000000000000000000073ffffffffffffffffffffffffffffffffffffffff166134689092919063ffffffff16565b915050949350505050565b5f805f1b8273ffffffffffffffffffffffffffffffffffffffff1663f135baaa7fc090fc4683624cfc3884e9d8de5eca132f2d0ec062aff75d43c0465d5ceeab235f1b6040518263ffffffff1660e01b815260040161273c9190616b92565b602060405180830381865afa158015612757573d5f803e3d5ffd5b505050506040513d601f19601f8201168201806040525081019061277b9190618118565b14159050919050565b60025f8281526020019081526020015f205f9054906101000a900473ffffffffffffffffffffffffffffffffffffffff1673ffffffffffffffffffffffffffffffffffffffff168373ffffffffffffffffffffffffffffffffffffffff1614612822576040517f08c379a00000000000000000000000000000000000000000000000000000000081526004016128199061818d565b60405180910390fd5b5f73ffffffffffffffffffffffffffffffffffffffff168273ffffffffffffffffffffffffffffffffffffffff1603612890576040517f08c379a0000000000000000000000000000000000000000000000000000000008152600401612887906181f5565b60405180910390fd5b8273ffffffffffffffffffffffffffffffffffffffff163373ffffffffffffffffffffffffffffffffffffffff16148061294b575060055f8473ffffffffffffffffffffffffffffffffffffffff1673ffffffffffffffffffffffffffffffffffffffff1681526020019081526020015f205f3373ffffffffffffffffffffffffffffffffffffffff1673ffffffffffffffffffffffffffffffffffffffff1681526020019081526020015f205f9054906101000a900460ff165b806129b1575060045f8281526020019081526020015f205f9054906101000a900473ffffffffffffffffffffffffffffffffffffffff1673ffffffffffffffffffffffffffffffffffffffff163373ffffffffffffffffffffffffffffffffffffffff16145b6129f0576040517f08c379a00000000000000000000000000000000000000000000000000000000081526004016129e79061825d565b60405180910390fd5b60035f8473ffffffffffffffffffffffffffffffffffffffff1673ffffffffffffffffffffffffffffffffffffffff1681526020019081526020015f205f81548092919060019003919050555060035f8373ffffffffffffffffffffffffffffffffffffffff1673ffffffffffffffffffffffffffffffffffffffff1681526020019081526020015f205f81548092919060010191905055508160025f8381526020019081526020015f205f6101000a81548173ffffffffffffffffffffffffffffffffffffffff021916908373ffffffffffffffffffffffffffffffffffffffff16021790555060045f8281526020019081526020015f205f6101000a81549073ffffffffffffffffffffffffffffffffffffffff0219169055808273ffffffffffffffffffffffffffffffffffffffff168473ffffffffffffffffffffffffffffffffffffffff167fddf252ad1be2c89b69c2b068fc378daa952ba7f163c4a11628f55a4df523b3ef60405160405180910390a4505050565b5f8160ff169050919050565b5f60075f8381526020019081526020015f205f9054906101000a900473ffffffffffffffffffffffffffffffffffffffff1690505f73ffffffffffffffffffffffffffffffffffffffff168173ffffffffffffffffffffffffffffffffffffffff1603612c10576040517f237e6c2800000000000000000000000000000000000000000000000000000000815260040160405180910390fd5b612c19826134fa565b60075f8381526020019081526020015f205f6101000a81549073ffffffffffffffffffffffffffffffffffffffff02191690555f8173ffffffffffffffffffffffffffffffffffffffff163b1115612d48577f00000000000000000000000000000000000000000000000000000000000000005a1015612cc357612cc263ed43c3a660e01b7bffffffffffffffffffffffffffffffffffffffffffffffffffffffff191661352c565b5b8073ffffffffffffffffffffffffffffffffffffffff1663af45dd147f0000000000000000000000000000000000000000000000000000000000000000846040518363ffffffff1660e01b8152600401612d1d9190616c8e565b5f604051808303815f88803b158015612d34575f80fd5b5087f193505050508015612d46575060015b505b8073ffffffffffffffffffffffffffffffffffffffff16827fa0ebb1de82db929a9153472f37d3a66dbede4436258311ad0f52a35a2c91d15060405160405180910390a35050565b5f612d9a82611635565b73ffffffffffffffffffffffffffffffffffffffff168373ffffffffffffffffffffffffffffffffffffffff161480612e2e57508273ffffffffffffffffffffffffffffffffffffffff1660045f8481526020019081526020015f205f9054906101000a900473ffffffffffffffffffffffffffffffffffffffff1673ffffffffffffffffffffffffffffffffffffffff16145b80612ec2575060055f612e4084611635565b73ffffffffffffffffffffffffffffffffffffffff1673ffffffffffffffffffffffffffffffffffffffff1681526020019081526020015f205f8473ffffffffffffffffffffffffffffffffffffffff1673ffffffffffffffffffffffffffffffffffffffff1681526020019081526020015f205f9054906101000a900460ff165b905092915050565b612ee460095f8381526020019081526020015f2054613534565b60095f8381526020019081526020015f208190555050565b5f808373ffffffffffffffffffffffffffffffffffffffff163b03612f4b57612f4a637c402b2160e01b7bffffffffffffffffffffffffffffffffffffffffffffffffffffffff191661352c565b5b5f808351602085015f875af1905092915050565b5f6390bfb86560e01b9050602080601f3d01040260405182815273ffffffffffffffffffffffffffffffffffffffff861660048201527fffffffff0000000000000000000000000000000000000000000000000000000085166024820152608060448201528160a00160648201523d60848201523d5f60a483013e60048260a4018201527fffffffff0000000000000000000000000000000000000000000000000000000084168260c4018201528160e40181fd5b5f7f8cad95687ba82c2ce50e74f7b754645e5117c3a5bec8151c0726d5857980a8667f0000000000000000000000000000000000000000000000000000000000000000463060405160200161306c949392919061827b565b60405160208183030381529060405280519060200120905090565b5f6040517f6673cb397ee2a50b6b8401653d3638b4ac8b3db9c28aa6870ffceb7574ec2f76815273ffffffffffffffffffffffffffffffffffffffff8616602082015260018516604082015283606082015282608082015260a0812091505f81525f60208201525f60408201525f60608201525f608082015250949350505050565b8060055f8573ffffffffffffffffffffffffffffffffffffffff1673ffffffffffffffffffffffffffffffffffffffff1681526020019081526020015f205f8473ffffffffffffffffffffffffffffffffffffffff1673ffffffffffffffffffffffffffffffffffffffff1681526020019081526020015f205f6101000a81548160ff0219169083151502179055508173ffffffffffffffffffffffffffffffffffffffff168373ffffffffffffffffffffffffffffffffffffffff167f17307eab39ab6107e8899845ad3d59bd9653f200f220920489ca2b5937696c31836040516131f59190616754565b60405180910390a3505050565b5f7f0aedd6bde10e3aa2adec092b02a3e3e805795516cda41f27aa145b8f300af87a5c905090565b807f0aedd6bde10e3aa2adec092b02a3e3e805795516cda41f27aa145b8f300af87a5d50565b5f848490509050828290508114613293576040517faaad13f700000000000000000000000000000000000000000000000000000000815260040160405180910390fd5b5f5b818110156132ff575f8686838181106132b1576132b0617af1565b5b9050013560f81c60f81b60f81c60ff1690506132f1818686858181106132da576132d9617af1565b5b90506020028101906132ec9190617b2a565b613540565b508080600101915050613295565b505050505050565b5f817fffffffffffffffffffffffffffffffffffffffffffffffffff00000000000000169050919050565b6060365f365f6133428787613914565b935093509350935061335684848484613250565b60405180602001604052805f81525094505050505092915050565b5f61337a613202565b905090565b7f000000000000000000000000000000000000000000000000000000000000000073ffffffffffffffffffffffffffffffffffffffff166348c8949183836040518363ffffffff1660e01b81526004016133da9291906182be565b5f604051808303815f875af11580156133f5573d5f803e3d5ffd5b505050506040513d5f823e3d601f19601f8201168201806040525081019061341d919061837e565b505050565b5f604051826026820152836006820152846003820152858152603a600c82012091505f60408201525f60208201525f815250949350505050565b5f60a082209050919050565b5f8061347484846139c3565b90508473ffffffffffffffffffffffffffffffffffffffff16631e2eaeaf826040518263ffffffff1660e01b81526004016134af9190616b92565b602060405180830381865afa1580156134ca573d5f803e3d5ffd5b505050506040513d601f19601f820116820180604052508101906134ee9190618118565b5f1c9150509392505050565b61351460095f8381526020019081526020015f2054613a17565b60095f8381526020019081526020015f208190555050565b805f5260045ffd5b5f600182179050919050565b600b8310156136da575f8303613585575f805f80365f6135608888613a42565b95509550955095509550955061357a868686868686613a85565b50505050505061390f565b600483036135bd575f805f365f61359c8787613b32565b945094509450945094506135b38585858585613b6d565b505050505061390f565b600183036135fa575f805f80365f6135d58888613a42565b9550955095509550955095506135ef868686868686613ccb565b50505050505061390f565b6002830361364e57365f805f805f80365f6136158b8b613d81565b9850985098509850985098509850985098506136408989898989896136398a613de1565b8989613e6a565b50505050505050505061390f565b6005830361369d57365f805f805f365f6136688a8a613f8c565b97509750975097509750975097509750613690888888888861368989613de1565b8888613fe3565b505050505050505061390f565b600383036136d5575f805f365f6136b487876140cc565b945094509450945094506136cb8585858585614107565b505050505061390f565b6138d2565b600d8303613703575f806136ee848461430e565b915091506136fc8282614338565b505061390f565b60118303613739575f805f613718858561436e565b925092509250613731838361372c84613de1565b6143a0565b50505061390f565b600b8303613778575f805f61374e85856143cb565b92509250925061377083613761836143fd565b61376b8587614419565b61449a565b50505061390f565b600e83036137b7575f805f61378d8585614683565b9250925092506137af836137a084613de1565b6137aa84876146b5565b6146e9565b50505061390f565b601283036137db575f6137ca8383614781565b90506137d5816147a2565b5061390f565b60138303613804575f806137ef848461482d565b915091506137fd8282614857565b505061390f565b60148303613835575f80613818848461491d565b9150915061382e8261382983613de1565b614947565b505061390f565b60158303613883575f61384883836149a2565b905061387d6138785f837f00000000000000000000000000000000000000000000000000000000000000006149c3565b614a8b565b5061390f565b601683036138d1575f61389683836149a2565b90506138cb6138c67f0000000000000000000000000000000000000000000000000000000000000000835f6149c3565b614b14565b5061390f565b5b826040517f5cda29d70000000000000000000000000000000000000000000000000000000081526004016139069190616c8e565b60405180910390fd5b505050565b365f365f604086351860608701945063ffffffff6040880135169350606063ffffffe0601f86011601806020890135188217915080880163ffffffff81351693506020810194508360051b805f5b82811015613999578088013582811887179650808901602063ffffffe0601f83350116018085019450505050602081019050613962565b508087018b8b01108517156139b557633b99b53d5f526004601cfd5b505050505092959194509250565b5f806139ce84614ba6565b90505f6006825f1c6139e091906183c5565b5f1b905083816040516020016139f7929190618418565b604051602081830303815290604052805190602001209250505092915050565b5f7fffffffffffffffffffffffffffffffffffffffffffffffffffffffffffffff0082169050919050565b5f805f80365f87359550602088013594506040880135935060608801359250613a7760048989614bda9290919263ffffffff16565b915091509295509295509295565b613a8d611f07565b86613a988282612d90565b613ad957816040517f0ca968d8000000000000000000000000000000000000000000000000000000008152600401613ad0919061684c565b60405180910390fd5b5f80613ae48a611796565b915091505f80613b028385613af88e614c24565b8f5f1b8c8c614c65565b91509150613b248a8a613b158585614d6a565b614daf9092919063ffffffff16565b505050505050505050505050565b5f805f365f863594506020870135935060408701359250613b5f60038888614bda9290919263ffffffff16565b915091509295509295909350565b613b75611f07565b85613b808282612d90565b613bc157816040517f0ca968d8000000000000000000000000000000000000000000000000000000008152600401613bb8919061684c565b60405180910390fd5b5f80613bcc89611796565b915091505f80613c23613bde8561345c565b7f000000000000000000000000000000000000000000000000000000000000000073ffffffffffffffffffffffffffffffffffffffff16614ee490919063ffffffff16565b5050509050613c6c81613c3d613c388661264f565b614fb2565b613c4e613c498761265e565b614fb2565b613c5a885f015161530c565b613c67896020015161530c565b6153a9565b6fffffffffffffffffffffffffffffffff169150505f80613c9b8486613c9186614c24565b8f5f1b8d8d614c65565b91509150613cbd8b8b613cae8585614d6a565b614daf9092919063ffffffff16565b505050505050505050505050565b613cd3611f07565b86613cde8282612d90565b613d1f57816040517f0ca968d8000000000000000000000000000000000000000000000000000000008152600401613d16919061684c565b60405180910390fd5b5f80613d2a8a611796565b915091505f80613d518385613d3e8e614c24565b613d479061844c565b8f5f1b8c8c614c65565b91509150613d738a8a613d648585614d6a565b6154d29092919063ffffffff16565b505050505050505050505050565b365f805f805f80365f8a985060a08b0135975060c08b0135965060e08b013595506101008b013594506101208b013593506101408b01359250613dd0600b8c8c614bda9290919263ffffffff16565b915091509295985092959850929598565b5f600173ffffffffffffffffffffffffffffffffffffffff168273ffffffffffffffffffffffffffffffffffffffff1603613e2557613e1e611f07565b9050613e65565b600273ffffffffffffffffffffffffffffffffffffffff168273ffffffffffffffffffffffffffffffffffffffff1603613e6157309050613e65565b8190505b919050565b5f60085f815480929190600101919050559050613e8784826155f9565b5f613ea38b803603810190613e9c919061851f565b8b8b6157ff565b90508060095f8481526020019081526020015f20819055505f613ec582613307565b90505f600a5f8366ffffffffffffff191666ffffffffffffff191681526020019081526020015f2060010160179054906101000a900460020b60020b03613f3c578b600a5f8366ffffffffffffff191666ffffffffffffff191681526020019081526020015f208181613f389190618824565b9050505b5f613f65838e803603810190613f52919061851f565b613f5b8d614c24565b875f1b8a8a614c65565b509050613f7d898983614daf9092919063ffffffff16565b50505050505050505050505050565b365f805f805f365f89975060a08a0135965060c08a0135955060e08a013594506101008a013593506101208a01359250613fd2600a8b8b614bda9290919263ffffffff16565b915091509295985092959890939650565b5f6140456140008a803603810190613ffb919061851f565b61345c565b7f000000000000000000000000000000000000000000000000000000000000000073ffffffffffffffffffffffffffffffffffffffff16614ee490919063ffffffff16565b50505090505f61409b826140588b614fb2565b6140618b614fb2565b61407b8e5f0160208101906140769190618832565b61530c565b6140968f60200160208101906140919190618832565b61530c565b6153a9565b6fffffffffffffffffffffffffffffffff1690506140c08a8a8a848b8b8b8b8b613e6a565b50505050505050505050565b5f805f365f8635945060208701359350604087013592506140f960038888614bda9290919263ffffffff16565b915091509295509295909350565b61410f611f07565b8561411a8282612d90565b61415b57816040517f0ca968d8000000000000000000000000000000000000000000000000000000008152600401614152919061684c565b60405180910390fd5b5f8061416689611796565b915091505f6141878a846141798561264f565b6141828661265e565b61266d565b6fffffffffffffffffffffffffffffffff1690505f6141a58b611635565b90505f60095f8d81526020019081526020015f20819055506141c68b61584d565b5f808311156142e4575f8060405180608001604052806141e58861264f565b60020b81526020016141f68861265e565b60020b815260200161420787614c24565b6142109061844c565b81526020018f5f1b81525090507f000000000000000000000000000000000000000000000000000000000000000073ffffffffffffffffffffffffffffffffffffffff16635a6bcfda88838e8e6040518563ffffffff1660e01b815260040161427c94939291906188ce565b60408051808303815f875af1158015614297573d5f803e3d5ffd5b505050506040513d601f19601f820116820180604052508101906142bb9190618938565b80945081935050506142e18d8d6142d28587614d6a565b6154d29092919063ffffffff16565b50505b6142ed84612b6b565b15614300576142ff8c83868685615a01565b5b505050505050505050505050565b5f80604083101561432657633b99b53d5f526004601cfd5b83359150602084013590509250929050565b5f614341611f07565b9050614356838261435186615b1a565b61449a565b614369828261436485615b1a565b61449a565b505050565b5f805f606084101561438757633b99b53d5f526004601cfd5b8435925060208501359150604085013590509250925092565b6143b383826143ae8661530c565b6146e9565b6143c682826143c18561530c565b6146e9565b505050565b5f805f60608410156143e457633b99b53d5f526004601cfd5b8435925060208501359150604085013590509250925092565b5f816144095730614412565b614411611f07565b5b9050919050565b5f7f80000000000000000000000000000000000000000000000000000000000000008303614467576144608273ffffffffffffffffffffffffffffffffffffffff16615bc0565b9050614494565b5f6fffffffffffffffffffffffffffffffff1683036144905761448982615b1a565b9050614494565b8290505b92915050565b5f81031561467e577f000000000000000000000000000000000000000000000000000000000000000073ffffffffffffffffffffffffffffffffffffffff1663a5841194846040518263ffffffff1660e01b81526004016144fb9190618976565b5f604051808303815f87803b158015614512575f80fd5b505af1158015614524573d5f803e3d5ffd5b505050506145478373ffffffffffffffffffffffffffffffffffffffff16615c6d565b156145e2577f000000000000000000000000000000000000000000000000000000000000000073ffffffffffffffffffffffffffffffffffffffff166311da60b4826040518263ffffffff1660e01b815260040160206040518083038185885af11580156145b7573d5f803e3d5ffd5b50505050506040513d601f19601f820116820180604052508101906145dc91906189a3565b5061467d565b6145ed838383615ca4565b7f000000000000000000000000000000000000000000000000000000000000000073ffffffffffffffffffffffffffffffffffffffff166311da60b46040518163ffffffff1660e01b81526004016020604051808303815f875af1158015614657573d5f803e3d5ffd5b505050506040513d601f19601f8201168201806040525081019061467b91906189a3565b505b5b505050565b5f805f606084101561469c57633b99b53d5f526004601cfd5b8435925060208501359150604085013590509250925092565b5f806fffffffffffffffffffffffffffffffff1683036146df576146d88261530c565b90506146e3565b8290505b92915050565b5f81031561477c577f000000000000000000000000000000000000000000000000000000000000000073ffffffffffffffffffffffffffffffffffffffff16630b0d9c098484846040518463ffffffff1660e01b815260040161474e939291906189ce565b5f604051808303815f87803b158015614765575f80fd5b505af1158015614777573d5f803e3d5ffd5b505050505b505050565b5f602082101561479857633b99b53d5f526004601cfd5b8235905092915050565b5f6147ee30837f000000000000000000000000000000000000000000000000000000000000000073ffffffffffffffffffffffffffffffffffffffff16615dd99092919063ffffffff16565b90505f6147f9611f07565b90505f82121561481c576148178382846148129061844c565b61449a565b614828565b6148278382846146e9565b5b505050565b5f80604083101561484557633b99b53d5f526004601cfd5b83359150602084013590509250929050565b5f6148618361530c565b90505f81036148705750614919565b818111614904577f000000000000000000000000000000000000000000000000000000000000000073ffffffffffffffffffffffffffffffffffffffff166380f0b44c84836040518363ffffffff1660e01b81526004016148d2929190618a03565b5f604051808303815f87803b1580156148e9575f80fd5b505af11580156148fb573d5f803e3d5ffd5b50505050614917565b61491683614910611f07565b836146e9565b5b505b5050565b5f80604083101561493557633b99b53d5f526004601cfd5b83359150602084013590509250929050565b5f6149678373ffffffffffffffffffffffffffffffffffffffff16615bc0565b90505f81111561499d5761499c82828573ffffffffffffffffffffffffffffffffffffffff16615e989092919063ffffffff16565b5b505050565b5f60208210156149b957633b99b53d5f526004601cfd5b8235905092915050565b5f806149ee308673ffffffffffffffffffffffffffffffffffffffff16615f7f90919063ffffffff16565b90507f80000000000000000000000000000000000000000000000000000000000000008403614a205780915050614a84565b5f6fffffffffffffffffffffffffffffffff168403614a4557614a4283615b1a565b93505b80841115614a7f576040517ff4d678b800000000000000000000000000000000000000000000000000000000815260040160405180910390fd5b839150505b9392505050565b5f811115614b11577f000000000000000000000000000000000000000000000000000000000000000073ffffffffffffffffffffffffffffffffffffffff1663d0e30db0826040518263ffffffff1660e01b81526004015f604051808303818588803b158015614af9575f80fd5b505af1158015614b0b573d5f803e3d5ffd5b50505050505b50565b5f811115614ba3577f000000000000000000000000000000000000000000000000000000000000000073ffffffffffffffffffffffffffffffffffffffff16632e1a7d4d826040518263ffffffff1660e01b8152600401614b759190616c8e565b5f604051808303815f87803b158015614b8c575f80fd5b505af1158015614b9e573d5f803e3d5ffd5b505050505b50565b5f8160065f1b604051602001614bbd929190618418565b604051602081830303815290604052805190602001209050919050565b365f8063ffffffff8460051b87013516860163ffffffff8135169150602081018293508094508083018888011015614c1957633b99b53d5f526004601cfd5b505050935093915050565b5f8190505f811215614c6057614c5f6393dafdf160e01b7bffffffffffffffffffffffffffffffffffffffffffffffffffffffff191661352c565b5b919050565b5f807f000000000000000000000000000000000000000000000000000000000000000073ffffffffffffffffffffffffffffffffffffffff16635a6bcfda886040518060800160405280614cb88d61264f565b60020b8152602001614cc98d61265e565b60020b81526020018a81526020018981525087876040518563ffffffff1660e01b8152600401614cfc94939291906188ce565b60408051808303815f875af1158015614d17573d5f803e3d5ffd5b505050506040513d601f19601f82011682018060405250810190614d3b9190618938565b8092508193505050614d4c88612b6b565b15614d5f57614d5e855f1c8783616044565b5b965096945050505050565b5f805f8460801d85600f0b8560801d86600f0b8184039550808303945050505050614da5614d9783616124565b614da083616124565b616167565b9250505092915050565b5f614db98461617e565b600f0b90505f614dc88561618a565b600f0b90505f82128015614e08575081614de19061844c565b6fffffffffffffffffffffffffffffffff16846fffffffffffffffffffffffffffffffff16105b15614e55578382614e189061844c565b6040517f31e30ad0000000000000000000000000000000000000000000000000000000008152600401614e4c929190618a2a565b60405180910390fd5b5f81128015614e90575080614e699061844c565b6fffffffffffffffffffffffffffffffff16836fffffffffffffffffffffffffffffffff16105b15614edd578281614ea09061844c565b6040517f31e30ad0000000000000000000000000000000000000000000000000000000008152600401614ed4929190618a2a565b60405180910390fd5b5050505050565b5f805f805f614ef286614ba6565b90505f8773ffffffffffffffffffffffffffffffffffffffff16631e2eaeaf836040518263ffffffff1660e01b8152600401614f2e9190616b92565b602060405180830381865afa158015614f49573d5f803e3d5ffd5b505050506040513d601f19601f82011682018060405250810190614f6d9190618118565b905073ffffffffffffffffffffffffffffffffffffffff811695508060a01c60020b945062ffffff8160b81c16935062ffffff8160d01c169250505092959194509250565b5f808260020b92508260ff1d8381018118915050620d89e860020b81111561500e5761500d83638b86327a60e01b7bffffffffffffffffffffffffffffffffffffffffffffffffffffffff191661619690919063ffffffff16565b5b5f600182166ffffcb933bd6fad37aa2d162d1a594001600160801b1802600160801b1890505f60028316146150575760806ffff97272373d413259a46990580e213a8202901c90505b5f600483161461507b5760806ffff2e50f5f656932ef12357cf3c7fdcc8202901c90505b5f600883161461509f5760806fffe5caca7e10e4e61c3624eaa0941cd08202901c90505b5f60108316146150c35760806fffcb9843d60f6159c9db58835c9266448202901c90505b5f60208316146150e75760806fff973b41fa98c081472e6896dfb254c08202901c90505b5f604083161461510b5760806fff2ea16466c96a3843ec78b326b528618202901c90505b5f608083161461512f5760806ffe5dee046a99a2a811c461f1969c30538202901c90505b5f6101008316146151545760806ffcbe86c7900a88aedcffc83b479aa3a48202901c90505b5f6102008316146151795760806ff987a7253ac413176f2b074cf7815e548202901c90505b5f61040083161461519e5760806ff3392b0822b70005940c7a398e4b70f38202901c90505b5f6108008316146151c35760806fe7159475a2c29b7443b29c7fa6e889d98202901c90505b5f6110008316146151e85760806fd097f3bdfd2022b8845ad8f792aa58258202901c90505b5f61200083161461520d5760806fa9f746462d870fdf8a65dc1f90e061e58202901c90505b5f6140008316146152325760806f70d869a156d2a1b890bb3df62baf32f78202901c90505b5f6180008316146152575760806f31be135f97d08fd981231505542fcfa68202901c90505b5f6201000083161461527d5760806f09aa508b5b7a84e1c677de54f3e99bc98202901c90505b5f620200008316146152a25760806e5d6af8dedb81196699c329225ee6048202901c90505b5f620400008316146152c65760806d2216e584f5fa1ea926041bedfe988202901c90505b5f620800008316146152e85760806b048a170391f7dc42444e8fa28202901c90505b5f8413156152f757805f190490505b60018060201b03810160201c92505050919050565b5f8061535930847f000000000000000000000000000000000000000000000000000000000000000073ffffffffffffffffffffffffffffffffffffffff16615dd99092919063ffffffff16565b90505f8112156153a057826040517f4c085bf10000000000000000000000000000000000000000000000000000000081526004016153979190618976565b60405180910390fd5b80915050919050565b5f8373ffffffffffffffffffffffffffffffffffffffff168573ffffffffffffffffffffffffffffffffffffffff1611156153e957838580955081965050505b8473ffffffffffffffffffffffffffffffffffffffff168673ffffffffffffffffffffffffffffffffffffffff161161542e576154278585856161a5565b90506154c9565b8373ffffffffffffffffffffffffffffffffffffffff168673ffffffffffffffffffffffffffffffffffffffff1610156154ba575f61546e8786866161a5565b90505f61547c878986616261565b9050806fffffffffffffffffffffffffffffffff16826fffffffffffffffffffffffffffffffff16106154af57806154b1565b815b925050506154c8565b6154c5858584616261565b90505b5b95945050505050565b816fffffffffffffffffffffffffffffffff166154f96154f18561617e565b600f0b6162e2565b6fffffffffffffffffffffffffffffffff161015615563578161552661551e8561617e565b600f0b6162e2565b6040517f12816f2200000000000000000000000000000000000000000000000000000000815260040161555a929190618a2a565b60405180910390fd5b806fffffffffffffffffffffffffffffffff1661558a6155828561618a565b600f0b6162e2565b6fffffffffffffffffffffffffffffffff1610156155f457806155b76155af8561618a565b600f0b6162e2565b6040517f12816f220000000000000000000000000000000000000000000000000000000081526004016155eb929190618a2a565b60405180910390fd5b505050565b5f73ffffffffffffffffffffffffffffffffffffffff168273ffffffffffffffffffffffffffffffffffffffff1603615667576040517f08c379a000000000000000000000000000000000000000000000000000000000815260040161565e906181f5565b60405180910390fd5b5f73ffffffffffffffffffffffffffffffffffffffff1660025f8381526020019081526020015f205f9054906101000a900473ffffffffffffffffffffffffffffffffffffffff1673ffffffffffffffffffffffffffffffffffffffff1614615705576040517f08c379a00000000000000000000000000000000000000000000000000000000081526004016156fc90618a9b565b60405180910390fd5b60035f8373ffffffffffffffffffffffffffffffffffffffff1673ffffffffffffffffffffffffffffffffffffffff1681526020019081526020015f205f81548092919060010191905055508160025f8381526020019081526020015f205f6101000a81548173ffffffffffffffffffffffffffffffffffffffff021916908373ffffffffffffffffffffffffffffffffffffffff160217905550808273ffffffffffffffffffffffffffffffffffffffff165f73ffffffffffffffffffffffffffffffffffffffff167fddf252ad1be2c89b69c2b068fc378daa952ba7f163c4a11628f55a4df523b3ef60405160405180910390a45050565b5f8061580a8561345c565b90508362ffffff1660081b8362ffffff1660201b827fffffffffffffffffffffffffffffffffffffffffffffffffff000000000000001617179150509392505050565b5f60025f8381526020019081526020015f205f9054906101000a900473ffffffffffffffffffffffffffffffffffffffff1690505f73ffffffffffffffffffffffffffffffffffffffff168173ffffffffffffffffffffffffffffffffffffffff16036158ef576040517f08c379a00000000000000000000000000000000000000000000000000000000081526004016158e690617a3e565b60405180910390fd5b60035f8273ffffffffffffffffffffffffffffffffffffffff1673ffffffffffffffffffffffffffffffffffffffff1681526020019081526020015f205f81548092919060019003919050555060025f8381526020019081526020015f205f6101000a81549073ffffffffffffffffffffffffffffffffffffffff021916905560045f8381526020019081526020015f205f6101000a81549073ffffffffffffffffffffffffffffffffffffffff0219169055815f73ffffffffffffffffffffffffffffffffffffffff168273ffffffffffffffffffffffffffffffffffffffff167fddf252ad1be2c89b69c2b068fc378daa952ba7f163c4a11628f55a4df523b3ef60405160405180910390a45050565b5f60075f8781526020019081526020015f205f9054906101000a900473ffffffffffffffffffffffffffffffffffffffff16905060075f8781526020019081526020015f205f6101000a81549073ffffffffffffffffffffffffffffffffffffffff02191690555f615ad0828888888888604051602401615a86959493929190618ae9565b60405160208183030381529060405263b1a9116f60e01b6020820180517bffffffffffffffffffffffffffffffffffffffffffffffffffffffff8381831617835250505050612efc565b905080615b1157615b1063b1a9116f60e01b63ace9448160e01b8473ffffffffffffffffffffffffffffffffffffffff16612f5f9092919063ffffffff16565b5b50505050505050565b5f80615b6730847f000000000000000000000000000000000000000000000000000000000000000073ffffffffffffffffffffffffffffffffffffffff16615dd99092919063ffffffff16565b90505f811315615bae57826040517f3351b260000000000000000000000000000000000000000000000000000000008152600401615ba59190618976565b60405180910390fd5b80615bb89061844c565b915050919050565b5f615be08273ffffffffffffffffffffffffffffffffffffffff16615c6d565b15615bed57479050615c68565b8173ffffffffffffffffffffffffffffffffffffffff166370a08231306040518263ffffffff1660e01b8152600401615c26919061684c565b602060405180830381865afa158015615c41573d5f803e3d5ffd5b505050506040513d601f19601f82011682018060405250810190615c6591906189a3565b90505b919050565b5f8073ffffffffffffffffffffffffffffffffffffffff168273ffffffffffffffffffffffffffffffffffffffff16149050919050565b3073ffffffffffffffffffffffffffffffffffffffff168273ffffffffffffffffffffffffffffffffffffffff1603615d2757615d227f0000000000000000000000000000000000000000000000000000000000000000828573ffffffffffffffffffffffffffffffffffffffff16615e989092919063ffffffff16565b615dd4565b7f000000000000000000000000000000000000000000000000000000000000000073ffffffffffffffffffffffffffffffffffffffff166336c78516837f000000000000000000000000000000000000000000000000000000000000000084876040518563ffffffff1660e01b8152600401615da69493929190618b3a565b5f604051808303815f87803b158015615dbd575f80fd5b505af1158015615dcf573d5f803e3d5ffd5b505050505b505050565b5f8073ffffffffffffffffffffffffffffffffffffffff84165f5273ffffffffffffffffffffffffffffffffffffffff831660205260405f2090508473ffffffffffffffffffffffffffffffffffffffff1663f135baaa826040518263ffffffff1660e01b8152600401615e4d9190616b92565b602060405180830381865afa158015615e68573d5f803e3d5ffd5b505050506040513d601f19601f82011682018060405250810190615e8c9190618118565b5f1c9150509392505050565b5f615eb88473ffffffffffffffffffffffffffffffffffffffff16615c6d565b15615ee7575f805f8085875af1905080615ee257615ee1835f60e01b63f4b3b1bc60e01b612f5f565b5b615f79565b6040517fa9059cbb00000000000000000000000000000000000000000000000000000000815273ffffffffffffffffffffffffffffffffffffffff8416600482015282602482015260205f6044835f895af13d15601f3d1160015f511416171691505f81525f60208201525f60408201525080615f7857615f778463a9059cbb60e01b63f27f64e460e01b612f5f565b5b5b50505050565b5f615f9f8373ffffffffffffffffffffffffffffffffffffffff16615c6d565b15615fc3578173ffffffffffffffffffffffffffffffffffffffff1631905061603e565b8273ffffffffffffffffffffffffffffffffffffffff166370a08231836040518263ffffffff1660e01b8152600401615ffc919061684c565b602060405180830381865afa158015616017573d5f803e3d5ffd5b505050506040513d601f19601f8201168201806040525081019061603b91906189a3565b90505b92915050565b5f60075f8581526020019081526020015f205f9054906101000a900473ffffffffffffffffffffffffffffffffffffffff1690505f6160dc8286868660405160240161609293929190618b8c565b60405160208183030381529060405263d8865c2760e01b6020820180517bffffffffffffffffffffffffffffffffffffffffffffffffffffffff8381831617835250505050612efc565b90508061611d5761611c63d8865c2760e01b63e94f10e260e01b8473ffffffffffffffffffffffffffffffffffffffff16612f5f9092919063ffffffff16565b5b5050505050565b5f8190508181600f0b14616162576161616393dafdf160e01b7bffffffffffffffffffffffffffffffffffffffffffffffffffffffff191661352c565b5b919050565b5f8160018060801b03168360801b17905092915050565b5f8160801d9050919050565b5f81600f0b9050919050565b815f528060020b60045260245ffd5b5f8273ffffffffffffffffffffffffffffffffffffffff168473ffffffffffffffffffffffffffffffffffffffff1611156161e557828480945081955050505b5f61622a8573ffffffffffffffffffffffffffffffffffffffff168573ffffffffffffffffffffffffffffffffffffffff166c01000000000000000000000000616326565b9050616257616252848388880373ffffffffffffffffffffffffffffffffffffffff16616326565b6163e9565b9150509392505050565b5f8273ffffffffffffffffffffffffffffffffffffffff168473ffffffffffffffffffffffffffffffffffffffff1611156162a157828480945081955050505b6162d96162d4836c0100000000000000000000000087870373ffffffffffffffffffffffffffffffffffffffff16616326565b6163e9565b90509392505050565b5f8082600f0b121561631e5761631d6393dafdf160e01b7bffffffffffffffffffffffffffffffffffffffffffffffffffffffff191661352c565b5b819050919050565b5f8083850290505f801985870982811083820303915050808411616348575f80fd5b5f810361635b57838204925050506163e2565b5f8486880990508281118203915080830392505f85865f0316905080860495508084049350600181825f0304019050808302841793505f600287600302189050808702600203810290508087026002038102905080870260020381029050808702600203810290508087026002038102905080870260020381029050808502955050505050505b9392505050565b5f819050806fffffffffffffffffffffffffffffffff168214616436576164356393dafdf160e01b7bffffffffffffffffffffffffffffffffffffffffffffffffffffffff191661352c565b5b919050565b6040518060a001604052805f73ffffffffffffffffffffffffffffffffffffffff1681526020015f73ffffffffffffffffffffffffffffffffffffffff1681526020015f62ffffff1681526020015f60020b81526020015f73ffffffffffffffffffffffffffffffffffffffff1681525090565b5f604051905090565b5f80fd5b5f80fd5b5f73ffffffffffffffffffffffffffffffffffffffff82169050919050565b5f6164e9826164c0565b9050919050565b6164f9816164df565b8114616503575f80fd5b50565b5f81359050616514816164f0565b92915050565b5f80fd5b5f606082840312156165335761653261651a565b5b81905092915050565b5f80fd5b5f80fd5b5f80fd5b5f8083601f84011261655d5761655c61653c565b5b8235905067ffffffffffffffff81111561657a57616579616540565b5b60208301915083600182028301111561659657616595616544565b5b9250929050565b5f805f80606085870312156165b5576165b46164b8565b5b5f6165c287828801616506565b945050602085013567ffffffffffffffff8111156165e3576165e26164bc565b5b6165ef8782880161651e565b935050604085013567ffffffffffffffff8111156166105761660f6164bc565b5b61661c87828801616548565b925092505092959194509250565b5f81519050919050565b5f82825260208201905092915050565b8281835e5f83830152505050565b5f601f19601f8301169050919050565b5f61666c8261662a565b6166768185616634565b9350616686818560208601616644565b61668f81616652565b840191505092915050565b5f6020820190508181035f8301526166b28184616662565b905092915050565b5f7fffffffff0000000000000000000000000000000000000000000000000000000082169050919050565b6166ee816166ba565b81146166f8575f80fd5b50565b5f81359050616709816166e5565b92915050565b5f60208284031215616724576167236164b8565b5b5f616731848285016166fb565b91505092915050565b5f8115159050919050565b61674e8161673a565b82525050565b5f6020820190506167675f830184616745565b92915050565b5f819050919050565b61677f8161676d565b8114616789575f80fd5b50565b5f8135905061679a81616776565b92915050565b5f602082840312156167b5576167b46164b8565b5b5f6167c28482850161678c565b91505092915050565b5f81519050919050565b5f82825260208201905092915050565b5f6167ef826167cb565b6167f981856167d5565b9350616809818560208601616644565b61681281616652565b840191505092915050565b5f6020820190508181035f83015261683581846167e5565b905092915050565b616846816164df565b82525050565b5f60208201905061685f5f83018461683d565b92915050565b5f806040838503121561687b5761687a6164b8565b5b5f61688885828601616506565b92505060206168998582860161678c565b9150509250929050565b5f805f805f8060a087890312156168bd576168bc6164b8565b5b5f6168ca89828a01616506565b96505060206168db89828a0161678c565b95505060406168ec89828a0161678c565b94505060606168fd89828a0161678c565b935050608087013567ffffffffffffffff81111561691e5761691d6164bc565b5b61692a89828a01616548565b92509250509295509295509295565b5f819050919050565b5f61695c616957616952846164c0565b616939565b6164c0565b9050919050565b5f61696d82616942565b9050919050565b5f61697e82616963565b9050919050565b61698e81616974565b82525050565b5f6020820190506169a75f830184616985565b92915050565b5f6169b782616963565b9050919050565b6169c7816169ad565b82525050565b5f6020820190506169e05f8301846169be565b92915050565b5f6fffffffffffffffffffffffffffffffff82169050919050565b616a0a816169e6565b82525050565b5f602082019050616a235f830184616a01565b92915050565b5f805f60608486031215616a4057616a3f6164b8565b5b5f616a4d86828701616506565b9350506020616a5e86828701616506565b9250506040616a6f8682870161678c565b9150509250925092565b5f60c08284031215616a8e57616a8d61651a565b5b81905092915050565b5f805f806101008587031215616ab057616aaf6164b8565b5b5f616abd87828801616506565b9450506020616ace87828801616a79565b93505060e085013567ffffffffffffffff811115616aef57616aee6164bc565b5b616afb87828801616548565b925092505092959194509250565b5f805f8060608587031215616b2157616b206164b8565b5b5f616b2e8782880161678c565b9450506020616b3f87828801616506565b935050604085013567ffffffffffffffff811115616b6057616b5f6164bc565b5b616b6c87828801616548565b925092505092959194509250565b5f819050919050565b616b8c81616b7a565b82525050565b5f602082019050616ba55f830184616b83565b92915050565b616bb48161673a565b8114616bbe575f80fd5b50565b5f81359050616bcf81616bab565b92915050565b5f805f805f805f60c0888a031215616bf057616bef6164b8565b5b5f616bfd8a828b01616506565b9750506020616c0e8a828b01616506565b9650506040616c1f8a828b01616bc1565b9550506060616c308a828b0161678c565b9450506080616c418a828b0161678c565b93505060a088013567ffffffffffffffff811115616c6257616c616164bc565b5b616c6e8a828b01616548565b925092505092959891949750929550565b616c888161676d565b82525050565b5f602082019050616ca15f830184616c7f565b92915050565b5f616cb182616963565b9050919050565b616cc181616ca7565b82525050565b5f602082019050616cda5f830184616cb8565b92915050565b5f8083601f840112616cf557616cf461653c565b5b8235905067ffffffffffffffff811115616d1257616d11616540565b5b602083019150836020820283011115616d2e57616d2d616544565b5b9250929050565b5f805f8060408587031215616d4d57616d4c6164b8565b5b5f85013567ffffffffffffffff811115616d6a57616d696164bc565b5b616d7687828801616548565b9450945050602085013567ffffffffffffffff811115616d9957616d986164bc565b5b616da587828801616ce0565b925092505092959194509250565b5f616dbd82616963565b9050919050565b616dcd81616db3565b82525050565b5f602082019050616de65f830184616dc4565b92915050565b5f60208284031215616e0157616e006164b8565b5b5f616e0e84828501616506565b91505092915050565b5f616e2182616963565b9050919050565b616e3181616e17565b82525050565b5f62ffffff82169050919050565b616e4e81616e37565b82525050565b5f8160020b9050919050565b616e6981616e54565b82525050565b5f616e7982616963565b9050919050565b616e8981616e6f565b82525050565b60a082015f820151616ea35f850182616e28565b506020820151616eb66020850182616e28565b506040820151616ec96040850182616e45565b506060820151616edc6060850182616e60565b506080820151616eef6080850182616e80565b50505050565b5f616f0f616f0a616f058461676d565b616939565b61676d565b9050919050565b616f1f81616ef5565b82525050565b5f60c082019050616f385f830185616e8f565b616f4560a0830184616f16565b9392505050565b5f7fffffffffffffffffffffffffffffffffffffffffffffffffff0000000000000082169050919050565b616f8081616f4c565b8114616f8a575f80fd5b50565b5f81359050616f9b81616f77565b92915050565b5f60208284031215616fb657616fb56164b8565b5b5f616fc384828501616f8d565b91505092915050565b616fd581616e17565b82525050565b616fe481616e37565b82525050565b616ff381616e54565b82525050565b61700281616e6f565b82525050565b5f60a08201905061701b5f830188616fcc565b6170286020830187616fcc565b6170356040830186616fdb565b6170426060830185616fea565b61704f6080830184616ff9565b9695505050505050565b5f60208201905061706c5f830184616f16565b92915050565b5f8060208385031215617088576170876164b8565b5b5f83013567ffffffffffffffff8111156170a5576170a46164bc565b5b6170b185828601616548565b92509250509250929050565b5f80604083850312156170d3576170d26164b8565b5b5f6170e085828601616506565b92505060206170f185828601616bc1565b9150509250929050565b5f8060208385031215617111576171106164b8565b5b5f83013567ffffffffffffffff81111561712e5761712d6164bc565b5b61713a85828601616ce0565b92509250509250929050565b5f81519050919050565b5f82825260208201905092915050565b5f819050602082019050919050565b5f82825260208201905092915050565b5f6171898261662a565b617193818561716f565b93506171a3818560208601616644565b6171ac81616652565b840191505092915050565b5f6171c2838361717f565b905092915050565b5f602082019050919050565b5f6171e082617146565b6171ea8185617150565b9350836020820285016171fc85617160565b805f5b85811015617237578484038952815161721885826171b7565b9450617223836171ca565b925060208a019950506001810190506171ff565b50829750879550505050505092915050565b5f6020820190508181035f83015261726181846171d6565b905092915050565b5f805f805f60808688031215617282576172816164b8565b5b5f61728f88828901616506565b95505060206172a088828901616506565b94505060406172b18882890161678c565b935050606086013567ffffffffffffffff8111156172d2576172d16164bc565b5b6172de88828901616548565b92509250509295509295909350565b5f6172f782616963565b9050919050565b617307816172ed565b82525050565b5f6020820190506173205f8301846172fe565b92915050565b5f805f6040848603121561733d5761733c6164b8565b5b5f84013567ffffffffffffffff81111561735a576173596164bc565b5b61736686828701616548565b935093505060206173798682870161678c565b9150509250925092565b5f8060408385031215617399576173986164b8565b5b5f6173a685828601616506565b92505060206173b785828601616506565b9150509250929050565b5f60a082840312156173d6576173d561651a565b5b81905092915050565b6173e8816164c0565b81146173f2575f80fd5b50565b5f81359050617403816173df565b92915050565b5f8060c0838503121561741f5761741e6164b8565b5b5f61742c858286016173c1565b92505060a061743d858286016173f5565b9150509250929050565b5f60208201905061745a5f830184616fea565b92915050565b5f80fd5b5f80fd5b5f80fd5b5f808335600160200384360303811261748857617487617468565b5b83810192508235915060208301925067ffffffffffffffff8211156174b0576174af617460565b5b6080820236038313156174c6576174c5617464565b5b509250929050565b5f82825260208201905092915050565b5f819050919050565b5f6174f56020840184616506565b905092915050565b617506816164df565b82525050565b5f61751a60208401846173f5565b905092915050565b61752b816164c0565b82525050565b5f65ffffffffffff82169050919050565b61754b81617531565b8114617555575f80fd5b50565b5f8135905061756681617542565b92915050565b5f61757a6020840184617558565b905092915050565b61758b81617531565b82525050565b608082016175a15f8301836174e7565b6175ad5f8501826174fd565b506175bb602083018361750c565b6175c86020850182617522565b506175d6604083018361756c565b6175e36040850182617582565b506175f1606083018361756c565b6175fe6060850182617582565b50505050565b5f61760f8383617591565b60808301905092915050565b5f82905092915050565b5f608082019050919050565b5f61763c83856174ce565b9350617647826174de565b805f5b8581101561767f5761765c828461761b565b6176668882617604565b975061767183617625565b92505060018101905061764a565b5085925050509392505050565b5f61769a602084018461678c565b905092915050565b6176ab8161676d565b82525050565b5f606083016176c25f84018461746c565b8583035f8701526176d4838284617631565b925050506176e560208401846174e7565b6176f260208601826174fd565b50617700604084018461768c565b61770d60408601826176a2565b508091505092915050565b828183375f83830152505050565b5f6177318385616634565b935061773e838584617718565b61774783616652565b840190509392505050565b5f6060820190506177655f83018761683d565b818103602083015261777781866176b1565b9050818103604083015261778c818486617726565b905095945050505050565b7f4e487b71000000000000000000000000000000000000000000000000000000005f52602260045260245ffd5b5f60028204905060018216806177db57607f821691505b6020821081036177ee576177ed617797565b5b50919050565b60c082016178045f83018361761b565b6178105f850182617591565b5061781e60808301836174e7565b61782b60808501826174fd565b5061783960a083018361768c565b61784660a08501826176a2565b50505050565b5f610100820190506178605f83018761683d565b61786d60208301866177f4565b81810360e0830152617880818486617726565b905095945050505050565b5f60408201905061789e5f830185616c7f565b6178ab602083018461683d565b9392505050565b5f6040820190506178c55f830186616c7f565b81810360208301526178d8818486617726565b9050949350505050565b50565b5f6178f05f83616634565b91506178fb826178e2565b5f82019050919050565b5f6080820190506179185f83018661683d565b617925602083018561683d565b6179326040830184616c7f565b8181036060830152617943816178e5565b9050949350505050565b5f8151905061795b816166e5565b92915050565b5f60208284031215617976576179756164b8565b5b5f6179838482850161794d565b91505092915050565b7f554e534146455f524543495049454e54000000000000000000000000000000005f82015250565b5f6179c06010836167d5565b91506179cb8261798c565b602082019050919050565b5f6020820190508181035f8301526179ed816179b4565b9050919050565b7f4e4f545f4d494e544544000000000000000000000000000000000000000000005f82015250565b5f617a28600a836167d5565b9150617a33826179f4565b602082019050919050565b5f6020820190508181035f830152617a5581617a1c565b9050919050565b7f5a45524f5f4144445245535300000000000000000000000000000000000000005f82015250565b5f617a90600c836167d5565b9150617a9b82617a5c565b602082019050919050565b5f6020820190508181035f830152617abd81617a84565b9050919050565b7f4e487b71000000000000000000000000000000000000000000000000000000005f52604160045260245ffd5b7f4e487b71000000000000000000000000000000000000000000000000000000005f52603260045260245ffd5b5f80fd5b5f80fd5b5f80fd5b5f8083356001602003843603038112617b4657617b45617b1e565b5b80840192508235915067ffffffffffffffff821115617b6857617b67617b22565b5b602083019250600182023603831315617b8457617b83617b26565b5b509250929050565b5f81905092915050565b5f617ba18385617b8c565b9350617bae838584617718565b82840190509392505050565b5f617bc6828486617b96565b91508190509392505050565b5f608082019050617be55f83018861683d565b617bf2602083018761683d565b617bff6040830186616c7f565b8181036060830152617c12818486617726565b90509695505050505050565b5f617c2882616963565b9050919050565b617c3881617c1e565b82525050565b5f604082019050617c515f830185617c2f565b617c5e6020830184616c7f565b9392505050565b5f80fd5b617c7282616652565b810181811067ffffffffffffffff82111715617c9157617c90617ac4565b5b80604052505050565b5f617ca36164af565b9050617caf8282617c69565b919050565b5f67ffffffffffffffff821115617cce57617ccd617ac4565b5b617cd782616652565b9050602081019050919050565b5f617cf6617cf184617cb4565b617c9a565b905082815260208101848484011115617d1257617d11617c65565b5b617d1d848285616644565b509392505050565b5f82601f830112617d3957617d3861653c565b5b8151617d49848260208601617ce4565b91505092915050565b5f60208284031215617d6757617d666164b8565b5b5f82015167ffffffffffffffff811115617d8457617d836164bc565b5b617d9084828501617d25565b91505092915050565b617da2816164df565b8114617dac575f80fd5b50565b5f81359050617dbd81617d99565b92915050565b5f617dd16020840184617daf565b905092915050565b617de281616e37565b8114617dec575f80fd5b50565b5f81359050617dfd81617dd9565b92915050565b5f617e116020840184617def565b905092915050565b617e2281616e54565b8114617e2c575f80fd5b50565b5f81359050617e3d81617e19565b92915050565b5f617e516020840184617e2f565b905092915050565b5f617e63826164df565b9050919050565b617e7381617e59565b8114617e7d575f80fd5b50565b5f81359050617e8e81617e6a565b92915050565b5f617ea26020840184617e80565b905092915050565b60a08201617eba5f830183617dc3565b617ec65f850182616e28565b50617ed46020830183617dc3565b617ee16020850182616e28565b50617eef6040830183617e03565b617efc6040850182616e45565b50617f0a6060830183617e43565b617f176060850182616e60565b50617f256080830183617e94565b617f326080850182616e80565b50505050565b617f41816164c0565b82525050565b5f60c082019050617f5a5f830185617eaa565b617f6760a0830184617f38565b9392505050565b5f81519050617f7c81617e19565b92915050565b5f60208284031215617f9757617f966164b8565b5b5f617fa484828501617f6e565b91505092915050565b617fb681616b7a565b8114617fc0575f80fd5b50565b5f81359050617fd181617fad565b92915050565b5f8060408385031215617fed57617fec6164b8565b5b5f617ffa85828601617fc3565b925050602061800b85828601617fc3565b9150509250929050565b5f60ff82169050919050565b7f4e487b71000000000000000000000000000000000000000000000000000000005f52601160045260245ffd5b5f61805882618015565b915061806383618015565b9250828201905060ff81111561807c5761807b618021565b5b92915050565b61808b81618015565b82525050565b5f6080820190506180a45f830187616b83565b6180b16020830186618082565b6180be6040830185616b83565b6180cb6060830184616b83565b95945050505050565b5f6040820190506180e75f830186616b83565b81810360208301526180fa818486617726565b9050949350505050565b5f8151905061811281617fad565b92915050565b5f6020828403121561812d5761812c6164b8565b5b5f61813a84828501618104565b91505092915050565b7f57524f4e475f46524f4d000000000000000000000000000000000000000000005f82015250565b5f618177600a836167d5565b915061818282618143565b602082019050919050565b5f6020820190508181035f8301526181a48161816b565b9050919050565b7f494e56414c49445f524543495049454e540000000000000000000000000000005f82015250565b5f6181df6011836167d5565b91506181ea826181ab565b602082019050919050565b5f6020820190508181035f83015261820c816181d3565b9050919050565b7f4e4f545f415554484f52495a45440000000000000000000000000000000000005f82015250565b5f618247600e836167d5565b915061825282618213565b602082019050919050565b5f6020820190508181035f8301526182748161823b565b9050919050565b5f60808201905061828e5f830187616b83565b61829b6020830186616b83565b6182a86040830185616c7f565b6182b5606083018461683d565b95945050505050565b5f6020820190508181035f8301526182d7818486617726565b90509392505050565b5f67ffffffffffffffff8211156182fa576182f9617ac4565b5b61830382616652565b9050602081019050919050565b5f61832261831d846182e0565b617c9a565b90508281526020810184848401111561833e5761833d617c65565b5b618349848285616644565b509392505050565b5f82601f8301126183655761836461653c565b5b8151618375848260208601618310565b91505092915050565b5f60208284031215618393576183926164b8565b5b5f82015167ffffffffffffffff8111156183b0576183af6164bc565b5b6183bc84828501618351565b91505092915050565b5f6183cf8261676d565b91506183da8361676d565b92508282019050808211156183f2576183f1618021565b5b92915050565b5f819050919050565b61841261840d82616b7a565b6183f8565b82525050565b5f6184238285618401565b6020820191506184338284618401565b6020820191508190509392505050565b5f819050919050565b5f61845682618443565b91507f8000000000000000000000000000000000000000000000000000000000000000820361848857618487618021565b5b815f039050919050565b5f80fd5b5f60a082840312156184ab576184aa618492565b5b6184b560a0617c9a565b90505f6184c484828501617daf565b5f8301525060206184d784828501617daf565b60208301525060406184eb84828501617def565b60408301525060606184ff84828501617e2f565b606083015250608061851384828501617e80565b60808301525092915050565b5f60a08284031215618534576185336164b8565b5b5f61854184828501618496565b91505092915050565b5f813561855681617d99565b80915050919050565b5f815f1b9050919050565b5f73ffffffffffffffffffffffffffffffffffffffff6185898461855f565b9350801983169250808416831791505092915050565b5f819050919050565b6185b182616e17565b6185c46185bd8261859f565b835461856a565b8255505050565b5f81356185d781617dd9565b80915050919050565b5f8160a01b9050919050565b5f76ffffff000000000000000000000000000000000000000061860e846185e0565b9350801983169250808416831791505092915050565b5f61863e61863961863484616e37565b616939565b616e37565b9050919050565b5f819050919050565b61865782618624565b61866a61866382618645565b83546185ec565b8255505050565b5f813561867d81617e19565b80915050919050565b5f8160b81b9050919050565b5f79ffffff00000000000000000000000000000000000000000000006186b784618686565b9350801983169250808416831791505092915050565b5f6186e76186e26186dd84616e54565b616939565b616e54565b9050919050565b5f819050919050565b618700826186cd565b61871361870c826186ee565b8354618692565b8255505050565b5f813561872681617e6a565b80915050919050565b5f61873982616942565b9050919050565b5f61874a8261872f565b9050919050565b5f819050919050565b61876382618740565b61877661876f82618751565b835461856a565b8255505050565b5f81015f83018061878d8161854a565b905061879981846185a8565b5050506001810160208301806187ae8161854a565b90506187ba81846185a8565b5050506001810160408301806187cf816185cb565b90506187db818461864e565b5050506001810160608301806187f081618671565b90506187fc81846186f7565b5050506002810160808301806188118161871a565b905061881d818461875a565b5050505050565b61882e828261877d565b5050565b5f60208284031215618847576188466164b8565b5b5f61885484828501617daf565b91505092915050565b61886681618443565b82525050565b61887581616b7a565b82525050565b608082015f82015161888f5f850182616e60565b5060208201516188a26020850182616e60565b5060408201516188b5604085018261885d565b5060608201516188c8606085018261886c565b50505050565b5f610140820190506188e25f830187616e8f565b6188ef60a083018661887b565b818103610120830152618903818486617726565b905095945050505050565b61891781618443565b8114618921575f80fd5b50565b5f815190506189328161890e565b92915050565b5f806040838503121561894e5761894d6164b8565b5b5f61895b85828601618924565b925050602061896c85828601618924565b9150509250929050565b5f6020820190506189895f830184616fcc565b92915050565b5f8151905061899d81616776565b92915050565b5f602082840312156189b8576189b76164b8565b5b5f6189c58482850161898f565b91505092915050565b5f6060820190506189e15f830186616fcc565b6189ee602083018561683d565b6189fb6040830184616c7f565b949350505050565b5f604082019050618a165f830185616fcc565b618a236020830184616c7f565b9392505050565b5f604082019050618a3d5f830185616a01565b618a4a6020830184616a01565b9392505050565b7f414c52454144595f4d494e5445440000000000000000000000000000000000005f82015250565b5f618a85600e836167d5565b9150618a9082618a51565b602082019050919050565b5f6020820190508181035f830152618ab281618a79565b9050919050565b5f618ad3618ace618ac984618443565b616939565b618443565b9050919050565b618ae381618ab9565b82525050565b5f60a082019050618afc5f830188616c7f565b618b09602083018761683d565b618b166040830186616f16565b618b236060830185616c7f565b618b306080830184618ada565b9695505050505050565b5f608082019050618b4d5f83018761683d565b618b5a602083018661683d565b618b676040830185617f38565b618b74606083018461683d565b95945050505050565b618b8681618443565b82525050565b5f606082019050618b9f5f830186616c7f565b618bac6020830185618b7d565b618bb96040830184618ada565b94935050505056fea264697066735822122073aca04ab6062130428aeb080a8d31332c99e5c6c92db71fc5ac60d48ee8756464736f6c634300081a0033","linkReferences":{}},"methodIdentifiers":{"DOMAIN_SEPARATOR()":"3644e515","WETH9()":"4aa4a4fc","approve(address,uint256)":"095ea7b3","balanceOf(address)":"70a08231","getApproved(uint256)":"081812fc","getPoolAndPositionInfo(uint256)":"7ba03aad","getPositionLiquidity(uint256)":"1efeed33","initializePool((address,address,uint24,int24,address),uint160)":"f7020405","isApprovedForAll(address,address)":"e985e9c5","modifyLiquidities(bytes,uint256)":"dd46508f","modifyLiquiditiesWithoutUnlock(bytes,bytes[])":"4afe393c","msgSender()":"d737d0c7","multicall(bytes[])":"ac9650d8","name()":"06fdde03","nextTokenId()":"75794a3c","nonces(address,uint256)":"502e1a16","ownerOf(uint256)":"6352211e","permit(address,((address,uint160,uint48,uint48),address,uint256),bytes)":"2b67b570","permit(address,uint256,uint256,uint256,bytes)":"0f5730f1","permit2()":"12261ee7","permitBatch(address,((address,uint160,uint48,uint48)[],address,uint256),bytes)":"002a3e3a","permitForAll(address,address,bool,uint256,uint256,bytes)":"3aea60f0","poolKeys(bytes25)":"86b6be7d","poolManager()":"dc4c90d3","positionInfo(uint256)":"89097a6a","revokeNonce(uint256)":"05c1ee20","safeTransferFrom(address,address,uint256)":"42842e0e","safeTransferFrom(address,address,uint256,bytes)":"b88d4fde","setApprovalForAll(address,bool)":"a22cb465","subscribe(uint256,address,bytes)":"2b9261de","subscriber(uint256)":"16a24131","supportsInterface(bytes4)":"01ffc9a7","symbol()":"95d89b41","tokenDescriptor()":"5a9d7a68","tokenURI(uint256)":"c87b56dd","transferFrom(address,address,uint256)":"23b872dd","unlockCallback(bytes)":"91dd7346","unsubscribe(uint256)":"ad0b27fb","unsubscribeGasLimit()":"4767565f"},"id":95}