{"abi":[{"type":"constructor","inputs":[{"name":"_permit2","type":"address","internalType":"contract IAllowanceTransfer"}],"stateMutability":"nonpayable"},{"type":"function","name":"permit","inputs":[{"name":"owner","type":"address","internalType":"address"},{"name":"permitSingle","type":"tuple","internalType":"struct IAllowanceTransfer.PermitSingle","components":[{"name":"details","type":"tuple","internalType":"struct IAllowanceTransfer.PermitDetails","components":[{"name":"token","type":"address","internalType":"address"},{"name":"amount","type":"uint160","internalType":"uint160"},{"name":"expiration","type":"uint48","internalType":"uint48"},{"name":"nonce","type":"uint48","internalType":"uint48"}]},{"name":"spender","type":"address","internalType":"address"},{"name":"sigDeadline","type":"uint256","internalType":"uint256"}]},{"name":"signature","type":"bytes","internalType":"bytes"}],"outputs":[{"name":"err","type":"bytes","internalType":"bytes"}],"stateMutability":"payable"},{"type":"function","name":"permit2","inputs":[],"outputs":[{"name":"","type":"address","internalType":"contract IAllowanceTransfer"}],"stateMutability":"view"},{"type":"function","name":"permitBatch","inputs":[{"name":"owner","type":"address","internalType":"address"},{"name":"_permitBatch","type":"tuple","internalType":"struct IAllowanceTransfer.PermitBatch","components":[{"name":"details","type":"tuple[]","internalType":"struct IAllowanceTransfer.PermitDetails[]","components":[{"name":"token","type":"address","internalType":"address"},{"name":"amount","type":"uint160","internalType":"uint160"},{"name":"expiration","type":"uint48","internalType":"uint48"},{"name":"nonce","type":"uint48","internalType":"uint48"}]},{"name":"spender","type":"address","internalType":"address"},{"name":"sigDeadline","type":"uint256","internalType":"uint256"}]},{"name":"signature","type":"bytes","internalType":"bytes"}],"outputs":[{"name":"err","type":"bytes","internalType":"bytes"}],"stateMutability":"payable"}],"bytecode":{"object":"0x60a060405234801561000f575f80fd5b50604051610b22380380610b22833981810160405281019061003191906100da565b8073ffffffffffffffffffffffffffffffffffffffff1660808173ffffffffffffffffffffffffffffffffffffffff168152505050610105565b5f80fd5b5f73ffffffffffffffffffffffffffffffffffffffff82169050919050565b5f6100988261006f565b9050919050565b5f6100a98261008e565b9050919050565b6100b98161009f565b81146100c3575f80fd5b50565b5f815190506100d4816100b0565b92915050565b5f602082840312156100ef576100ee61006b565b5b5f6100fc848285016100c6565b91505092915050565b6080516109f861012a5f395f818160c40152818161019101526101b701526109f85ff3fe608060405260043610610032575f3560e01c80622a3e3a1461003657806312261ee7146100665780632b67b57014610090575b5f80fd5b610050600480360381019061004b9190610367565b6100c0565b60405161005d9190610464565b60405180910390f35b348015610071575f80fd5b5061007a61018f565b60405161008791906104df565b60405180910390f35b6100aa60048036038101906100a59190610516565b6101b3565b6040516100b79190610464565b60405180910390f35b60607f000000000000000000000000000000000000000000000000000000000000000073ffffffffffffffffffffffffffffffffffffffff16632a2d80d1868686866040518563ffffffff1660e01b815260040161012194939291906108e6565b5f604051808303815f87803b158015610138575f80fd5b505af1925050508015610149575060015b610186573d805f8114610177576040519150601f19603f3d011682016040523d82523d5f602084013e61017c565b606091505b5080915050610187565b5b949350505050565b7f000000000000000000000000000000000000000000000000000000000000000081565b60607f000000000000000000000000000000000000000000000000000000000000000073ffffffffffffffffffffffffffffffffffffffff16632b67b570868686866040518563ffffffff1660e01b81526004016102149493929190610983565b5f604051808303815f87803b15801561022b575f80fd5b505af192505050801561023c575060015b610279573d805f811461026a576040519150601f19603f3d011682016040523d82523d5f602084013e61026f565b606091505b508091505061027a565b5b949350505050565b5f80fd5b5f80fd5b5f73ffffffffffffffffffffffffffffffffffffffff82169050919050565b5f6102b38261028a565b9050919050565b6102c3816102a9565b81146102cd575f80fd5b50565b5f813590506102de816102ba565b92915050565b5f80fd5b5f606082840312156102fd576102fc6102e4565b5b81905092915050565b5f80fd5b5f80fd5b5f80fd5b5f8083601f84011261032757610326610306565b5b8235905067ffffffffffffffff8111156103445761034361030a565b5b6020830191508360018202830111156103605761035f61030e565b5b9250929050565b5f805f806060858703121561037f5761037e610282565b5b5f61038c878288016102d0565b945050602085013567ffffffffffffffff8111156103ad576103ac610286565b5b6103b9878288016102e8565b935050604085013567ffffffffffffffff8111156103da576103d9610286565b5b6103e687828801610312565b925092505092959194509250565b5f81519050919050565b5f82825260208201905092915050565b8281835e5f83830152505050565b5f601f19601f8301169050919050565b5f610436826103f4565b61044081856103fe565b935061045081856020860161040e565b6104598161041c565b840191505092915050565b5f6020820190508181035f83015261047c818461042c565b905092915050565b5f819050919050565b5f6104a76104a261049d8461028a565b610484565b61028a565b9050919050565b5f6104b88261048d565b9050919050565b5f6104c9826104ae565b9050919050565b6104d9816104bf565b82525050565b5f6020820190506104f25f8301846104d0565b92915050565b5f60c0828403121561050d5761050c6102e4565b5b81905092915050565b5f805f80610100858703121561052f5761052e610282565b5b5f61053c878288016102d0565b945050602061054d878288016104f8565b93505060e085013567ffffffffffffffff81111561056e5761056d610286565b5b61057a87828801610312565b925092505092959194509250565b610591816102a9565b82525050565b5f80fd5b5f80fd5b5f80fd5b5f80833560016020038436030381126105bf576105be61059f565b5b83810192508235915060208301925067ffffffffffffffff8211156105e7576105e6610597565b5b6080820236038313156105fd576105fc61059b565b5b509250929050565b5f82825260208201905092915050565b5f819050919050565b5f61062c60208401846102d0565b905092915050565b61063d816102a9565b82525050565b61064c8161028a565b8114610656575f80fd5b50565b5f8135905061066781610643565b92915050565b5f61067b6020840184610659565b905092915050565b61068c8161028a565b82525050565b5f65ffffffffffff82169050919050565b6106ac81610692565b81146106b6575f80fd5b50565b5f813590506106c7816106a3565b92915050565b5f6106db60208401846106b9565b905092915050565b6106ec81610692565b82525050565b608082016107025f83018361061e565b61070e5f850182610634565b5061071c602083018361066d565b6107296020850182610683565b5061073760408301836106cd565b61074460408501826106e3565b5061075260608301836106cd565b61075f60608501826106e3565b50505050565b5f61077083836106f2565b60808301905092915050565b5f82905092915050565b5f608082019050919050565b5f61079d8385610605565b93506107a882610615565b805f5b858110156107e0576107bd828461077c565b6107c78882610765565b97506107d283610786565b9250506001810190506107ab565b5085925050509392505050565b5f819050919050565b6107ff816107ed565b8114610809575f80fd5b50565b5f8135905061081a816107f6565b92915050565b5f61082e602084018461080c565b905092915050565b61083f816107ed565b82525050565b5f606083016108565f8401846105a3565b8583035f870152610868838284610792565b92505050610879602084018461061e565b6108866020860182610634565b506108946040840184610820565b6108a16040860182610836565b508091505092915050565b828183375f83830152505050565b5f6108c583856103fe565b93506108d28385846108ac565b6108db8361041c565b840190509392505050565b5f6060820190506108f95f830187610588565b818103602083015261090b8186610845565b905081810360408301526109208184866108ba565b905095945050505050565b60c0820161093b5f83018361077c565b6109475f8501826106f2565b50610955608083018361061e565b6109626080850182610634565b5061097060a0830183610820565b61097d60a0850182610836565b50505050565b5f610100820190506109975f830187610588565b6109a4602083018661092b565b81810360e08301526109b78184866108ba565b90509594505050505056fea26469706673582212209dbc7114187191b7ce50c5cd0105142b8a95ec90df69e2dd27768a954d82974d64736f6c634300081a0033","linkReferences":{}},"methodIdentifiers":{"permit(address,((address,uint160,uint48,uint48),address,uint256),bytes)":"2b67b570","permit2()":"12261ee7","permitBatch(address,((address,uint160,uint48,uint48)[],address,uint256),bytes)":"002a3e3a"},"id":104}